{"abi":[{"type":"constructor","inputs":[{"name":"_asset","type":"address","internalType":"address"},{"name":"_strategyHelper","type":"address","internalType":"address"},{"name":"_exchangeRouter","type":"address","internalType":"address"},{"name":"_reader","type":"address","internalType":"address"},{"name":"_depositHandler","type":"address","internalType":"address"},{"name":"_withdrawalHandler","type":"address","internalType":"address"},{"name":"_dataStore","type":"address","internalType":"address"},{"name":"_market","type":"address","internalType":"address"}],"stateMutability":"nonpayable"},{"type":"receive","stateMutability":"payable"},{"type":"function","name":"afterDepositCancellation","inputs":[{"name":"","type":"bytes32","internalType":"bytes32"},{"name":"","type":"tuple","internalType":"struct IDeposit.Props","components":[{"name":"addresses","type":"tuple","internalType":"struct IDeposit.Addresses","components":[{"name":"account","type":"address","internalType":"address"},{"name":"receiver","type":"address","internalType":"address"},{"name":"callbackContract","type":"address","internalType":"address"},{"name":"uiFeeReceiver","type":"address","internalType":"address"},{"name":"market","type":"address","internalType":"address"},{"name":"initialLongToken","type":"address","internalType":"address"},{"name":"initialShortToken","type":"address","internalType":"address"},{"name":"longTokenSwapPath","type":"address[]","internalType":"address[]"},{"name":"shortTokenSwapPath","type":"address[]","internalType":"address[]"}]},{"name":"numbers","type":"tuple","internalType":"struct IDeposit.Numbers","components":[{"name":"initialLongTokenAmount","type":"uint256","internalType":"uint256"},{"name":"initialShortTokenAmount","type":"uint256","internalType":"uint256"},{"name":"minMarketTokens","type":"uint256","internalType":"uint256"},{"name":"updatedAtBlock","type":"uint256","internalType":"uint256"},{"name":"executionFee","type":"uint256","internalType":"uint256"},{"name":"callbackGasLimit","type":"uint256","internalType":"uint256"}]},{"name":"flags","type":"tuple","internalType":"struct IDeposit.Flags","components":[{"name":"shouldUnwrapNativeToken","type":"bool","internalType":"bool"}]}]},{"name":"","type":"tuple","internalType":"struct IEventUtils.EventLogData","components":[{"name":"addressItems","type":"tuple","internalType":"struct IEventUtils.AddressItems","components":[{"name":"items","type":"tuple[]","internalType":"struct IEventUtils.AddressKeyValue[]","components":[{"name":"key","type":"string","internalType":"string"},{"name":"value","type":"address","internalType":"address"}]},{"name":"arrayItems","type":"tuple[]","internalType":"struct IEventUtils.AddressArrayKeyValue[]","components":[{"name":"key","type":"string","internalType":"string"},{"name":"value","type":"address[]","internalType":"address[]"}]}]},{"name":"uintItems","type":"tuple","internalType":"struct IEventUtils.UintItems","components":[{"name":"items","type":"tuple[]","internalType":"struct IEventUtils.UintKeyValue[]","components":[{"name":"key","type":"string","internalType":"string"},{"name":"value","type":"uint256","internalType":"uint256"}]},{"name":"arrayItems","type":"tuple[]","internalType":"struct IEventUtils.UintArrayKeyValue[]","components":[{"name":"key","type":"string","internalType":"string"},{"name":"value","type":"uint256[]","internalType":"uint256[]"}]}]},{"name":"intItems","type":"tuple","internalType":"struct IEventUtils.IntItems","components":[{"name":"items","type":"tuple[]","internalType":"struct IEventUtils.IntKeyValue[]","components":[{"name":"key","type":"string","internalType":"string"},{"name":"value","type":"int256","internalType":"int256"}]},{"name":"arrayItems","type":"tuple[]","internalType":"struct IEventUtils.IntArrayKeyValue[]","components":[{"name":"key","type":"string","internalType":"string"},{"name":"value","type":"int256[]","internalType":"int256[]"}]}]},{"name":"boolItems","type":"tuple","internalType":"struct IEventUtils.BoolItems","components":[{"name":"items","type":"tuple[]","internalType":"struct IEventUtils.BoolKeyValue[]","components":[{"name":"key","type":"string","internalType":"string"},{"name":"value","type":"bool","internalType":"bool"}]},{"name":"arrayItems","type":"tuple[]","internalType":"struct IEventUtils.BoolArrayKeyValue[]","components":[{"name":"key","type":"string","internalType":"string"},{"name":"value","type":"bool[]","internalType":"bool[]"}]}]},{"name":"bytes32Items","type":"tuple","internalType":"struct IEventUtils.Bytes32Items","components":[{"name":"items","type":"tuple[]","internalType":"struct IEventUtils.Bytes32KeyValue[]","components":[{"name":"key","type":"string","internalType":"string"},{"name":"value","type":"bytes32","internalType":"bytes32"}]},{"name":"arrayItems","type":"tuple[]","internalType":"struct IEventUtils.Bytes32ArrayKeyValue[]","components":[{"name":"key","type":"string","internalType":"string"},{"name":"value","type":"bytes32[]","internalType":"bytes32[]"}]}]},{"name":"bytesItems","type":"tuple","internalType":"struct IEventUtils.BytesItems","components":[{"name":"items","type":"tuple[]","internalType":"struct IEventUtils.BytesKeyValue[]","components":[{"name":"key","type":"string","internalType":"string"},{"name":"value","type":"bytes","internalType":"bytes"}]},{"name":"arrayItems","type":"tuple[]","internalType":"struct IEventUtils.BytesArrayKeyValue[]","components":[{"name":"key","type":"string","internalType":"string"},{"name":"value","type":"bytes[]","internalType":"bytes[]"}]}]},{"name":"stringItems","type":"tuple","internalType":"struct IEventUtils.StringItems","components":[{"name":"items","type":"tuple[]","internalType":"struct IEventUtils.StringKeyValue[]","components":[{"name":"key","type":"string","internalType":"string"},{"name":"value","type":"string","internalType":"string"}]},{"name":"arrayItems","type":"tuple[]","internalType":"struct IEventUtils.StringArrayKeyValue[]","components":[{"name":"key","type":"string","internalType":"string"},{"name":"value","type":"string[]","internalType":"string[]"}]}]}]}],"outputs":[],"stateMutability":"nonpayable"},{"type":"function","name":"afterDepositExecution","inputs":[{"name":"","type":"bytes32","internalType":"bytes32"},{"name":"","type":"tuple","internalType":"struct IDeposit.Props","components":[{"name":"addresses","type":"tuple","internalType":"struct IDeposit.Addresses","components":[{"name":"account","type":"address","internalType":"address"},{"name":"receiver","type":"address","internalType":"address"},{"name":"callbackContract","type":"address","internalType":"address"},{"name":"uiFeeReceiver","type":"address","internalType":"address"},{"name":"market","type":"address","internalType":"address"},{"name":"initialLongToken","type":"address","internalType":"address"},{"name":"initialShortToken","type":"address","internalType":"address"},{"name":"longTokenSwapPath","type":"address[]","internalType":"address[]"},{"name":"shortTokenSwapPath","type":"address[]","internalType":"address[]"}]},{"name":"numbers","type":"tuple","internalType":"struct IDeposit.Numbers","components":[{"name":"initialLongTokenAmount","type":"uint256","internalType":"uint256"},{"name":"initialShortTokenAmount","type":"uint256","internalType":"uint256"},{"name":"minMarketTokens","type":"uint256","internalType":"uint256"},{"name":"updatedAtBlock","type":"uint256","internalType":"uint256"},{"name":"executionFee","type":"uint256","internalType":"uint256"},{"name":"callbackGasLimit","type":"uint256","internalType":"uint256"}]},{"name":"flags","type":"tuple","internalType":"struct IDeposit.Flags","components":[{"name":"shouldUnwrapNativeToken","type":"bool","internalType":"bool"}]}]},{"name":"","type":"tuple","internalType":"struct IEventUtils.EventLogData","components":[{"name":"addressItems","type":"tuple","internalType":"struct IEventUtils.AddressItems","components":[{"name":"items","type":"tuple[]","internalType":"struct IEventUtils.AddressKeyValue[]","components":[{"name":"key","type":"string","internalType":"string"},{"name":"value","type":"address","internalType":"address"}]},{"name":"arrayItems","type":"tuple[]","internalType":"struct IEventUtils.AddressArrayKeyValue[]","components":[{"name":"key","type":"string","internalType":"string"},{"name":"value","type":"address[]","internalType":"address[]"}]}]},{"name":"uintItems","type":"tuple","internalType":"struct IEventUtils.UintItems","components":[{"name":"items","type":"tuple[]","internalType":"struct IEventUtils.UintKeyValue[]","components":[{"name":"key","type":"string","internalType":"string"},{"name":"value","type":"uint256","internalType":"uint256"}]},{"name":"arrayItems","type":"tuple[]","internalType":"struct IEventUtils.UintArrayKeyValue[]","components":[{"name":"key","type":"string","internalType":"string"},{"name":"value","type":"uint256[]","internalType":"uint256[]"}]}]},{"name":"intItems","type":"tuple","internalType":"struct IEventUtils.IntItems","components":[{"name":"items","type":"tuple[]","internalType":"struct IEventUtils.IntKeyValue[]","components":[{"name":"key","type":"string","internalType":"string"},{"name":"value","type":"int256","internalType":"int256"}]},{"name":"arrayItems","type":"tuple[]","internalType":"struct IEventUtils.IntArrayKeyValue[]","components":[{"name":"key","type":"string","internalType":"string"},{"name":"value","type":"int256[]","internalType":"int256[]"}]}]},{"name":"boolItems","type":"tuple","internalType":"struct IEventUtils.BoolItems","components":[{"name":"items","type":"tuple[]","internalType":"struct IEventUtils.BoolKeyValue[]","components":[{"name":"key","type":"string","internalType":"string"},{"name":"value","type":"bool","internalType":"bool"}]},{"name":"arrayItems","type":"tuple[]","internalType":"struct IEventUtils.BoolArrayKeyValue[]","components":[{"name":"key","type":"string","internalType":"string"},{"name":"value","type":"bool[]","internalType":"bool[]"}]}]},{"name":"bytes32Items","type":"tuple","internalType":"struct IEventUtils.Bytes32Items","components":[{"name":"items","type":"tuple[]","internalType":"struct IEventUtils.Bytes32KeyValue[]","components":[{"name":"key","type":"string","internalType":"string"},{"name":"value","type":"bytes32","internalType":"bytes32"}]},{"name":"arrayItems","type":"tuple[]","internalType":"struct IEventUtils.Bytes32ArrayKeyValue[]","components":[{"name":"key","type":"string","internalType":"string"},{"name":"value","type":"bytes32[]","internalType":"bytes32[]"}]}]},{"name":"bytesItems","type":"tuple","internalType":"struct IEventUtils.BytesItems","components":[{"name":"items","type":"tuple[]","internalType":"struct IEventUtils.BytesKeyValue[]","components":[{"name":"key","type":"string","internalType":"string"},{"name":"value","type":"bytes","internalType":"bytes"}]},{"name":"arrayItems","type":"tuple[]","internalType":"struct IEventUtils.BytesArrayKeyValue[]","components":[{"name":"key","type":"string","internalType":"string"},{"name":"value","type":"bytes[]","internalType":"bytes[]"}]}]},{"name":"stringItems","type":"tuple","internalType":"struct IEventUtils.StringItems","components":[{"name":"items","type":"tuple[]","internalType":"struct IEventUtils.StringKeyValue[]","components":[{"name":"key","type":"string","internalType":"string"},{"name":"value","type":"string","internalType":"string"}]},{"name":"arrayItems","type":"tuple[]","internalType":"struct IEventUtils.StringArrayKeyValue[]","components":[{"name":"key","type":"string","internalType":"string"},{"name":"value","type":"string[]","internalType":"string[]"}]}]}]}],"outputs":[],"stateMutability":"nonpayable"},{"type":"function","name":"afterWithdrawalCancellation","inputs":[{"name":"","type":"bytes32","internalType":"bytes32"},{"name":"","type":"tuple","internalType":"struct IWithdrawal.Props","components":[{"name":"addresses","type":"tuple","internalType":"struct IWithdrawal.Addresses","components":[{"name":"account","type":"address","internalType":"address"},{"name":"receiver","type":"address","internalType":"address"},{"name":"callbackContract","type":"address","internalType":"address"},{"name":"uiFeeReceiver","type":"address","internalType":"address"},{"name":"market","type":"address","internalType":"address"},{"name":"longTokenSwapPath","type":"address[]","internalType":"address[]"},{"name":"shortTokenSwapPath","type":"address[]","internalType":"address[]"}]},{"name":"numbers","type":"tuple","internalType":"struct IWithdrawal.Numbers","components":[{"name":"marketTokenAmount","type":"uint256","internalType":"uint256"},{"name":"minLongTokenAmount","type":"uint256","internalType":"uint256"},{"name":"minShortTokenAmount","type":"uint256","internalType":"uint256"},{"name":"updatedAtBlock","type":"uint256","internalType":"uint256"},{"name":"executionFee","type":"uint256","internalType":"uint256"},{"name":"callbackGasLimit","type":"uint256","internalType":"uint256"}]},{"name":"flags","type":"tuple","internalType":"struct IWithdrawal.Flags","components":[{"name":"shouldUnwrapNativeToken","type":"bool","internalType":"bool"}]}]},{"name":"","type":"tuple","internalType":"struct IEventUtils.EventLogData","components":[{"name":"addressItems","type":"tuple","internalType":"struct IEventUtils.AddressItems","components":[{"name":"items","type":"tuple[]","internalType":"struct IEventUtils.AddressKeyValue[]","components":[{"name":"key","type":"string","internalType":"string"},{"name":"value","type":"address","internalType":"address"}]},{"name":"arrayItems","type":"tuple[]","internalType":"struct IEventUtils.AddressArrayKeyValue[]","components":[{"name":"key","type":"string","internalType":"string"},{"name":"value","type":"address[]","internalType":"address[]"}]}]},{"name":"uintItems","type":"tuple","internalType":"struct IEventUtils.UintItems","components":[{"name":"items","type":"tuple[]","internalType":"struct IEventUtils.UintKeyValue[]","components":[{"name":"key","type":"string","internalType":"string"},{"name":"value","type":"uint256","internalType":"uint256"}]},{"name":"arrayItems","type":"tuple[]","internalType":"struct IEventUtils.UintArrayKeyValue[]","components":[{"name":"key","type":"string","internalType":"string"},{"name":"value","type":"uint256[]","internalType":"uint256[]"}]}]},{"name":"intItems","type":"tuple","internalType":"struct IEventUtils.IntItems","components":[{"name":"items","type":"tuple[]","internalType":"struct IEventUtils.IntKeyValue[]","components":[{"name":"key","type":"string","internalType":"string"},{"name":"value","type":"int256","internalType":"int256"}]},{"name":"arrayItems","type":"tuple[]","internalType":"struct IEventUtils.IntArrayKeyValue[]","components":[{"name":"key","type":"string","internalType":"string"},{"name":"value","type":"int256[]","internalType":"int256[]"}]}]},{"name":"boolItems","type":"tuple","internalType":"struct IEventUtils.BoolItems","components":[{"name":"items","type":"tuple[]","internalType":"struct IEventUtils.BoolKeyValue[]","components":[{"name":"key","type":"string","internalType":"string"},{"name":"value","type":"bool","internalType":"bool"}]},{"name":"arrayItems","type":"tuple[]","internalType":"struct IEventUtils.BoolArrayKeyValue[]","components":[{"name":"key","type":"string","internalType":"string"},{"name":"value","type":"bool[]","internalType":"bool[]"}]}]},{"name":"bytes32Items","type":"tuple","internalType":"struct IEventUtils.Bytes32Items","components":[{"name":"items","type":"tuple[]","internalType":"struct IEventUtils.Bytes32KeyValue[]","components":[{"name":"key","type":"string","internalType":"string"},{"name":"value","type":"bytes32","internalType":"bytes32"}]},{"name":"arrayItems","type":"tuple[]","internalType":"struct IEventUtils.Bytes32ArrayKeyValue[]","components":[{"name":"key","type":"string","internalType":"string"},{"name":"value","type":"bytes32[]","internalType":"bytes32[]"}]}]},{"name":"bytesItems","type":"tuple","internalType":"struct IEventUtils.BytesItems","components":[{"name":"items","type":"tuple[]","internalType":"struct IEventUtils.BytesKeyValue[]","components":[{"name":"key","type":"string","internalType":"string"},{"name":"value","type":"bytes","internalType":"bytes"}]},{"name":"arrayItems","type":"tuple[]","internalType":"struct IEventUtils.BytesArrayKeyValue[]","components":[{"name":"key","type":"string","internalType":"string"},{"name":"value","type":"bytes[]","internalType":"bytes[]"}]}]},{"name":"stringItems","type":"tuple","internalType":"struct IEventUtils.StringItems","components":[{"name":"items","type":"tuple[]","internalType":"struct IEventUtils.StringKeyValue[]","components":[{"name":"key","type":"string","internalType":"string"},{"name":"value","type":"string","internalType":"string"}]},{"name":"arrayItems","type":"tuple[]","internalType":"struct IEventUtils.StringArrayKeyValue[]","components":[{"name":"key","type":"string","internalType":"string"},{"name":"value","type":"string[]","internalType":"string[]"}]}]}]}],"outputs":[],"stateMutability":"nonpayable"},{"type":"function","name":"afterWithdrawalExecution","inputs":[{"name":"","type":"bytes32","internalType":"bytes32"},{"name":"","type":"tuple","internalType":"struct IWithdrawal.Props","components":[{"name":"addresses","type":"tuple","internalType":"struct IWithdrawal.Addresses","components":[{"name":"account","type":"address","internalType":"address"},{"name":"receiver","type":"address","internalType":"address"},{"name":"callbackContract","type":"address","internalType":"address"},{"name":"uiFeeReceiver","type":"address","internalType":"address"},{"name":"market","type":"address","internalType":"address"},{"name":"longTokenSwapPath","type":"address[]","internalType":"address[]"},{"name":"shortTokenSwapPath","type":"address[]","internalType":"address[]"}]},{"name":"numbers","type":"tuple","internalType":"struct IWithdrawal.Numbers","components":[{"name":"marketTokenAmount","type":"uint256","internalType":"uint256"},{"name":"minLongTokenAmount","type":"uint256","internalType":"uint256"},{"name":"minShortTokenAmount","type":"uint256","internalType":"uint256"},{"name":"updatedAtBlock","type":"uint256","internalType":"uint256"},{"name":"executionFee","type":"uint256","internalType":"uint256"},{"name":"callbackGasLimit","type":"uint256","internalType":"uint256"}]},{"name":"flags","type":"tuple","internalType":"struct IWithdrawal.Flags","components":[{"name":"shouldUnwrapNativeToken","type":"bool","internalType":"bool"}]}]},{"name":"","type":"tuple","internalType":"struct IEventUtils.EventLogData","components":[{"name":"addressItems","type":"tuple","internalType":"struct IEventUtils.AddressItems","components":[{"name":"items","type":"tuple[]","internalType":"struct IEventUtils.AddressKeyValue[]","components":[{"name":"key","type":"string","internalType":"string"},{"name":"value","type":"address","internalType":"address"}]},{"name":"arrayItems","type":"tuple[]","internalType":"struct IEventUtils.AddressArrayKeyValue[]","components":[{"name":"key","type":"string","internalType":"string"},{"name":"value","type":"address[]","internalType":"address[]"}]}]},{"name":"uintItems","type":"tuple","internalType":"struct IEventUtils.UintItems","components":[{"name":"items","type":"tuple[]","internalType":"struct IEventUtils.UintKeyValue[]","components":[{"name":"key","type":"string","internalType":"string"},{"name":"value","type":"uint256","internalType":"uint256"}]},{"name":"arrayItems","type":"tuple[]","internalType":"struct IEventUtils.UintArrayKeyValue[]","components":[{"name":"key","type":"string","internalType":"string"},{"name":"value","type":"uint256[]","internalType":"uint256[]"}]}]},{"name":"intItems","type":"tuple","internalType":"struct IEventUtils.IntItems","components":[{"name":"items","type":"tuple[]","internalType":"struct IEventUtils.IntKeyValue[]","components":[{"name":"key","type":"string","internalType":"string"},{"name":"value","type":"int256","internalType":"int256"}]},{"name":"arrayItems","type":"tuple[]","internalType":"struct IEventUtils.IntArrayKeyValue[]","components":[{"name":"key","type":"string","internalType":"string"},{"name":"value","type":"int256[]","internalType":"int256[]"}]}]},{"name":"boolItems","type":"tuple","internalType":"struct IEventUtils.BoolItems","components":[{"name":"items","type":"tuple[]","internalType":"struct IEventUtils.BoolKeyValue[]","components":[{"name":"key","type":"string","internalType":"string"},{"name":"value","type":"bool","internalType":"bool"}]},{"name":"arrayItems","type":"tuple[]","internalType":"struct IEventUtils.BoolArrayKeyValue[]","components":[{"name":"key","type":"string","internalType":"string"},{"name":"value","type":"bool[]","internalType":"bool[]"}]}]},{"name":"bytes32Items","type":"tuple","internalType":"struct IEventUtils.Bytes32Items","components":[{"name":"items","type":"tuple[]","internalType":"struct IEventUtils.Bytes32KeyValue[]","components":[{"name":"key","type":"string","internalType":"string"},{"name":"value","type":"bytes32","internalType":"bytes32"}]},{"name":"arrayItems","type":"tuple[]","internalType":"struct IEventUtils.Bytes32ArrayKeyValue[]","components":[{"name":"key","type":"string","internalType":"string"},{"name":"value","type":"bytes32[]","internalType":"bytes32[]"}]}]},{"name":"bytesItems","type":"tuple","internalType":"struct IEventUtils.BytesItems","components":[{"name":"items","type":"tuple[]","internalType":"struct IEventUtils.BytesKeyValue[]","components":[{"name":"key","type":"string","internalType":"string"},{"name":"value","type":"bytes","internalType":"bytes"}]},{"name":"arrayItems","type":"tuple[]","internalType":"struct IEventUtils.BytesArrayKeyValue[]","components":[{"name":"key","type":"string","internalType":"string"},{"name":"value","type":"bytes[]","internalType":"bytes[]"}]}]},{"name":"stringItems","type":"tuple","internalType":"struct IEventUtils.StringItems","components":[{"name":"items","type":"tuple[]","internalType":"struct IEventUtils.StringKeyValue[]","components":[{"name":"key","type":"string","internalType":"string"},{"name":"value","type":"string","internalType":"string"}]},{"name":"arrayItems","type":"tuple[]","internalType":"struct IEventUtils.StringArrayKeyValue[]","components":[{"name":"key","type":"string","internalType":"string"},{"name":"value","type":"string[]","internalType":"string[]"}]}]}]}],"outputs":[],"stateMutability":"nonpayable"},{"type":"function","name":"amountPendingDeposit","inputs":[],"outputs":[{"name":"","type":"uint256","internalType":"uint256"}],"stateMutability":"view"},{"type":"function","name":"amountPendingWithdraw","inputs":[],"outputs":[{"name":"","type":"uint256","internalType":"uint256"}],"stateMutability":"view"},{"type":"function","name":"asset","inputs":[],"outputs":[{"name":"","type":"address","internalType":"contract IERC20"}],"stateMutability":"view"},{"type":"function","name":"burn","inputs":[{"name":"shares","type":"uint256","internalType":"uint256"}],"outputs":[{"name":"","type":"uint256","internalType":"uint256"}],"stateMutability":"nonpayable"},{"type":"function","name":"callbackGasLimit","inputs":[],"outputs":[{"name":"","type":"uint256","internalType":"uint256"}],"stateMutability":"view"},{"type":"function","name":"dataStore","inputs":[],"outputs":[{"name":"","type":"address","internalType":"address"}],"stateMutability":"view"},{"type":"function","name":"depositHandler","inputs":[],"outputs":[{"name":"","type":"address","internalType":"address"}],"stateMutability":"view"},{"type":"function","name":"depositVault","inputs":[],"outputs":[{"name":"","type":"address","internalType":"address"}],"stateMutability":"view"},{"type":"function","name":"earn","inputs":[],"outputs":[],"stateMutability":"payable"},{"type":"function","name":"earnActionValue","inputs":[],"outputs":[{"name":"","type":"uint256","internalType":"uint256"}],"stateMutability":"view"},{"type":"function","name":"exchangeRouter","inputs":[],"outputs":[{"name":"","type":"address","internalType":"contract IExchangeRouter"}],"stateMutability":"view"},{"type":"function","name":"exec","inputs":[{"name":"","type":"address","internalType":"address"}],"outputs":[{"name":"","type":"bool","internalType":"bool"}],"stateMutability":"view"},{"type":"function","name":"exit","inputs":[{"name":"strategy","type":"address","internalType":"address"}],"outputs":[],"stateMutability":"nonpayable"},{"type":"function","name":"file","inputs":[{"name":"what","type":"bytes32","internalType":"bytes32"},{"name":"data","type":"uint256","internalType":"uint256"}],"outputs":[],"stateMutability":"nonpayable"},{"type":"function","name":"file","inputs":[{"name":"what","type":"bytes32","internalType":"bytes32"},{"name":"data","type":"address","internalType":"address"}],"outputs":[],"stateMutability":"nonpayable"},{"type":"function","name":"indexTokenDecimals","inputs":[],"outputs":[{"name":"","type":"uint256","internalType":"uint256"}],"stateMutability":"view"},{"type":"function","name":"keepers","inputs":[{"name":"","type":"address","internalType":"address"}],"outputs":[{"name":"","type":"bool","internalType":"bool"}],"stateMutability":"view"},{"type":"function","name":"kill","inputs":[{"name":"shares","type":"uint256","internalType":"uint256"},{"name":"to","type":"address","internalType":"address"}],"outputs":[{"name":"","type":"bytes","internalType":"bytes"}],"stateMutability":"nonpayable"},{"type":"function","name":"market","inputs":[],"outputs":[{"name":"","type":"address","internalType":"address"}],"stateMutability":"view"},{"type":"function","name":"marketTokenPrice","inputs":[{"name":"isDeposit","type":"bool","internalType":"bool"}],"outputs":[{"name":"","type":"uint256","internalType":"uint256"}],"stateMutability":"view"},{"type":"function","name":"mint","inputs":[{"name":"amount","type":"uint256","internalType":"uint256"}],"outputs":[{"name":"","type":"uint256","internalType":"uint256"}],"stateMutability":"nonpayable"},{"type":"function","name":"move","inputs":[{"name":"old","type":"address","internalType":"address"}],"outputs":[],"stateMutability":"nonpayable"},{"type":"function","name":"name","inputs":[],"outputs":[{"name":"","type":"string","internalType":"string"}],"stateMutability":"view"},{"type":"function","name":"rate","inputs":[{"name":"shares","type":"uint256","internalType":"uint256"}],"outputs":[{"name":"","type":"uint256","internalType":"uint256"}],"stateMutability":"view"},{"type":"function","name":"reader","inputs":[],"outputs":[{"name":"","type":"address","internalType":"contract IReader"}],"stateMutability":"view"},{"type":"function","name":"reserveRatio","inputs":[],"outputs":[{"name":"","type":"uint256","internalType":"uint256"}],"stateMutability":"view"},{"type":"function","name":"slippage","inputs":[],"outputs":[{"name":"","type":"uint256","internalType":"uint256"}],"stateMutability":"view"},{"type":"function","name":"strategyHelper","inputs":[],"outputs":[{"name":"","type":"address","internalType":"contract IStrategyHelper"}],"stateMutability":"view"},{"type":"function","name":"tokenLong","inputs":[],"outputs":[{"name":"","type":"address","internalType":"address"}],"stateMutability":"view"},{"type":"function","name":"tokenShort","inputs":[],"outputs":[{"name":"","type":"address","internalType":"address"}],"stateMutability":"view"},{"type":"function","name":"totalShares","inputs":[],"outputs":[{"name":"","type":"uint256","internalType":"uint256"}],"stateMutability":"view"},{"type":"function","name":"withdrawAirdrop","inputs":[{"name":"token","type":"address","internalType":"address"}],"outputs":[],"stateMutability":"nonpayable"},{"type":"function","name":"withdrawEth","inputs":[],"outputs":[],"stateMutability":"nonpayable"},{"type":"function","name":"withdrawalHandler","inputs":[],"outputs":[{"name":"","type":"address","internalType":"address"}],"stateMutability":"view"},{"type":"function","name":"withdrawalVault","inputs":[],"outputs":[{"name":"","type":"address","internalType":"address"}],"stateMutability":"view"},{"type":"event","name":"Burn","inputs":[{"name":"amount","type":"uint256","indexed":false,"internalType":"uint256"},{"name":"shares","type":"uint256","indexed":false,"internalType":"uint256"}],"anonymous":false},{"type":"event","name":"Earn","inputs":[{"name":"tvl","type":"uint256","indexed":false,"internalType":"uint256"},{"name":"profit","type":"uint256","indexed":false,"internalType":"uint256"}],"anonymous":false},{"type":"event","name":"File","inputs":[{"name":"what","type":"bytes32","indexed":true,"internalType":"bytes32"},{"name":"data","type":"uint256","indexed":false,"internalType":"uint256"}],"anonymous":false},{"type":"event","name":"File","inputs":[{"name":"what","type":"bytes32","indexed":true,"internalType":"bytes32"},{"name":"data","type":"address","indexed":false,"internalType":"address"}],"anonymous":false},{"type":"event","name":"Kill","inputs":[{"name":"amount","type":"uint256","indexed":false,"internalType":"uint256"},{"name":"shares","type":"uint256","indexed":false,"internalType":"uint256"}],"anonymous":false},{"type":"event","name":"Mint","inputs":[{"name":"amount","type":"uint256","indexed":false,"internalType":"uint256"},{"name":"shares","type":"uint256","indexed":false,"internalType":"uint256"}],"anonymous":false},{"type":"error","name":"ActionPending","inputs":[]},{"type":"error","name":"BadToken","inputs":[]},{"type":"error","name":"ErrorSendingETH","inputs":[]},{"type":"error","name":"InvalidFile","inputs":[]},{"type":"error","name":"NoReentering","inputs":[]},{"type":"error","name":"NotGMX","inputs":[]},{"type":"error","name":"NotKeeper","inputs":[]},{"type":"error","name":"Unauthorized","inputs":[]},{"type":"error","name":"WrongReserveRatio","inputs":[]}],"bytecode":{"object":"0x610100604052620f42406001556101f46002556103e8601055660591a208af78006011556207a1206012553480156200003757600080fd5b5060405162005d5e38038062005d5e8339810160408190526200005a91620003cc565b33600090815260056020908152604091829020805460ff19166001179055600380546001600160a01b038c811661010002610100600160a81b031990921691909117909155600480548b83166001600160a01b0319918216178255600780548c8516908316179055600880548b8516908316179055600980548a85169083168117909155600a8054948a1694909216939093179055835163d7cd394960e01b81529351919363d7cd39499381830193909290918290030181865afa15801562000127573d6000803e3d6000fd5b505050506040513d601f19601f820116820180604052508101906200014d919062000474565b600b60006101000a8154816001600160a01b0302191690836001600160a01b03160217905550826001600160a01b03166369d421486040518163ffffffff1660e01b8152600401602060405180830381865afa158015620001b2573d6000803e3d6000fd5b505050506040513d601f19601f82011682018060405250810190620001d8919062000474565b600c80546001600160a01b0319166001600160a01b03928316179055828116608081905282821660a081905260085460405163714af34b60e01b815260048101939093526024830191909152600092169063714af34b90604401608060405180830381865afa15801562000250573d6000803e3d6000fd5b505050506040513d601f19601f82011682018060405250810190620002769190620004af565b604080820180516001600160a01b0390811660c0526060840151811660e052905182516395d89b4160e01b8152925193945016916395d89b41916004808201926000929091908290030181865afa158015620002d6573d6000803e3d6000fd5b505050506040513d6000823e601f3d908101601f191682016040526200030091908101906200055d565b81606001516001600160a01b03166395d89b416040518163ffffffff1660e01b8152600401600060405180830381865afa15801562000343573d6000803e3d6000fd5b505050506040513d6000823e601f3d908101601f191682016040526200036d91908101906200055d565b6040516020016200038092919062000615565b604051602081830303815290604052600090816200039f9190620006f7565b50505050505050505050620007c3565b80516001600160a01b0381168114620003c757600080fd5b919050565b600080600080600080600080610100898b031215620003ea57600080fd5b620003f589620003af565b97506200040560208a01620003af565b96506200041560408a01620003af565b95506200042560608a01620003af565b94506200043560808a01620003af565b93506200044560a08a01620003af565b92506200045560c08a01620003af565b91506200046560e08a01620003af565b90509295985092959890939650565b6000602082840312156200048757600080fd5b6200049282620003af565b9392505050565b634e487b7160e01b600052604160045260246000fd5b600060808284031215620004c257600080fd5b604051608081016001600160401b0381118282101715620004e757620004e762000499565b604052620004f583620003af565b81526200050560208401620003af565b60208201526200051860408401620003af565b60408201526200052b60608401620003af565b60608201529392505050565b60005b83811015620005545781810151838201526020016200053a565b50506000910152565b6000602082840312156200057057600080fd5b81516001600160401b03808211156200058857600080fd5b818401915084601f8301126200059d57600080fd5b815181811115620005b257620005b262000499565b604051601f8201601f19908116603f01168101908382118183101715620005dd57620005dd62000499565b81604052828152876020848701011115620005f757600080fd5b6200060a83602083016020880162000537565b979650505050505050565b66023a6ac1023a6960cd1b8152600083516200063981600785016020880162000537565b602f60f81b60079184019182015283516200065c81600884016020880162000537565b01600801949350505050565b600181811c908216806200067d57607f821691505b6020821081036200069e57634e487b7160e01b600052602260045260246000fd5b50919050565b601f821115620006f257600081815260208120601f850160051c81016020861015620006cd5750805b601f850160051c820191505b81811015620006ee57828155600101620006d9565b5050505b505050565b81516001600160401b0381111562000713576200071362000499565b6200072b8162000724845462000668565b84620006a4565b602080601f8311600181146200076357600084156200074a5750858301515b600019600386901b1c1916600185901b178555620006ee565b600085815260208120601f198616915b82811015620007945788860151825594840194600190910190840162000773565b5085821015620007b35787850151600019600388901b60f8161c191681555b5050505050600190811b01905550565b60805160a05160c05160e0516154266200093860003960008181610387015281816109c301528181610b9f01528181610c1c01528181610cd901528181610d7201528181611007015281816110a5015281816113cc015281816118bc0152818161198801528181611a0501528181611abe01528181611b9b01528181611e5c01528181611ee201528181611f840152818161206f0152818161210501528181612268015261320c01526000818161048c015281816109ff0152818161128301528181611314015281816113aa015281816117db01528181611d1201528181611da801528181611e3a015281816121270152818161224001526131100152600081816105440152818161098801528181611483015281816116fc01528181612218015281816123590152818161282e015281816129c501528181612ab401528181612c3d015261330a0152600081816104c001528181611452015281816123310152818161280601526128d301526154266000f3fe6080604052600436106102345760003560e01c80636bb6126e1161012e578063b42652e9116100ab578063d4fc42c61161006f578063d4fc42c6146106af578063d7cd3949146106cf578063e070555e146106ef578063e7ee6ad61461070f578063f913eaa71461072f57600080fd5b8063b42652e914610627578063b72a6e3f14610647578063c3fa402b14610667578063d389800f14610687578063d4e8be831461068f57600080fd5b8063a0712d68116100f2578063a0712d681461059c578063a0ef91df146105bc578063a167a6d8146105d1578063a224323b146105e7578063a55b5ca41461060757600080fd5b80636bb6126e1461050257806380f55605146105325780638ba12252146105665780639c8b2cfb1461057c578063a02ba64d1461045a57600080fd5b806337c6ecf0116101bc57806342966c681161018057806342966c681461043a5780634ef189b81461045a57806362b805c11461047a578063660d0d67146104ae57806369d42148146104e257600080fd5b806337c6ecf01461037557806338d52e0f146103a95780633a98ef39146103ce5780633bbd64bc146103e45780633e032a3b1461042457600080fd5b806323cadd341161020357806323cadd34146102dd57806324f74697146102ff57806329ae8114146103155780632c2f3c071461033557806333e29a401461035557600080fd5b806306fdde0314610240578063095cfd791461026b5780630c7d5cd81461028f5780631cb85818146102a557600080fd5b3661023b57005b600080fd5b34801561024c57600080fd5b50610255610745565b60405161026291906135a9565b60405180910390f35b34801561027757600080fd5b50610281600f5481565b604051908152602001610262565b34801561029b57600080fd5b5061028160105481565b3480156102b157600080fd5b506007546102c5906001600160a01b031681565b6040516001600160a01b039091168152602001610262565b3480156102e957600080fd5b506102fd6102f83660046135e1565b6107d3565b005b34801561030b57600080fd5b5061028160125481565b34801561032157600080fd5b506102fd6103303660046135fe565b610805565b34801561034157600080fd5b50600a546102c5906001600160a01b031681565b34801561036157600080fd5b506102fd6103703660046135e1565b610957565b34801561038157600080fd5b506102c57f000000000000000000000000000000000000000000000000000000000000000081565b3480156103b557600080fd5b506003546102c59061010090046001600160a01b031681565b3480156103da57600080fd5b5061028160015481565b3480156103f057600080fd5b506104146103ff3660046135e1565b60066020526000908152604090205460ff1681565b6040519015158152602001610262565b34801561043057600080fd5b5061028160025481565b34801561044657600080fd5b50610281610455366004613620565b610b16565b34801561046657600080fd5b506102fd610475366004614806565b610e4d565b34801561048657600080fd5b506102c57f000000000000000000000000000000000000000000000000000000000000000081565b3480156104ba57600080fd5b506102c57f000000000000000000000000000000000000000000000000000000000000000081565b3480156104ee57600080fd5b50600c546102c5906001600160a01b031681565b34801561050e57600080fd5b5061041461051d3660046135e1565b60056020526000908152604090205460ff1681565b34801561053e57600080fd5b506102c57f000000000000000000000000000000000000000000000000000000000000000081565b34801561057257600080fd5b50610281600e5481565b34801561058857600080fd5b506009546102c5906001600160a01b031681565b3480156105a857600080fd5b506102816105b7366004613620565b610e82565b3480156105c857600080fd5b506102fd6111a4565b3480156105dd57600080fd5b50610281600d5481565b3480156105f357600080fd5b506102fd610602366004614990565b61123c565b34801561061357600080fd5b50610281610622366004614adf565b611440565b34801561063357600080fd5b506102fd6106423660046135e1565b611689565b34801561065357600080fd5b50610255610662366004614afa565b6118ff565b34801561067357600080fd5b506102fd610682366004614990565b611c21565b6102fd611c56565b34801561069b57600080fd5b506102fd6106aa366004614afa565b612e21565b3480156106bb57600080fd5b506008546102c5906001600160a01b031681565b3480156106db57600080fd5b50600b546102c5906001600160a01b031681565b3480156106fb57600080fd5b506004546102c5906001600160a01b031681565b34801561071b57600080fd5b5061028161072a366004613620565b6130de565b34801561073b57600080fd5b5061028160115481565b6000805461075290614b2a565b80601f016020809104026020016040519081016040528092919081815260200182805461077e90614b2a565b80156107cb5780601f106107a0576101008083540402835291602001916107cb565b820191906000526020600020905b8154815290600101906020018083116107ae57829003601f168201915b505050505081565b3360009081526005602052604090205460ff16610802576040516282b42960e81b815260040160405180910390fd5b50565b3360009081526005602052604090205460ff16610834576040516282b42960e81b815260040160405180910390fd5b8167736c69707061676560c01b03610850576002819055610919565b8171696e646578546f6b656e446563696d616c7360701b0361087657600d819055610919565b816b72657365727665526174696f60a01b036108b9576127108111156108af5760405163f23754b360e01b815260040160405180910390fd5b6010819055610919565b816f18d85b1b189858dad1d85cd31a5b5a5d60821b036108dd576012819055610919565b816e6561726e416374696f6e56616c756560881b03610900576011819055610919565b6040516302bfa98160e41b815260040160405180910390fd5b817fe986e40cc8c151830d4f61050f4fb2e4add8567caad2d5f5496f9158e91fe4c78260405161094b91815260200190565b60405180910390a25050565b3360009081526005602052604090205460ff16610986576040516282b42960e81b815260040160405180910390fd5b7f00000000000000000000000000000000000000000000000000000000000000006001600160a01b0316816001600160a01b031614806109f757507f00000000000000000000000000000000000000000000000000000000000000006001600160a01b0316816001600160a01b0316145b80610a3357507f00000000000000000000000000000000000000000000000000000000000000006001600160a01b0316816001600160a01b0316145b15610a5157604051637401d93160e01b815260040160405180910390fd5b6040516370a0823160e01b81523060048201526001600160a01b0382169063a9059cbb90339083906370a08231906024015b602060405180830381865afa158015610aa0573d6000803e3d6000fd5b505050506040513d601f19601f82011682018060405250810190610ac49190614b64565b6040518363ffffffff1660e01b8152600401610ae1929190614b7d565b600060405180830381600087803b158015610afb57600080fd5b505af1158015610b0f573d6000803e3d6000fd5b5050505050565b3360009081526005602052604081205460ff16610b45576040516282b42960e81b815260040160405180910390fd5b60035460ff1615610b695760405163cbece43f60e01b815260040160405180910390fd5b6003805460ff191660011790556002546000610b84846130de565b600480546040516315d5220f60e31b81526001600160a01b037f000000000000000000000000000000000000000000000000000000000000000081169382019390935292935060009291169063aea9107890602401602060405180830381865afa158015610bf6573d6000803e3d6000fd5b505050506040513d601f19601f82011682018060405250810190610c1a9190614b64565b7f00000000000000000000000000000000000000000000000000000000000000006001600160a01b031663313ce5676040518163ffffffff1660e01b8152600401602060405180830381865afa158015610c78573d6000803e3d6000fd5b505050506040513d601f19601f82011682018060405250810190610c9c9190614b96565b610ca790600a614cb3565b610cb19084614cc2565b610cbb9190614cd9565b6004805460405163095ea7b360e01b81529293506001600160a01b037f000000000000000000000000000000000000000000000000000000000000000081169363095ea7b393610d119390921691869101614b7d565b600060405180830381600087803b158015610d2b57600080fd5b505af1158015610d3f573d6000803e3d6000fd5b50506004805460035460405163d5bcb9b560e01b8152600095506001600160a01b03928316945063d5bcb9b593610da5937f0000000000000000000000000000000000000000000000000000000000000000936101009004169188918b91339101614cfb565b6020604051808303816000875af1158015610dc4573d6000803e3d6000fd5b505050506040513d601f19601f82011682018060405250810190610de89190614b64565b90508560016000828254610dfc9190614d2b565b909155505060408051828152602081018890527f410c5c259085cde81fedf70c1aa308ec839373c26e9b7ada6560a2aca0254eb6910160405180910390a16003805460ff1916905595945050505050565b6009546001600160a01b03163314610e78576040516380156d6d60e01b815260040160405180910390fd5b50506000600e5550565b3360009081526005602052604081205460ff16610eb1576040516282b42960e81b815260040160405180910390fd5b60035460ff1615610ed55760405163cbece43f60e01b815260040160405180910390fd5b6003805460ff1916600190811790915560025490546000610ef5826130de565b6003546040516323b872dd60e01b815291925061010090046001600160a01b0316906323b872dd90610f2f90339030908a90600401614d3e565b600060405180830381600087803b158015610f4957600080fd5b505af1158015610f5d573d6000803e3d6000fd5b50506003546004805460405163095ea7b360e01b81526101009093046001600160a01b03908116955063095ea7b39450610f9c939116918a9101614b7d565b600060405180830381600087803b158015610fb657600080fd5b505af1158015610fca573d6000803e3d6000fd5b50506004805460035460405163d5bcb9b560e01b8152600095506001600160a01b03928316945063d5bcb9b59361103393610100909304909216917f0000000000000000000000000000000000000000000000000000000000000000918c918b91309101614cfb565b6020604051808303816000875af1158015611052573d6000803e3d6000fd5b505050506040513d601f19601f820116820180604052508101906110769190614b64565b60048054604051630f8b27d760e01b81529293506000926001600160a01b0390911691630f8b27d7916110cd917f000000000000000000000000000000000000000000000000000000000000000091879101614b7d565b602060405180830381865afa1580156110ea573d6000803e3d6000fd5b505050506040513d601f19601f8201168201806040525081019061110e9190614b64565b9050600083158061111d575084155b61113b578361112c8684614cc2565b6111369190614cd9565b61113d565b815b905080600160008282546111519190614d62565b909155505060408051898152602081018390527fcc9c58b575eabd3f6a1ee653e91fcea3ff546867ffc3782a3bbca1f9b6dbb8df910160405180910390a16003805460ff19169055979650505050505050565b3360009081526005602052604090205460ff166111d3576040516282b42960e81b815260040160405180910390fd5b604051600090339047908381818185875af1925050503d8060008114611215576040519150601f19603f3d011682016040523d82523d6000602084013e61121a565b606091505b505090508061080257604051633794aeaf60e01b815260040160405180910390fd5b600a546001600160a01b03163314611267576040516380156d6d60e01b815260040160405180910390fd5b6000600f8190556040516370a0823160e01b81523060048201527f00000000000000000000000000000000000000000000000000000000000000006001600160a01b0316906370a0823190602401602060405180830381865afa1580156112d2573d6000803e3d6000fd5b505050506040513d601f19601f820116820180604052508101906112f69190614b64565b6004805460405163095ea7b360e01b81529293506001600160a01b037f000000000000000000000000000000000000000000000000000000000000000081169363095ea7b39361134c9390921691869101614b7d565b600060405180830381600087803b15801561136657600080fd5b505af115801561137a573d6000803e3d6000fd5b50506004805460025460405163d5bcb9b560e01b81526001600160a01b03909216945063d5bcb9b593506113f8927f0000000000000000000000000000000000000000000000000000000000000000927f00000000000000000000000000000000000000000000000000000000000000009288929091309101614cfb565b6020604051808303816000875af1925050508015611433575060408051601f3d908101601f1916820190925261143091810190614b64565b60015b1561143a57505b50505050565b60085460405163714af34b60e01b81527f00000000000000000000000000000000000000000000000000000000000000006001600160a01b0381811660048401527f00000000000000000000000000000000000000000000000000000000000000008116602484015260009316918390839063714af34b90604401608060405180830381865afa1580156114d8573d6000803e3d6000fd5b505050506040513d601f19601f820116820180604052508101906114fc9190614d75565b90506000836001600160a01b031663095ce6c58484611520866020015160016133de565b61152f876040015160006133de565b61153e886060015160006133de565b8c61159f57604051602001611584906020808252601e908201527f4d41585f504e4c5f464143544f525f464f525f5749544844524157414c530000604082015260600190565b604051602081830303815290604052805190602001206115f7565b6040516020016115e0906020808252601b908201527f4d41585f504e4c5f464143544f525f464f525f4445504f534954530000000000604082015260600190565b604051602081830303815290604052805190602001205b60006040518863ffffffff1660e01b815260040161161b9796959493929190614df9565b61018060405180830381865afa158015611639573d6000803e3d6000fd5b505050506040513d601f19601f8201168201806040525081019061165d9190614e94565b5090506000811261167c5761167764e8d4a5100082614cd9565b61167f565b60005b9695505050505050565b3360009081526005602052604090205460ff166116b8576040516282b42960e81b815260040160405180910390fd5b600e541515806116c95750600f5415155b156116e75760405163037141a360e21b815260040160405180910390fd5b6040516370a0823160e01b81523060048201527f00000000000000000000000000000000000000000000000000000000000000006001600160a01b03169063a9059cbb90839083906370a0823190602401602060405180830381865afa158015611755573d6000803e3d6000fd5b505050506040513d601f19601f820116820180604052508101906117799190614b64565b6040518363ffffffff1660e01b8152600401611796929190614b7d565b600060405180830381600087803b1580156117b057600080fd5b505af11580156117c4573d6000803e3d6000fd5b50506040516370a0823160e01b81523060048201527f00000000000000000000000000000000000000000000000000000000000000006001600160a01b0316925063a9059cbb9150839083906370a0823190602401602060405180830381865afa158015611836573d6000803e3d6000fd5b505050506040513d601f19601f8201168201806040525081019061185a9190614b64565b6040518363ffffffff1660e01b8152600401611877929190614b7d565b600060405180830381600087803b15801561189157600080fd5b505af11580156118a5573d6000803e3d6000fd5b50506040516370a0823160e01b81523060048201527f00000000000000000000000000000000000000000000000000000000000000006001600160a01b0316925063a9059cbb9150839083906370a0823190602401610a83565b3360009081526005602052604090205460609060ff16611931576040516282b42960e81b815260040160405180910390fd5b60035460ff16156119555760405163cbece43f60e01b815260040160405180910390fd5b6003805460ff19166001179055600061196d846130de565b600480546040516315d5220f60e31b81526001600160a01b037f000000000000000000000000000000000000000000000000000000000000000081169382019390935292935060009291169063aea9107890602401602060405180830381865afa1580156119df573d6000803e3d6000fd5b505050506040513d601f19601f82011682018060405250810190611a039190614b64565b7f00000000000000000000000000000000000000000000000000000000000000006001600160a01b031663313ce5676040518163ffffffff1660e01b8152600401602060405180830381865afa158015611a61573d6000803e3d6000fd5b505050506040513d601f19601f82011682018060405250810190611a859190614b96565b611a9090600a614cb3565b611a9a9084614cc2565b611aa49190614cd9565b60405163a9059cbb60e01b81529091506001600160a01b037f0000000000000000000000000000000000000000000000000000000000000000169063a9059cbb90611af59087908590600401614b7d565b600060405180830381600087803b158015611b0f57600080fd5b505af1158015611b23573d6000803e3d6000fd5b505050508460016000828254611b399190614d2b565b909155505060408051828152602081018790527f622e2307f13a1f8b5f4747071048478ab949ebea33d6bfdecc6018530ff22857910160405180910390a1604080516001808252818301909252600091602080830190803683370190505090507f000000000000000000000000000000000000000000000000000000000000000081600081518110611bcd57611bcd614f48565b6001600160a01b03909216602092830291909101820152604051611bfd9164676d78676d60d81b91849101614fa2565b60405160208183030381529060405293505050506003805460ff1916905592915050565b600a546001600160a01b03163314611c4c576040516380156d6d60e01b815260040160405180910390fd5b50506000600f5550565b60035460ff1615611c7a5760405163cbece43f60e01b815260040160405180910390fd5b6003805460ff191660011790553360009081526006602052604090205460ff16611cb757604051631ea2564f60e31b815260040160405180910390fd5b6000611cc46001546130de565b9050600e546000141580611cd95750600f5415155b15611cf75760405163037141a360e21b815260040160405180910390fd5b6002546040516370a0823160e01b81523060048201526000907f00000000000000000000000000000000000000000000000000000000000000006001600160a01b0316906370a0823190602401602060405180830381865afa158015611d61573d6000803e3d6000fd5b505050506040513d601f19601f82011682018060405250810190611d859190614b64565b90508015611ecd576004805460405163095ea7b360e01b81526001600160a01b037f000000000000000000000000000000000000000000000000000000000000000081169363095ea7b393611ddf93921691869101614b7d565b600060405180830381600087803b158015611df957600080fd5b505af1158015611e0d573d6000803e3d6000fd5b50506004805460405163d5bcb9b560e01b81526001600160a01b03909116935063d5bcb9b59250611e88917f0000000000000000000000000000000000000000000000000000000000000000917f00000000000000000000000000000000000000000000000000000000000000009187918991309101614cfb565b6020604051808303816000875af1158015611ea7573d6000803e3d6000fd5b505050506040513d601f19601f82011682018060405250810190611ecb9190614b64565b505b6040516370a0823160e01b81523060048201527f00000000000000000000000000000000000000000000000000000000000000006001600160a01b0316906370a0823190602401602060405180830381865afa158015611f31573d6000803e3d6000fd5b505050506040513d601f19601f82011682018060405250810190611f559190614b64565b60048054604051630f8b27d760e01b81529293506000926001600160a01b0390911691630f8b27d791611fac917f000000000000000000000000000000000000000000000000000000000000000091879101614b7d565b602060405180830381865afa158015611fc9573d6000803e3d6000fd5b505050506040513d601f19601f82011682018060405250810190611fed9190614b64565b905060006127106010546120026001546130de565b61200c9190614cc2565b6120169190614cd9565b9050808211156127b2576000828461202e8483614d2b565b6120389190614cc2565b6120429190614cd9565b90506000612051600283614cd9565b6004805460405163095ea7b360e01b81529293506001600160a01b037f000000000000000000000000000000000000000000000000000000000000000081169363095ea7b3936120a79390921691869101614b7d565b600060405180830381600087803b1580156120c157600080fd5b505af11580156120d5573d6000803e3d6000fd5b50506004805460405163d5bcb9b560e01b8152600094506001600160a01b03909116925063d5bcb9b591612153917f0000000000000000000000000000000000000000000000000000000000000000917f00000000000000000000000000000000000000000000000000000000000000009188918e91309101614cfb565b6020604051808303816000875af1158015612172573d6000803e3d6000fd5b505050506040513d601f19601f820116820180604052508101906121969190614b64565b905060006121a46001611440565b6121ae8688614d2b565b6121c090670de0b6b3a7640000614cc2565b6121ca9190614cd9565b600e81905590506127106121de8982614d2b565b6121e89083614cc2565b6121f29190614cd9565b604080516101808101825230808252602082015260009181018290526001600160a01b037f0000000000000000000000000000000000000000000000000000000000000000811660608301527f0000000000000000000000000000000000000000000000000000000000000000811660808301527f00000000000000000000000000000000000000000000000000000000000000001660a08201529192509060c08101826040519080825280602002602001820160405280156122bf578160200160208202803683370190505b50815260200160006040519080825280602002602001820160405280156122f0578160200160208202803683370190505b50815260208101849052600060408083018290526011546060840152601254608090930192909252600854915163714af34b60e01b81526001600160a01b037f0000000000000000000000000000000000000000000000000000000000000000811660048301527f00000000000000000000000000000000000000000000000000000000000000008116602483015293945090929091169063714af34b90604401608060405180830381865afa1580156123ae573d6000803e3d6000fd5b505050506040513d601f19601f820116820180604052508101906123d29190614d75565b60408051600480825260a0820190925291925060009190816020015b60608152602001906001900390816123ee5790505090506000600760009054906101000a90046001600160a01b03166001600160a01b031663f887ea406040518163ffffffff1660e01b81526004016020604051808303816000875af115801561245c573d6000803e3d6000fd5b505050506040513d601f19601f820116820180604052508101906124809190614fbb565b600b54604080860151905163095ea7b360e01b81529293506001600160a01b039182169291169063095ea7b3906124bd9085908b90600401614b7d565b600060405180830381600087803b1580156124d757600080fd5b505af11580156124eb573d6000803e3d6000fd5b5050505060608401516001600160a01b031663095ea7b38361250d8b8d614d2b565b6040518363ffffffff1660e01b815260040161252a929190614b7d565b600060405180830381600087803b15801561254457600080fd5b505af1158015612558573d6000803e3d6000fd5b505050610140860151604051637d39aaf160e01b925061257c918491602401614b7d565b604051602081830303815290604052906001600160e01b0319166020820180516001600160e01b038381831617835250505050836000815181106125c2576125c2614f48565b602002602001018190525063e6d66ac860e01b846040015182896040516024016125ee93929190614d3e565b604051602081830303815290604052906001600160e01b0319166020820180516001600160e01b0383818316178352505050508360018151811061263457612634614f48565b60209081029190910101526060840151631cdacd5960e31b90826126588b8d614d2b565b60405160240161266a93929190614d3e565b604051602081830303815290604052906001600160e01b0319166020820180516001600160e01b038381831617835250505050836002815181106126b0576126b0614f48565b6020026020010181905250635b4e956160e01b856040516024016126d49190614fd8565b604051602081830303815290604052906001600160e01b0319166020820180516001600160e01b0383818316178352505050508360038151811061271a5761271a614f48565b6020908102919091010152600754610140860151604051631592ca1b60e31b81526001600160a01b039092169163ac9650d8919061275c9087906004016150e1565b60006040518083038185885af115801561277a573d6000803e3d6000fd5b50505050506040513d6000823e601f3d908101601f191682016040526127a39190810190615143565b50505050505050505050612db2565b80821015612db25760006127c66001611440565b6127d08484614d2b565b6127e290670de0b6b3a7640000614cc2565b6127ec9190614cd9565b60085460405163714af34b60e01b81526001600160a01b037f0000000000000000000000000000000000000000000000000000000000000000811660048301527f0000000000000000000000000000000000000000000000000000000000000000811660248301529293506000929091169063714af34b90604401608060405180830381865afa158015612884573d6000803e3d6000fd5b505050506040513d601f19601f820116820180604052508101906128a89190614d75565b9050600080600860009054906101000a90046001600160a01b03166001600160a01b03166371e138d57f000000000000000000000000000000000000000000000000000000000000000085604051806060016040528061290d896020015160016133de565b8152602001612921896040015160006133de565b8152602001612935896060015160006133de565b8152508860006040518663ffffffff1660e01b815260040161295b95949392919061522f565b6040805180830381865afa158015612977573d6000803e3d6000fd5b505050506040513d601f19601f8201168201806040525081019061299b91906152d8565b60408051610160810182523080825260208083019190915260008284018190526001600160a01b037f0000000000000000000000000000000000000000000000000000000000000000166060840152835181815280830185526080840152835181815291820190935260a08201529294509092509060c08101612710612a218c82614d2b565b612a2b9087614cc2565b612a359190614cd9565b8152602001612710612a478c82614d2b565b612a519086614cc2565b612a5b9190614cd9565b8152600060208201819052601154604080840191909152601254606090930192909252600f88905581516003808252608082019093529293509190816020015b6060815260200190600190039081612a9b5790505090507f00000000000000000000000000000000000000000000000000000000000000006001600160a01b031663095ea7b3600760009054906101000a90046001600160a01b03166001600160a01b031663f887ea406040518163ffffffff1660e01b81526004016020604051808303816000875af1158015612b36573d6000803e3d6000fd5b505050506040513d601f19601f82011682018060405250810190612b5a9190614fbb565b886040518363ffffffff1660e01b8152600401612b78929190614b7d565b600060405180830381600087803b158015612b9257600080fd5b505af1158015612ba6573d6000803e3d6000fd5b5050600c54610120850151604051637d39aaf160e01b9450612bd793506001600160a01b0390921691602401614b7d565b604051602081830303815290604052906001600160e01b0319166020820180516001600160e01b03838183161783525050505081600081518110612c1d57612c1d614f48565b6020908102919091010152600c54604051631cdacd5960e31b91612c71917f0000000000000000000000000000000000000000000000000000000000000000916001600160a01b0316908a90602401614d3e565b604051602081830303815290604052906001600160e01b0319166020820180516001600160e01b03838183161783525050505081600181518110612cb757612cb7614f48565b602002602001018190525063ad23c5a160e01b82604051602401612cdb91906152fc565b604051602081830303815290604052906001600160e01b0319166020820180516001600160e01b03838183161783525050505081600281518110612d2157612d21614f48565b6020908102919091010152600754610120830151604051631592ca1b60e31b81526001600160a01b039092169163ac9650d89190612d639085906004016150e1565b60006040518083038185885af1158015612d81573d6000803e3d6000fd5b50505050506040513d6000823e601f3d908101601f19168201604052612daa9190810190615143565b505050505050505b6000612dbf6001546130de565b90507f5850d758e6151f474c145f4f59e8cb315c3f1a9fe82d96dff5bd2d48b5a76f9b81612ded8389613541565b612df79084614d2b565b6040805192835260208301919091520160405180910390a150506003805460ff1916905550505050565b3360009081526005602052604090205460ff16612e50576040516282b42960e81b815260040160405180910390fd5b81636578656360e01b03612e8b576001600160a01b0381166000908152600560205260409020805460ff19811660ff909116151790556130a3565b816535b2b2b832b960d11b03612ec8576001600160a01b0381166000908152600660205260409020805460ff19811660ff909116151790556130a3565b81653932b0b232b960d11b03612ef857600880546001600160a01b0319166001600160a01b0383161790556130a3565b816d32bc31b430b733b2a937baba32b960911b03612f3057600780546001600160a01b0319166001600160a01b0383161790556130a3565b816d3232b837b9b4ba2430b7323632b960911b03612fea57600980546001600160a01b0319166001600160a01b0383169081179091556040805163d7cd394960e01b8152905163d7cd3949916004808201926020929091908290030181865afa158015612fa1573d6000803e3d6000fd5b505050506040513d601f19601f82011682018060405250810190612fc59190614fbb565b600b80546001600160a01b0319166001600160a01b03929092169190911790556130a3565b81703bb4ba34323930bbb0b62430b7323632b960791b0361090057600a80546001600160a01b0319166001600160a01b03831690811790915560408051630d3a842960e31b815290516369d42148916004808201926020929091908290030181865afa15801561305e573d6000803e3d6000fd5b505050506040513d601f19601f820116820180604052508101906130829190614fbb565b600c80546001600160a01b0319166001600160a01b03929092169190911790555b6040516001600160a01b038216815282907f8fef588b5fc1afbf5b2f06c1a435d513f208da2e6704c3d8f0e0ec91167066ba9060200161094b565b600480546040516370a0823160e01b8152309281019290925260009182916001600160a01b0390811691630f8b27d7917f000000000000000000000000000000000000000000000000000000000000000091908216906370a0823190602401602060405180830381865afa15801561315a573d6000803e3d6000fd5b505050506040513d601f19601f8201168201806040525081019061317e9190614b64565b6040518363ffffffff1660e01b815260040161319b929190614b7d565b602060405180830381865afa1580156131b8573d6000803e3d6000fd5b505050506040513d601f19601f820116820180604052508101906131dc9190614b64565b600480546040516370a0823160e01b815230928101929092529192506001600160a01b0391821691630f8b27d7917f0000000000000000000000000000000000000000000000000000000000000000918216906370a0823190602401602060405180830381865afa158015613255573d6000803e3d6000fd5b505050506040513d601f19601f820116820180604052508101906132799190614b64565b6040518363ffffffff1660e01b8152600401613296929190614b7d565b602060405180830381865afa1580156132b3573d6000803e3d6000fd5b505050506040513d601f19601f820116820180604052508101906132d79190614b64565b6132e19082614d62565b600f54600e546040516370a0823160e01b81523060048201529293506000926001600160a01b037f000000000000000000000000000000000000000000000000000000000000000016906370a0823190602401602060405180830381865afa158015613351573d6000803e3d6000fd5b505050506040513d601f19601f820116820180604052508101906133759190614b64565b61337f9190614d62565b6133899190614d62565b9050670de0b6b3a764000061339e6001611440565b6133a89083614cc2565b6133b29190614cd9565b6133bc9083614d62565b6001549092506133cc8386614cc2565b6133d69190614cd9565b949350505050565b6040805180820190915260008082526020820152600082613400576000613404565b600d545b90508060000361347657836001600160a01b031663313ce5676040518163ffffffff1660e01b8152600401602060405180830381865afa15801561344c573d6000803e3d6000fd5b505050506040513d601f19601f820116820180604052508101906134709190614b96565b60ff1690505b600480546040516315d5220f60e31b81526001600160a01b03878116938201939093526000929091169063aea9107890602401602060405180830381865afa1580156134c6573d6000803e3d6000fd5b505050506040513d601f19601f820116820180604052508101906134ea9190614b64565b9050670de0b6b3a764000061350083601e614d2b565b61350b90600a6153e4565b6135159083614cc2565b61351f9190614cd9565b9050604051806040016040528082815260200182815250925050505b92915050565b60008183106135505781613552565b825b9392505050565b60005b8381101561357457818101518382015260200161355c565b50506000910152565b60008151808452613595816020860160208601613559565b601f01601f19169290920160200192915050565b602081526000613552602083018461357d565b6001600160a01b038116811461080257600080fd5b80356135dc816135bc565b919050565b6000602082840312156135f357600080fd5b8135613552816135bc565b6000806040838503121561361157600080fd5b50508035926020909101359150565b60006020828403121561363257600080fd5b5035919050565b634e487b7160e01b600052604160045260246000fd5b604080519081016001600160401b038111828210171561367157613671613639565b60405290565b60405160e081016001600160401b038111828210171561367157613671613639565b604051606081016001600160401b038111828210171561367157613671613639565b60405161012081016001600160401b038111828210171561367157613671613639565b60405161016081016001600160401b038111828210171561367157613671613639565b604051601f8201601f191681016001600160401b038111828210171561372957613729613639565b604052919050565b60006001600160401b0382111561374a5761374a613639565b5060051b60200190565b600082601f83011261376557600080fd5b8135602061377a61377583613731565b613701565b82815260059290921b8401810191818101908684111561379957600080fd5b8286015b848110156137bd5780356137b0816135bc565b835291830191830161379d565b509695505050505050565b600060c082840312156137da57600080fd5b60405160c081018181106001600160401b03821117156137fc576137fc613639565b8060405250809150823581526020830135602082015260408301356040820152606083013560608201526080830135608082015260a083013560a08201525092915050565b803580151581146135dc57600080fd5b60006020828403121561386357600080fd5b604051602081018181106001600160401b038211171561388557613885613639565b60405290508061389483613841565b905292915050565b60006001600160401b038211156138b5576138b5613639565b50601f01601f191660200190565b600082601f8301126138d457600080fd5b81356138e26137758261389c565b8181528460208386010111156138f757600080fd5b816020850160208301376000918101602001919091529392505050565b600082601f83011261392557600080fd5b8135602061393561377583613731565b82815260059290921b8401810191818101908684111561395457600080fd5b8286015b848110156137bd5780356001600160401b03808211156139785760008081fd5b908801906040828b03601f19018113156139925760008081fd5b61399a61364f565b87840135838111156139ac5760008081fd5b6139ba8d8a838801016138c3565b8252509083013590828211156139d05760008081fd5b6139de8c8984870101613754565b818901528652505050918301918301613958565b60006040808385031215613a0557600080fd5b613a0d61364f565b915082356001600160401b0380821115613a2657600080fd5b818501915085601f830112613a3a57600080fd5b81356020613a4a61377583613731565b82815260059290921b84018101918181019089841115613a6957600080fd5b8286015b84811015613ae857803586811115613a855760008081fd5b8701808c03601f1901891315613a9b5760008081fd5b613aa361364f565b8582013588811115613ab55760008081fd5b613ac38e88838601016138c3565b8252509089013590613ad4826135bc565b808601919091528352918301918301613a6d565b5087525086810135945082851115613aff57600080fd5b613b0b88868901613914565b81870152505050505092915050565b600082601f830112613b2b57600080fd5b81356020613b3b61377583613731565b828152600592831b8501820192828201919087851115613b5a57600080fd5b8387015b85811015613c4f5780356001600160401b0380821115613b7e5760008081fd5b908901906040828c03601f1901811315613b985760008081fd5b613ba061364f565b8884013583811115613bb25760008081fd5b613bc08e8b838801016138c3565b8252508184013583811115613bd55760008081fd5b8085019450508c603f850112613bed57600092508283fd5b888401359250613bff61377584613731565b83815292861b8401820192898101908e851115613c1c5760008081fd5b948301945b84861015613c3a5785358252948a0194908a0190613c21565b828b0152508752505050928401928401613b5e565b5090979650505050505050565b60006040808385031215613c6f57600080fd5b613c7761364f565b915082356001600160401b0380821115613c9057600080fd5b818501915085601f830112613ca457600080fd5b81356020613cb461377583613731565b82815260059290921b84018101918181019089841115613cd357600080fd5b8286015b84811015613d4557803586811115613cef5760008081fd5b8701808c03601f1901891315613d055760008081fd5b613d0d61364f565b8582013588811115613d1f5760008081fd5b613d2d8e88838601016138c3565b82525090890135858201528352918301918301613cd7565b5087525086810135945082851115613d5c57600080fd5b613b0b88868901613b1a565b600082601f830112613d7957600080fd5b81356020613d8961377583613731565b828152600592831b8501820192828201919087851115613da857600080fd5b8387015b85811015613c4f5780356001600160401b0380821115613dcc5760008081fd5b908901906040828c03601f1901811315613de65760008081fd5b613dee61364f565b8884013583811115613e005760008081fd5b613e0e8e8b838801016138c3565b8252508184013583811115613e235760008081fd5b8085019450508c603f850112613e3b57600092508283fd5b888401359250613e4d61377584613731565b83815292861b8401820192898101908e851115613e6a5760008081fd5b948301945b84861015613e885785358252948a0194908a0190613e6f565b828b0152508752505050928401928401613dac565b60006040808385031215613eb057600080fd5b613eb861364f565b915082356001600160401b0380821115613ed157600080fd5b818501915085601f830112613ee557600080fd5b81356020613ef561377583613731565b82815260059290921b84018101918181019089841115613f1457600080fd5b8286015b84811015613f8657803586811115613f305760008081fd5b8701808c03601f1901891315613f465760008081fd5b613f4e61364f565b8582013588811115613f605760008081fd5b613f6e8e88838601016138c3565b82525090890135858201528352918301918301613f18565b5087525086810135945082851115613f9d57600080fd5b613b0b88868901613d68565b600082601f830112613fba57600080fd5b81356020613fca61377583613731565b828152600592831b8501820192828201919087851115613fe957600080fd5b8387015b85811015613c4f5780356001600160401b038082111561400d5760008081fd5b908901906040828c03601f19018113156140275760008081fd5b61402f61364f565b88840135838111156140415760008081fd5b61404f8e8b838801016138c3565b82525081840135838111156140645760008081fd5b8085019450508c603f85011261407c57600092508283fd5b88840135925061408e61377584613731565b83815292861b8401820192898101908e8511156140ab5760008081fd5b948301945b848610156140d0576140c186613841565b8252948a0194908a01906140b0565b828b0152508752505050928401928401613fed565b600060408083850312156140f857600080fd5b61410061364f565b915082356001600160401b038082111561411957600080fd5b818501915085601f83011261412d57600080fd5b8135602061413d61377583613731565b82815260059290921b8401810191818101908984111561415c57600080fd5b8286015b848110156141d6578035868111156141785760008081fd5b8701808c03601f190189131561418e5760008081fd5b61419661364f565b85820135888111156141a85760008081fd5b6141b68e88838601016138c3565b8252506141c48a8301613841565b81870152845250918301918301614160565b50875250868101359450828511156141ed57600080fd5b613b0b88868901613fa9565b600082601f83011261420a57600080fd5b8135602061421a61377583613731565b82815260059290921b8401810191818101908684111561423957600080fd5b8286015b848110156137bd576001600160401b03808235111561425b57600080fd5b813588016040818b03601f1901121561427357600080fd5b61427b61364f565b868201358381111561428c57600080fd5b61429a8c89838601016138c3565b8252506040820135838111156142af57600080fd5b8083019250508a603f8301126142c457600080fd5b868201356142d461377582613731565b81815260059190911b830160400190888101908d8311156142f457600080fd5b604085015b8381101561432c57868135111561430f57600080fd5b61431f8f604083358901016138c3565b8352918a01918a016142f9565b50838a015250508552505091830191830161423d565b6000604080838503121561435557600080fd5b61435d61364f565b915082356001600160401b038082111561437657600080fd5b818501915085601f83011261438a57600080fd5b8135602061439a61377583613731565b82815260059290921b840181019181810190898411156143b957600080fd5b8286015b84811015614449578035868111156143d55760008081fd5b8701808c03601f19018913156143eb5760008081fd5b6143f361364f565b85820135888111156144055760008081fd5b6144138e88838601016138c3565b82525089820135888111156144285760008081fd5b6144368e88838601016138c3565b82880152508452509183019183016143bd565b508752508681013594508285111561446057600080fd5b613b0b888689016141f9565b600082601f83011261447d57600080fd5b8135602061448d61377583613731565b82815260059290921b840181019181810190868411156144ac57600080fd5b8286015b848110156137bd576001600160401b0380823511156144ce57600080fd5b813588016040818b03601f190112156144e657600080fd5b6144ee61364f565b86820135838111156144ff57600080fd5b61450d8c89838601016138c3565b82525060408201358381111561452257600080fd5b8083019250508a603f83011261453757600080fd5b8682013561454761377582613731565b81815260059190911b830160400190888101908d83111561456757600080fd5b604085015b8381101561459f57868135111561458257600080fd5b6145928f604083358901016138c3565b8352918a01918a0161456c565b50838a01525050855250509183019183016144b0565b600060408083850312156145c857600080fd5b6145d061364f565b915082356001600160401b03808211156145e957600080fd5b818501915085601f8301126145fd57600080fd5b8135602061460d61377583613731565b82815260059290921b8401810191818101908984111561462c57600080fd5b8286015b848110156146bc578035868111156146485760008081fd5b8701808c03601f190189131561465e5760008081fd5b61466661364f565b85820135888111156146785760008081fd5b6146868e88838601016138c3565b825250898201358881111561469b5760008081fd5b6146a98e88838601016138c3565b8288015250845250918301918301614630565b50875250868101359450828511156146d357600080fd5b613b0b8886890161446c565b600060e082840312156146f157600080fd5b6146f9613677565b905081356001600160401b038082111561471257600080fd5b61471e858386016139f2565b8352602084013591508082111561473457600080fd5b61474085838601613c5c565b6020840152604084013591508082111561475957600080fd5b61476585838601613e9d565b6040840152606084013591508082111561477e57600080fd5b61478a858386016140e5565b606084015260808401359150808211156147a357600080fd5b6147af85838601613c5c565b608084015260a08401359150808211156147c857600080fd5b6147d485838601614342565b60a084015260c08401359150808211156147ed57600080fd5b506147fa848285016145b5565b60c08301525092915050565b60008060006060848603121561481b57600080fd5b8335925060208401356001600160401b038082111561483957600080fd5b818601915061010080838903121561485057600080fd5b614858613699565b83358381111561486757600080fd5b8401610120818b03121561487a57600080fd5b6148826136bb565b61488b826135d1565b8152614899602083016135d1565b60208201526148aa604083016135d1565b60408201526148bb606083016135d1565b60608201526148cc608083016135d1565b60808201526148dd60a083016135d1565b60a08201526148ee60c083016135d1565b60c082015260e08201358581111561490557600080fd5b6149118c828501613754565b60e083015250838201358581111561492857600080fd5b6149348c828501613754565b828601525082525061494989602086016137c8565b602082015261495b8960e08601613851565b60408201528095505050604086013591508082111561497957600080fd5b50614986868287016146df565b9150509250925092565b6000806000606084860312156149a557600080fd5b8335925060208401356001600160401b03808211156149c357600080fd5b9085019061010082880312156149d857600080fd5b6149e0613699565b8235828111156149ef57600080fd5b830160e0818a031215614a0157600080fd5b614a09613677565b614a12826135d1565b8152614a20602083016135d1565b6020820152614a31604083016135d1565b6040820152614a42606083016135d1565b6060820152614a53608083016135d1565b608082015260a082013584811115614a6a57600080fd5b614a768b828501613754565b60a08301525060c082013584811115614a8e57600080fd5b614a9a8b828501613754565b60c083015250825250614ab088602085016137c8565b6020820152614ac28860e08501613851565b604082015280945050604086013591508082111561497957600080fd5b600060208284031215614af157600080fd5b61355282613841565b60008060408385031215614b0d57600080fd5b823591506020830135614b1f816135bc565b809150509250929050565b600181811c90821680614b3e57607f821691505b602082108103614b5e57634e487b7160e01b600052602260045260246000fd5b50919050565b600060208284031215614b7657600080fd5b5051919050565b6001600160a01b03929092168252602082015260400190565b600060208284031215614ba857600080fd5b815160ff8116811461355257600080fd5b634e487b7160e01b600052601160045260246000fd5b600181815b80851115614c0a578160001904821115614bf057614bf0614bb9565b80851615614bfd57918102915b93841c9390800290614bd4565b509250929050565b600082614c215750600161353b565b81614c2e5750600061353b565b8160018114614c445760028114614c4e57614c6a565b600191505061353b565b60ff841115614c5f57614c5f614bb9565b50506001821b61353b565b5060208310610133831016604e8410600b8410161715614c8d575081810a61353b565b614c978383614bcf565b8060001904821115614cab57614cab614bb9565b029392505050565b600061355260ff841683614c12565b808202811582820484141761353b5761353b614bb9565b600082614cf657634e487b7160e01b600052601260045260246000fd5b500490565b6001600160a01b039586168152938516602085015260408401929092526060830152909116608082015260a00190565b8181038181111561353b5761353b614bb9565b6001600160a01b039384168152919092166020820152604081019190915260600190565b8082018082111561353b5761353b614bb9565b600060808284031215614d8757600080fd5b604051608081018181106001600160401b0382111715614da957614da9613639565b6040528251614db7816135bc565b81526020830151614dc7816135bc565b60208201526040830151614dda816135bc565b60408201526060830151614ded816135bc565b60608201529392505050565b6001600160a01b03881681526101a08101614e45602083018980516001600160a01b03908116835260208083015182169084015260408083015182169084015260609182015116910152565b865160a083015260209687015160c0830152855160e083015294860151610100820152835161012082015292909401516101408301526101608201529115156101809092019190915292915050565b600080828403610180811215614ea957600080fd5b8351925061016080601f1983011215614ec157600080fd5b614ec96136de565b91506020850151825260408501516020830152606085015160408301526080850151606083015260a0850151608083015260c085015160a083015260e085015160c08301526101008086015160e08401526101208087015182850152610140915081870151818501525081860151818401525050809150509250929050565b634e487b7160e01b600052603260045260246000fd5b600081518084526020808501945080840160005b83811015614f975781516001600160a01b031687529582019590820190600101614f72565b509495945050505050565b8281526040602082015260006133d66040830184614f5e565b600060208284031215614fcd57600080fd5b8151613552816135bc565b60208152614ff26020820183516001600160a01b03169052565b6000602083015161500e60408401826001600160a01b03169052565b5060408301516001600160a01b03811660608401525060608301516001600160a01b03811660808401525060808301516001600160a01b03811660a08401525060a08301516001600160a01b03811660c08401525060c08301516101808060e085015261507f6101a0850183614f5e565b915060e0850151610100601f19868503018187015261509e8483614f5e565b908701516101208781019190915287015190935090506101406150c48187018315159052565b860151610160868101919091529095015193019290925250919050565b6000602080830181845280855180835260408601915060408160051b870101925083870160005b8281101561513657603f1988860301845261512485835161357d565b94509285019290850190600101615108565b5092979650505050505050565b6000602080838503121561515657600080fd5b82516001600160401b038082111561516d57600080fd5b818501915085601f83011261518157600080fd5b815161518f61377582613731565b81815260059190911b830184019084810190888311156151ae57600080fd5b8585015b83811015615222578051858111156151ca5760008081fd5b8601603f81018b136151dc5760008081fd5b8781015160406151ee6137758361389c565b8281528d828486010111156152035760008081fd5b615212838c8301848701613559565b86525050509186019186016151b2565b5098975050505050505050565b6001600160a01b0386811682526101a082019061527d602084018880516001600160a01b03908116835260208083015182169084015260408083015182169084015260609182015116910152565b8551805160a085015260209081015160c085015280870151805160e086015281015161010085015260409096015180516101208501529095015161014083015261016082019390935292166101809092019190915292915050565b600080604083850312156152eb57600080fd5b505080516020909101519092909150565b602081526153166020820183516001600160a01b03169052565b6000602083015161533260408401826001600160a01b03169052565b5060408301516001600160a01b03811660608401525060608301516001600160a01b03811660808401525060808301516101608060a0850152615379610180850183614f5e565b915060a0850151601f198584030160c08601526153968382614f5e565b92505060c085015160e085015260e08501516101008181870152808701519150506101206153c78187018315159052565b860151610140868101919091529095015193019290925250919050565b60006135528383614c1256fea264697066735822122080fa94d15a97e2fbe879867cfcb622991512a9893a7d1ec82e7eba83ba5de4cc64736f6c63430008110033","linkReferences":{}},"methodIdentifiers":{"afterDepositCancellation(bytes32,((address,address,address,address,address,address,address,address[],address[]),(uint256,uint256,uint256,uint256,uint256,uint256),(bool)),(((string,address)[],(string,address[])[]),((string,uint256)[],(string,uint256[])[]),((string,int256)[],(string,int256[])[]),((string,bool)[],(string,bool[])[]),((string,bytes32)[],(string,bytes32[])[]),((string,bytes)[],(string,bytes[])[]),((string,string)[],(string,string[])[])))":"4ef189b8","afterDepositExecution(bytes32,((address,address,address,address,address,address,address,address[],address[]),(uint256,uint256,uint256,uint256,uint256,uint256),(bool)),(((string,address)[],(string,address[])[]),((string,uint256)[],(string,uint256[])[]),((string,int256)[],(string,int256[])[]),((string,bool)[],(string,bool[])[]),((string,bytes32)[],(string,bytes32[])[]),((string,bytes)[],(string,bytes[])[]),((string,string)[],(string,string[])[])))":"a02ba64d","afterWithdrawalCancellation(bytes32,((address,address,address,address,address,address[],address[]),(uint256,uint256,uint256,uint256,uint256,uint256),(bool)),(((string,address)[],(string,address[])[]),((string,uint256)[],(string,uint256[])[]),((string,int256)[],(string,int256[])[]),((string,bool)[],(string,bool[])[]),((string,bytes32)[],(string,bytes32[])[]),((string,bytes)[],(string,bytes[])[]),((string,string)[],(string,string[])[])))":"c3fa402b","afterWithdrawalExecution(bytes32,((address,address,address,address,address,address[],address[]),(uint256,uint256,uint256,uint256,uint256,uint256),(bool)),(((string,address)[],(string,address[])[]),((string,uint256)[],(string,uint256[])[]),((string,int256)[],(string,int256[])[]),((string,bool)[],(string,bool[])[]),((string,bytes32)[],(string,bytes32[])[]),((string,bytes)[],(string,bytes[])[]),((string,string)[],(string,string[])[])))":"a224323b","amountPendingDeposit()":"8ba12252","amountPendingWithdraw()":"095cfd79","asset()":"38d52e0f","burn(uint256)":"42966c68","callbackGasLimit()":"24f74697","dataStore()":"660d0d67","depositHandler()":"9c8b2cfb","depositVault()":"d7cd3949","earn()":"d389800f","earnActionValue()":"f913eaa7","exchangeRouter()":"1cb85818","exec(address)":"6bb6126e","exit(address)":"b42652e9","file(bytes32,address)":"d4e8be83","file(bytes32,uint256)":"29ae8114","indexTokenDecimals()":"a167a6d8","keepers(address)":"3bbd64bc","kill(uint256,address)":"b72a6e3f","market()":"80f55605","marketTokenPrice(bool)":"a55b5ca4","mint(uint256)":"a0712d68","move(address)":"23cadd34","name()":"06fdde03","rate(uint256)":"e7ee6ad6","reader()":"d4fc42c6","reserveRatio()":"0c7d5cd8","slippage()":"3e032a3b","strategyHelper()":"e070555e","tokenLong()":"62b805c1","tokenShort()":"37c6ecf0","totalShares()":"3a98ef39","withdrawAirdrop(address)":"33e29a40","withdrawEth()":"a0ef91df","withdrawalHandler()":"2c2f3c07","withdrawalVault()":"69d42148"},"id":8}