{"abi":[{"type":"constructor","inputs":[],"stateMutability":"nonpayable"},{"type":"function","name":"addBytes32","inputs":[{"name":"key","type":"bytes32","internalType":"bytes32"},{"name":"value","type":"bytes32","internalType":"bytes32"}],"outputs":[],"stateMutability":"nonpayable"},{"type":"function","name":"addressValues","inputs":[{"name":"","type":"bytes32","internalType":"bytes32"}],"outputs":[{"name":"","type":"address","internalType":"address"}],"stateMutability":"view"},{"type":"function","name":"boolValues","inputs":[{"name":"","type":"bytes32","internalType":"bytes32"}],"outputs":[{"name":"","type":"bool","internalType":"bool"}],"stateMutability":"view"},{"type":"function","name":"bytes32ArrayValues","inputs":[{"name":"","type":"bytes32","internalType":"bytes32"},{"name":"","type":"uint256","internalType":"uint256"}],"outputs":[{"name":"","type":"bytes32","internalType":"bytes32"}],"stateMutability":"view"},{"type":"function","name":"bytes32Values","inputs":[{"name":"","type":"bytes32","internalType":"bytes32"}],"outputs":[{"name":"","type":"bytes32","internalType":"bytes32"}],"stateMutability":"view"},{"type":"function","name":"containsBytes32","inputs":[{"name":"key","type":"bytes32","internalType":"bytes32"},{"name":"value","type":"bytes32","internalType":"bytes32"}],"outputs":[{"name":"","type":"bool","internalType":"bool"}],"stateMutability":"view"},{"type":"function","name":"exec","inputs":[{"name":"","type":"address","internalType":"address"}],"outputs":[{"name":"","type":"bool","internalType":"bool"}],"stateMutability":"view"},{"type":"function","name":"file","inputs":[{"name":"what","type":"bytes32","internalType":"bytes32"},{"name":"data","type":"address","internalType":"address"}],"outputs":[],"stateMutability":"nonpayable"},{"type":"function","name":"getAddress","inputs":[{"name":"key","type":"bytes32","internalType":"bytes32"}],"outputs":[{"name":"","type":"address","internalType":"address"}],"stateMutability":"view"},{"type":"function","name":"getBool","inputs":[{"name":"key","type":"bytes32","internalType":"bytes32"}],"outputs":[{"name":"","type":"bool","internalType":"bool"}],"stateMutability":"view"},{"type":"function","name":"getBytes32","inputs":[{"name":"key","type":"bytes32","internalType":"bytes32"}],"outputs":[{"name":"","type":"bytes32","internalType":"bytes32"}],"stateMutability":"view"},{"type":"function","name":"getBytes32Array","inputs":[{"name":"key","type":"bytes32","internalType":"bytes32"}],"outputs":[{"name":"","type":"bytes32[]","internalType":"bytes32[]"}],"stateMutability":"view"},{"type":"function","name":"getBytes32Count","inputs":[{"name":"key","type":"bytes32","internalType":"bytes32"}],"outputs":[{"name":"","type":"uint256","internalType":"uint256"}],"stateMutability":"view"},{"type":"function","name":"getBytes32ValuesAt","inputs":[{"name":"key","type":"bytes32","internalType":"bytes32"},{"name":"start","type":"uint256","internalType":"uint256"},{"name":"end","type":"uint256","internalType":"uint256"}],"outputs":[{"name":"v","type":"bytes32[]","internalType":"bytes32[]"}],"stateMutability":"view"},{"type":"function","name":"getInt","inputs":[{"name":"key","type":"bytes32","internalType":"bytes32"}],"outputs":[{"name":"","type":"int256","internalType":"int256"}],"stateMutability":"view"},{"type":"function","name":"getString","inputs":[{"name":"key","type":"bytes32","internalType":"bytes32"}],"outputs":[{"name":"","type":"string","internalType":"string"}],"stateMutability":"view"},{"type":"function","name":"getUint","inputs":[{"name":"key","type":"bytes32","internalType":"bytes32"}],"outputs":[{"name":"","type":"uint256","internalType":"uint256"}],"stateMutability":"view"},{"type":"function","name":"intValues","inputs":[{"name":"","type":"bytes32","internalType":"bytes32"}],"outputs":[{"name":"","type":"int256","internalType":"int256"}],"stateMutability":"view"},{"type":"function","name":"removeAddress","inputs":[{"name":"key","type":"bytes32","internalType":"bytes32"}],"outputs":[],"stateMutability":"nonpayable"},{"type":"function","name":"removeBool","inputs":[{"name":"key","type":"bytes32","internalType":"bytes32"}],"outputs":[],"stateMutability":"nonpayable"},{"type":"function","name":"removeBytes32","inputs":[{"name":"key","type":"bytes32","internalType":"bytes32"},{"name":"value","type":"bytes32","internalType":"bytes32"}],"outputs":[],"stateMutability":"nonpayable"},{"type":"function","name":"removeBytes32","inputs":[{"name":"key","type":"bytes32","internalType":"bytes32"}],"outputs":[],"stateMutability":"nonpayable"},{"type":"function","name":"removeBytes32Array","inputs":[{"name":"key","type":"bytes32","internalType":"bytes32"}],"outputs":[],"stateMutability":"nonpayable"},{"type":"function","name":"removeInt","inputs":[{"name":"key","type":"bytes32","internalType":"bytes32"}],"outputs":[],"stateMutability":"nonpayable"},{"type":"function","name":"removeString","inputs":[{"name":"key","type":"bytes32","internalType":"bytes32"}],"outputs":[],"stateMutability":"nonpayable"},{"type":"function","name":"removeUint","inputs":[{"name":"key","type":"bytes32","internalType":"bytes32"}],"outputs":[],"stateMutability":"nonpayable"},{"type":"function","name":"setAddress","inputs":[{"name":"key","type":"bytes32","internalType":"bytes32"},{"name":"value","type":"address","internalType":"address"}],"outputs":[{"name":"","type":"address","internalType":"address"}],"stateMutability":"nonpayable"},{"type":"function","name":"setBool","inputs":[{"name":"key","type":"bytes32","internalType":"bytes32"},{"name":"value","type":"bool","internalType":"bool"}],"outputs":[{"name":"","type":"bool","internalType":"bool"}],"stateMutability":"nonpayable"},{"type":"function","name":"setBytes32","inputs":[{"name":"key","type":"bytes32","internalType":"bytes32"},{"name":"value","type":"bytes32","internalType":"bytes32"}],"outputs":[{"name":"","type":"bytes32","internalType":"bytes32"}],"stateMutability":"nonpayable"},{"type":"function","name":"setBytes32Array","inputs":[{"name":"key","type":"bytes32","internalType":"bytes32"},{"name":"value","type":"bytes32[]","internalType":"bytes32[]"}],"outputs":[],"stateMutability":"nonpayable"},{"type":"function","name":"setInt","inputs":[{"name":"key","type":"bytes32","internalType":"bytes32"},{"name":"value","type":"int256","internalType":"int256"}],"outputs":[{"name":"","type":"int256","internalType":"int256"}],"stateMutability":"nonpayable"},{"type":"function","name":"setIntDelta","inputs":[{"name":"key","type":"bytes32","internalType":"bytes32"},{"name":"value","type":"int256","internalType":"int256"}],"outputs":[{"name":"","type":"int256","internalType":"int256"}],"stateMutability":"nonpayable"},{"type":"function","name":"setString","inputs":[{"name":"key","type":"bytes32","internalType":"bytes32"},{"name":"value","type":"string","internalType":"string"}],"outputs":[{"name":"","type":"string","internalType":"string"}],"stateMutability":"nonpayable"},{"type":"function","name":"setUint","inputs":[{"name":"key","type":"bytes32","internalType":"bytes32"},{"name":"value","type":"uint256","internalType":"uint256"}],"outputs":[{"name":"","type":"uint256","internalType":"uint256"}],"stateMutability":"nonpayable"},{"type":"function","name":"setUintDelta","inputs":[{"name":"key","type":"bytes32","internalType":"bytes32"},{"name":"value","type":"int256","internalType":"int256"}],"outputs":[{"name":"","type":"uint256","internalType":"uint256"}],"stateMutability":"nonpayable"},{"type":"function","name":"stringValues","inputs":[{"name":"","type":"bytes32","internalType":"bytes32"}],"outputs":[{"name":"","type":"string","internalType":"string"}],"stateMutability":"view"},{"type":"function","name":"uintValues","inputs":[{"name":"","type":"bytes32","internalType":"bytes32"}],"outputs":[{"name":"","type":"uint256","internalType":"uint256"}],"stateMutability":"view"},{"type":"event","name":"File","inputs":[{"name":"what","type":"bytes32","indexed":true,"internalType":"bytes32"},{"name":"data","type":"address","indexed":false,"internalType":"address"}],"anonymous":false},{"type":"error","name":"InvalidFile","inputs":[]},{"type":"error","name":"OverOrUnderflow","inputs":[]},{"type":"error","name":"Unauthorized","inputs":[]}],"bytecode":{"object":"0x608060405234801561001057600080fd5b50336000908152602081905260409020805460ff191660011790556116278061003a6000396000f3fe608060405234801561001057600080fd5b50600436106102275760003560e01c8063a6ed563e11610130578063d38eebc7116100b8578063e2a4853a1161007c578063e2a4853a146105ab578063e62461ce146105be578063f069052a146105d1578063f15caeac146105e4578063f3903b9f146105f757600080fd5b8063d38eebc714610518578063d4e8be8314610538578063d52852af1461054b578063dc97d9621461056b578063dd0319971461058b57600080fd5b8063bf7f035a116100ff578063bf7f035a146104b9578063c80f4c62146104cc578063ca446dd9146104df578063cc50eadd146104f2578063cf6a87221461050557600080fd5b8063a6ed563e14610453578063abfdcced14610473578063bd02d0f514610486578063bf498dd3146104a657600080fd5b80636bb6126e116101b357806391d4403c1161018257806391d4403c146103d6578063986e791a146104075780639921c3cc1461041a5780639faf6fb61461042d5780639fe7ac121461044057600080fd5b80636bb6126e146103505780636e89955014610373578063743df325146103935780637ae1cfca146103b357600080fd5b80633e49bed0116101fa5780633e49bed0146102d157806342c3bd96146102e457806344a242b1146102f757806345ee66ee1461032a5780634e91db081461033d57600080fd5b806321f8a7211461022c57806322538dae14610272578063260048461461029b578063295cd3ae146102b0575b600080fd5b61025561023a3660046110e3565b6000908152600360205260409020546001600160a01b031690565b6040516001600160a01b0390911681526020015b60405180910390f35b6102556102803660046110e3565b6003602052600090815260409020546001600160a01b031681565b6102ae6102a9366004611143565b610617565b005b6102c36102be3660046111f5565b61066a565b604051908152602001610269565b6102c36102df3660046111f5565b6106ce565b6102ae6102f23660046110e3565b610713565b61031a6103053660046110e3565b60046020526000908152604090205460ff1681565b6040519015158152602001610269565b6102c36103383660046111f5565b610753565b6102c361034b3660046111f5565b610812565b61031a61035e366004611233565b60006020819052908152604090205460ff1681565b610386610381366004611255565b610857565b60405161026991906112f4565b6102c36103a13660046110e3565b60026020526000908152604090205481565b61031a6103c13660046110e3565b60009081526004602052604090205460ff1690565b61031a6103e43660046111f5565b600091825260086020908152604080842092845260019092019052902054151590565b6103866104153660046110e3565b6108a9565b6102ae6104283660046111f5565b61094b565b6102ae61043b3660046110e3565b610a68565b6102ae61044e3660046110e3565b610ab5565b6102c36104613660046110e3565b60009081526006602052604090205490565b61031a610481366004611342565b610afc565b6102c36104943660046110e3565b60009081526001602052604090205490565b6102c36104b43660046111f5565b610b4a565b6102ae6104c73660046110e3565b610b7b565b6102ae6104da3660046111f5565b610bc4565b6102556104ed366004611377565b610c42565b6102ae6105003660046110e3565b610c9d565b6102ae6105133660046110e3565b610ce3565b6102c36105263660046110e3565b60016020526000908152604090205481565b6102ae610546366004611377565b610d23565b6102c36105593660046110e3565b60066020526000908152604090205481565b6102c36105793660046110e3565b60009081526002602052604090205490565b61059e6105993660046110e3565b610de8565b60405161026991906113a3565b6102c36105b93660046111f5565b610e49565b6102ae6105cc3660046110e3565b610e8e565b61059e6105df3660046113e7565b610ece565b6103866105f23660046110e3565b610f95565b6102c36106053660046110e3565b60009081526008602052604090205490565b3360009081526020819052604090205460ff16610646576040516282b42960e81b815260040160405180910390fd5b600082815260076020908152604090912082516106659284019061102f565b505050565b3360009081526020819052604081205460ff16610699576040516282b42960e81b815260040160405180910390fd5b6000838152600260205260408120546106b3908490611429565b60008581526002602052604090208190559150505b92915050565b3360009081526020819052604081205460ff166106fd576040516282b42960e81b815260040160405180910390fd5b5060009182526002602052604090912081905590565b3360009081526020819052604090205460ff16610742576040516282b42960e81b815260040160405180910390fd5b600090815260016020526040812055565b3360009081526020819052604081205460ff16610782576040516282b42960e81b815260040160405180910390fd5b6000838152600160205260408120549061079c8483611429565b90506000841380156107ad57508181105b156107cb57604051631a50fd6f60e11b815260040160405180910390fd5b6000841280156107da57508181115b156107f857604051631a50fd6f60e11b815260040160405180910390fd5b600085815260016020526040902081905591505092915050565b3360009081526020819052604081205460ff16610841576040516282b42960e81b815260040160405180910390fd5b5060009182526006602052604090912081905590565b3360009081526020819052604090205460609060ff16610889576040516282b42960e81b815260040160405180910390fd5b60008381526005602052604090206108a183826114d9565b509092915050565b60008181526005602052604090208054606091906108c690611451565b80601f01602080910402602001604051908101604052809291908181526020018280546108f290611451565b801561093f5780601f106109145761010080835404028352916020019161093f565b820191906000526020600020905b81548152906001019060200180831161092257829003601f168201915b50505050509050919050565b3360009081526020819052604090205460ff1661097a576040516282b42960e81b815260040160405180910390fd5b600082815260086020908152604080832084845260018101909252909120548015610a625760006109ac600183611599565b83549091506000906109c090600190611599565b9050808214610a255760008460000182815481106109e0576109e06115ac565b9060005260206000200154905080856000018481548110610a0357610a036115ac565b6000918252602080832090910192909255918252600186019052604090208390555b8354849080610a3657610a366115c2565b600082815260208082208301600019908101839055909201909255868252600186019052604081205550505b50505050565b3360009081526020819052604090205460ff16610a97576040516282b42960e81b815260040160405180910390fd5b600090815260036020526040902080546001600160a01b0319169055565b3360009081526020819052604090205460ff16610ae4576040516282b42960e81b815260040160405180910390fd5b6000908152600460205260409020805460ff19169055565b3360009081526020819052604081205460ff16610b2b576040516282b42960e81b815260040160405180910390fd5b50600091825260046020526040909120805460ff191682151517905590565b60076020528160005260406000208181548110610b6657600080fd5b90600052602060002001600091509150505481565b3360009081526020819052604090205460ff16610baa576040516282b42960e81b815260040160405180910390fd5b6000818152600760205260408120610bc19161107a565b50565b3360009081526020819052604090205460ff16610bf3576040516282b42960e81b815260040160405180910390fd5b6000828152600860209081526040808320848452600181019092528220549091036106655780546001808201835560008381526020808220909301859055835494815292019052604090205550565b3360009081526020819052604081205460ff16610c71576040516282b42960e81b815260040160405180910390fd5b5060009182526003602052604090912080546001600160a01b0319166001600160a01b03831617905590565b3360009081526020819052604090205460ff16610ccc576040516282b42960e81b815260040160405180910390fd5b6000818152600560205260408120610bc191611098565b3360009081526020819052604090205460ff16610d12576040516282b42960e81b815260040160405180910390fd5b600090815260066020526040812055565b3360009081526020819052604090205460ff16610d52576040516282b42960e81b815260040160405180910390fd5b81636578656360e01b03610d8d576001600160a01b0381166000908152602081905260409020805460ff19811660ff90911615179055610da6565b6040516302bfa98160e41b815260040160405180910390fd5b6040516001600160a01b038216815282907f8fef588b5fc1afbf5b2f06c1a435d513f208da2e6704c3d8f0e0ec91167066ba9060200160405180910390a25050565b60008181526007602090815260409182902080548351818402810184019094528084526060939283018282801561093f57602002820191906000526020600020905b815481526020019060010190808311610e2a5750505050509050919050565b3360009081526020819052604081205460ff16610e78576040516282b42960e81b815260040160405180910390fd5b5060009182526001602052604090912081905590565b3360009081526020819052604090205460ff16610ebd576040516282b42960e81b815260040160405180910390fd5b600090815260026020526040812055565b6060610eda8383611599565b67ffffffffffffffff811115610ef257610ef26110fc565b604051908082528060200260200182016040528015610f1b578160200160208202803683370190505b509050825b82811015610f8d576000858152600860205260409020805482908110610f4857610f486115ac565b9060005260206000200154828583610f609190611599565b81518110610f7057610f706115ac565b602090810291909101015280610f85816115d8565b915050610f20565b509392505050565b60056020526000908152604090208054610fae90611451565b80601f0160208091040260200160405190810160405280929190818152602001828054610fda90611451565b80156110275780601f10610ffc57610100808354040283529160200191611027565b820191906000526020600020905b81548152906001019060200180831161100a57829003601f168201915b505050505081565b82805482825590600052602060002090810192821561106a579160200282015b8281111561106a57825182559160200191906001019061104f565b506110769291506110ce565b5090565b5080546000825590600052602060002090810190610bc191906110ce565b5080546110a490611451565b6000825580601f106110b4575050565b601f016020900490600052602060002090810190610bc191905b5b8082111561107657600081556001016110cf565b6000602082840312156110f557600080fd5b5035919050565b634e487b7160e01b600052604160045260246000fd5b604051601f8201601f1916810167ffffffffffffffff8111828210171561113b5761113b6110fc565b604052919050565b6000806040838503121561115657600080fd5b8235915060208084013567ffffffffffffffff8082111561117657600080fd5b818601915086601f83011261118a57600080fd5b81358181111561119c5761119c6110fc565b8060051b91506111ad848301611112565b81815291830184019184810190898411156111c757600080fd5b938501935b838510156111e5578435825293850193908501906111cc565b8096505050505050509250929050565b6000806040838503121561120857600080fd5b50508035926020909101359150565b80356001600160a01b038116811461122e57600080fd5b919050565b60006020828403121561124557600080fd5b61124e82611217565b9392505050565b6000806040838503121561126857600080fd5b8235915060208084013567ffffffffffffffff8082111561128857600080fd5b818601915086601f83011261129c57600080fd5b8135818111156112ae576112ae6110fc565b6112c0601f8201601f19168501611112565b915080825287848285010111156112d657600080fd5b80848401858401376000848284010152508093505050509250929050565b600060208083528351808285015260005b8181101561132157858101830151858201604001528201611305565b506000604082860101526040601f19601f8301168501019250505092915050565b6000806040838503121561135557600080fd5b823591506020830135801515811461136c57600080fd5b809150509250929050565b6000806040838503121561138a57600080fd5b8235915061139a60208401611217565b90509250929050565b6020808252825182820181905260009190848201906040850190845b818110156113db578351835292840192918401916001016113bf565b50909695505050505050565b6000806000606084860312156113fc57600080fd5b505081359360208301359350604090920135919050565b634e487b7160e01b600052601160045260246000fd5b808201828112600083128015821682158216171561144957611449611413565b505092915050565b600181811c9082168061146557607f821691505b60208210810361148557634e487b7160e01b600052602260045260246000fd5b50919050565b601f82111561066557600081815260208120601f850160051c810160208610156114b25750805b601f850160051c820191505b818110156114d1578281556001016114be565b505050505050565b815167ffffffffffffffff8111156114f3576114f36110fc565b611507816115018454611451565b8461148b565b602080601f83116001811461153c57600084156115245750858301515b600019600386901b1c1916600185901b1785556114d1565b600085815260208120601f198616915b8281101561156b5788860151825594840194600190910190840161154c565b50858210156115895787850151600019600388901b60f8161c191681555b5050505050600190811b01905550565b818103818111156106c8576106c8611413565b634e487b7160e01b600052603260045260246000fd5b634e487b7160e01b600052603160045260246000fd5b6000600182016115ea576115ea611413565b506001019056fea264697066735822122088543e02104d904ac8593688b11888674cf9609e0f5ea3bbd0b0ae24ac11d45064736f6c63430008110033","linkReferences":{}},"methodIdentifiers":{"addBytes32(bytes32,bytes32)":"c80f4c62","addressValues(bytes32)":"22538dae","boolValues(bytes32)":"44a242b1","bytes32ArrayValues(bytes32,uint256)":"bf498dd3","bytes32Values(bytes32)":"d52852af","containsBytes32(bytes32,bytes32)":"91d4403c","exec(address)":"6bb6126e","file(bytes32,address)":"d4e8be83","getAddress(bytes32)":"21f8a721","getBool(bytes32)":"7ae1cfca","getBytes32(bytes32)":"a6ed563e","getBytes32Array(bytes32)":"dd031997","getBytes32Count(bytes32)":"f3903b9f","getBytes32ValuesAt(bytes32,uint256,uint256)":"f069052a","getInt(bytes32)":"dc97d962","getString(bytes32)":"986e791a","getUint(bytes32)":"bd02d0f5","intValues(bytes32)":"743df325","removeAddress(bytes32)":"9faf6fb6","removeBool(bytes32)":"9fe7ac12","removeBytes32(bytes32)":"cf6a8722","removeBytes32(bytes32,bytes32)":"9921c3cc","removeBytes32Array(bytes32)":"bf7f035a","removeInt(bytes32)":"e62461ce","removeString(bytes32)":"cc50eadd","removeUint(bytes32)":"42c3bd96","setAddress(bytes32,address)":"ca446dd9","setBool(bytes32,bool)":"abfdcced","setBytes32(bytes32,bytes32)":"4e91db08","setBytes32Array(bytes32,bytes32[])":"26004846","setInt(bytes32,int256)":"3e49bed0","setIntDelta(bytes32,int256)":"295cd3ae","setString(bytes32,string)":"6e899550","setUint(bytes32,uint256)":"e2a4853a","setUintDelta(bytes32,int256)":"45ee66ee","stringValues(bytes32)":"f15caeac","uintValues(bytes32)":"d38eebc7"},"id":6}