{"abi":[{"type":"constructor","inputs":[{"name":"_asset","type":"address","internalType":"address"},{"name":"_strategyHelper","type":"address","internalType":"address"},{"name":"_rewarder","type":"address","internalType":"address"},{"name":"_poolId","type":"uint256","internalType":"uint256"}],"stateMutability":"nonpayable"},{"type":"function","name":"asset","inputs":[],"outputs":[{"name":"","type":"address","internalType":"contract IERC20"}],"stateMutability":"view"},{"type":"function","name":"burn","inputs":[{"name":"shares","type":"uint256","internalType":"uint256"}],"outputs":[{"name":"","type":"uint256","internalType":"uint256"}],"stateMutability":"nonpayable"},{"type":"function","name":"earn","inputs":[],"outputs":[],"stateMutability":"payable"},{"type":"function","name":"exec","inputs":[{"name":"","type":"address","internalType":"address"}],"outputs":[{"name":"","type":"bool","internalType":"bool"}],"stateMutability":"view"},{"type":"function","name":"exit","inputs":[{"name":"strategy","type":"address","internalType":"address"}],"outputs":[],"stateMutability":"nonpayable"},{"type":"function","name":"file","inputs":[{"name":"what","type":"bytes32","internalType":"bytes32"},{"name":"data","type":"uint256","internalType":"uint256"}],"outputs":[],"stateMutability":"nonpayable"},{"type":"function","name":"file","inputs":[{"name":"what","type":"bytes32","internalType":"bytes32"},{"name":"data","type":"address","internalType":"address"}],"outputs":[],"stateMutability":"nonpayable"},{"type":"function","name":"keepers","inputs":[{"name":"","type":"address","internalType":"address"}],"outputs":[{"name":"","type":"bool","internalType":"bool"}],"stateMutability":"view"},{"type":"function","name":"kill","inputs":[{"name":"shares","type":"uint256","internalType":"uint256"},{"name":"to","type":"address","internalType":"address"}],"outputs":[{"name":"","type":"bytes","internalType":"bytes"}],"stateMutability":"nonpayable"},{"type":"function","name":"mint","inputs":[{"name":"amount","type":"uint256","internalType":"uint256"}],"outputs":[{"name":"","type":"uint256","internalType":"uint256"}],"stateMutability":"nonpayable"},{"type":"function","name":"move","inputs":[{"name":"old","type":"address","internalType":"address"}],"outputs":[],"stateMutability":"nonpayable"},{"type":"function","name":"name","inputs":[],"outputs":[{"name":"","type":"string","internalType":"string"}],"stateMutability":"view"},{"type":"function","name":"pool","inputs":[],"outputs":[{"name":"","type":"address","internalType":"contract IUniswapV2Pair"}],"stateMutability":"view"},{"type":"function","name":"poolId","inputs":[],"outputs":[{"name":"","type":"uint256","internalType":"uint256"}],"stateMutability":"view"},{"type":"function","name":"rate","inputs":[{"name":"sha","type":"uint256","internalType":"uint256"}],"outputs":[{"name":"","type":"uint256","internalType":"uint256"}],"stateMutability":"view"},{"type":"function","name":"rewarder","inputs":[],"outputs":[{"name":"","type":"address","internalType":"contract ISushiswapMiniChefV2"}],"stateMutability":"view"},{"type":"function","name":"slippage","inputs":[],"outputs":[{"name":"","type":"uint256","internalType":"uint256"}],"stateMutability":"view"},{"type":"function","name":"strategyHelper","inputs":[],"outputs":[{"name":"","type":"address","internalType":"contract IStrategyHelper"}],"stateMutability":"view"},{"type":"function","name":"totalManagedAssets","inputs":[],"outputs":[{"name":"","type":"uint256","internalType":"uint256"}],"stateMutability":"view"},{"type":"function","name":"totalShares","inputs":[],"outputs":[{"name":"","type":"uint256","internalType":"uint256"}],"stateMutability":"view"},{"type":"event","name":"Burn","inputs":[{"name":"amount","type":"uint256","indexed":false,"internalType":"uint256"},{"name":"shares","type":"uint256","indexed":false,"internalType":"uint256"}],"anonymous":false},{"type":"event","name":"Earn","inputs":[{"name":"tvl","type":"uint256","indexed":false,"internalType":"uint256"},{"name":"profit","type":"uint256","indexed":false,"internalType":"uint256"}],"anonymous":false},{"type":"event","name":"File","inputs":[{"name":"what","type":"bytes32","indexed":true,"internalType":"bytes32"},{"name":"data","type":"uint256","indexed":false,"internalType":"uint256"}],"anonymous":false},{"type":"event","name":"File","inputs":[{"name":"what","type":"bytes32","indexed":true,"internalType":"bytes32"},{"name":"data","type":"address","indexed":false,"internalType":"address"}],"anonymous":false},{"type":"event","name":"Kill","inputs":[{"name":"amount","type":"uint256","indexed":false,"internalType":"uint256"},{"name":"shares","type":"uint256","indexed":false,"internalType":"uint256"}],"anonymous":false},{"type":"event","name":"Mint","inputs":[{"name":"amount","type":"uint256","indexed":false,"internalType":"uint256"},{"name":"shares","type":"uint256","indexed":false,"internalType":"uint256"}],"anonymous":false},{"type":"error","name":"InvalidFile","inputs":[]},{"type":"error","name":"NoReentering","inputs":[]},{"type":"error","name":"NotKeeper","inputs":[]},{"type":"error","name":"Unauthorized","inputs":[]}],"bytecode":{"object":"0x6080604052620f42406001556101f46002553480156200001e57600080fd5b50604051620034e0380380620034e083398101604081905262000041916200033c565b3360009081526008602052604090819020805460ff19166001179055600380546001600160a01b0387811661010002610100600160a81b031990921691909117909155600480548683166001600160a01b0319918216178255600580549387169390911683179055600784905591516378ed5d1f60e01b815290916378ed5d1f91620000d39185910190815260200190565b602060405180830381865afa158015620000f1573d6000803e3d6000fd5b505050506040513d601f19601f820116820180604052508101906200011791906200038e565b600680546001600160a01b0319166001600160a01b0392909216918217905560408051630dfe168160e01b81529051630dfe1681916004808201926020929091908290030181865afa15801562000172573d6000803e3d6000fd5b505050506040513d601f19601f820116820180604052508101906200019891906200038e565b6001600160a01b03166395d89b416040518163ffffffff1660e01b8152600401600060405180830381865afa158015620001d6573d6000803e3d6000fd5b505050506040513d6000823e601f3d908101601f19168201604052620002009190810190620003ef565b600660009054906101000a90046001600160a01b03166001600160a01b031663d21220a76040518163ffffffff1660e01b8152600401602060405180830381865afa15801562000254573d6000803e3d6000fd5b505050506040513d601f19601f820116820180604052508101906200027a91906200038e565b6001600160a01b03166395d89b416040518163ffffffff1660e01b8152600401600060405180830381865afa158015620002b8573d6000803e3d6000fd5b505050506040513d6000823e601f3d908101601f19168201604052620002e29190810190620003ef565b604051602001620002f5929190620004a7565b604051602081830303815290604052600090816200031491906200058c565b505050505062000658565b80516001600160a01b03811681146200033757600080fd5b919050565b600080600080608085870312156200035357600080fd5b6200035e856200031f565b93506200036e602086016200031f565b92506200037e604086016200031f565b6060959095015193969295505050565b600060208284031215620003a157600080fd5b620003ac826200031f565b9392505050565b634e487b7160e01b600052604160045260246000fd5b60005b83811015620003e6578181015183820152602001620003cc565b50506000910152565b6000602082840312156200040257600080fd5b81516001600160401b03808211156200041a57600080fd5b818401915084601f8301126200042f57600080fd5b815181811115620004445762000444620003b3565b604051601f8201601f19908116603f011681019083821181831017156200046f576200046f620003b3565b816040528281528760208487010111156200048957600080fd5b6200049c836020830160208801620003c9565b979650505050505050565b69029bab9b434a9bbb0b8160b51b815260008351620004ce81600a850160208801620003c9565b602f60f81b600a918401918201528351620004f181600b840160208801620003c9565b01600b01949350505050565b600181811c908216806200051257607f821691505b6020821081036200053357634e487b7160e01b600052602260045260246000fd5b50919050565b601f8211156200058757600081815260208120601f850160051c81016020861015620005625750805b601f850160051c820191505b8181101562000583578281556001016200056e565b5050505b505050565b81516001600160401b03811115620005a857620005a8620003b3565b620005c081620005b98454620004fd565b8462000539565b602080601f831160018114620005f85760008415620005df5750858301515b600019600386901b1c1916600185901b17855562000583565b600085815260208120601f198616915b82811015620006295788860151825594840194600190910190840162000608565b5085821015620006485787850151600019600388901b60f8161c191681555b5050505050600190811b01905550565b612e7880620006686000396000f3fe60806040526004361061011f5760003560e01c806342966c68116100a0578063d389800f11610064578063d389800f1461033f578063d4e8be8314610347578063dcc3e06e14610367578063e070555e14610387578063e7ee6ad6146103a757600080fd5b806342966c681461028f5780636bb6126e146102af578063a0712d68146102df578063b42652e9146102ff578063b72a6e3f1461031f57600080fd5b806338d52e0f116100e757806338d52e0f146101e85780633a98ef391461020d5780633bbd64bc146102235780633e032a3b146102635780633e0dc34e1461027957600080fd5b806305b2bfb01461012457806306fdde031461014c57806316f0115b1461016e57806323cadd34146101a657806329ae8114146101c8575b600080fd5b34801561013057600080fd5b506101396103c7565b6040519081526020015b60405180910390f35b34801561015857600080fd5b50610161610449565b60405161014391906129f7565b34801561017a57600080fd5b5060065461018e906001600160a01b031681565b6040516001600160a01b039091168152602001610143565b3480156101b257600080fd5b506101c66101c1366004612a22565b6104d7565b005b3480156101d457600080fd5b506101c66101e3366004612a3f565b610708565b3480156101f457600080fd5b5060035461018e9061010090046001600160a01b031681565b34801561021957600080fd5b5061013960015481565b34801561022f57600080fd5b5061025361023e366004612a22565b60096020526000908152604090205460ff1681565b6040519015158152602001610143565b34801561026f57600080fd5b5061013960025481565b34801561028557600080fd5b5061013960075481565b34801561029b57600080fd5b506101396102aa366004612a61565b6107aa565b3480156102bb57600080fd5b506102536102ca366004612a22565b60086020526000908152604090205460ff1681565b3480156102eb57600080fd5b506101396102fa366004612a61565b610d3b565b34801561030b57600080fd5b506101c661031a366004612a22565b6114ef565b34801561032b57600080fd5b5061016161033a366004612a7a565b61158b565b6101c6611760565b34801561035357600080fd5b506101c6610362366004612a7a565b6121d6565b34801561037357600080fd5b5060055461018e906001600160a01b031681565b34801561039357600080fd5b5060045461018e906001600160a01b031681565b3480156103b357600080fd5b506101396103c2366004612a61565b6122b4565b6005546007546040516393f1a40b60e01b8152600481019190915230602482015260009182916001600160a01b03909116906393f1a40b906044016040805180830381865afa15801561041e573d6000803e3d6000fd5b505050506040513d601f19601f820116820180604052508101906104429190612aaa565b5092915050565b6000805461045690612ace565b80601f016020809104026020016040519081016040528092919081815260200182805461048290612ace565b80156104cf5780601f106104a4576101008083540402835291602001916104cf565b820191906000526020600020905b8154815290600101906020018083116104b257829003601f168201915b505050505081565b3360009081526008602052604090205460ff16610506576040516282b42960e81b815260040160405180910390fd5b600154156105485760405162461bcd60e51b815260040161053f90602080825260049082015263074733d360e41b604082015260600190565b60405180910390fd5b806001600160a01b0316633a98ef396040518163ffffffff1660e01b8152600401602060405180830381865afa158015610586573d6000803e3d6000fd5b505050506040513d601f19601f820116820180604052508101906105aa9190612b08565b6001556006546040516370a0823160e01b81523060048201526001600160a01b039091169060009082906370a0823190602401602060405180830381865afa1580156105fa573d6000803e3d6000fd5b505050506040513d601f19601f8201168201806040525081019061061e9190612b08565b600181905560055460405163095ea7b360e01b81529192506001600160a01b038085169263095ea7b3926106589216908590600401612b21565b6020604051808303816000875af1158015610677573d6000803e3d6000fd5b505050506040513d601f19601f8201168201806040525081019061069b9190612b3a565b50600554600754604051638dbdbe6d60e01b81526001600160a01b0390921691638dbdbe6d916106d19185903090600401612b5c565b600060405180830381600087803b1580156106eb57600080fd5b505af11580156106ff573d6000803e3d6000fd5b50505050505050565b3360009081526008602052604090205460ff16610737576040516282b42960e81b815260040160405180910390fd5b8167736c69707061676560c01b0361075357600281905561076c565b6040516302bfa98160e41b815260040160405180910390fd5b817fe986e40cc8c151830d4f61050f4fb2e4add8567caad2d5f5496f9158e91fe4c78260405161079e91815260200190565b60405180910390a25050565b3360009081526008602052604081205460ff166107d9576040516282b42960e81b815260040160405180910390fd5b60035460ff16156107fd5760405163cbece43f60e01b815260040160405180910390fd5b6003805460ff191660011790556006546002546001600160a01b039091169060006108266103c7565b9050600060015482876108399190612b91565b6108439190612bbe565b600554600754604051630ad58d2f60e01b81529293506001600160a01b0390911691630ad58d2f9161087b9185908990600401612b5c565b600060405180830381600087803b15801561089557600080fd5b505af11580156108a9573d6000803e3d6000fd5b505060405163226bf2d160e21b81523060048201526001600160a01b03871692506389afcb44915060240160408051808303816000875af11580156108f2573d6000803e3d6000fd5b505050506040513d601f19601f820116820180604052508101906109169190612aaa565b505050506000826001600160a01b0316630dfe16816040518163ffffffff1660e01b8152600401602060405180830381865afa15801561095a573d6000803e3d6000fd5b505050506040513d601f19601f8201168201806040525081019061097e9190612be0565b90506000836001600160a01b031663d21220a76040518163ffffffff1660e01b8152600401602060405180830381865afa1580156109c0573d6000803e3d6000fd5b505050506040513d601f19601f820116820180604052508101906109e49190612be0565b6040516370a0823160e01b81523060048201529091506000906001600160a01b038416906370a0823190602401602060405180830381865afa158015610a2e573d6000803e3d6000fd5b505050506040513d601f19601f82011682018060405250810190610a529190612b08565b6040516370a0823160e01b81523060048201529091506000906001600160a01b038416906370a0823190602401602060405180830381865afa158015610a9c573d6000803e3d6000fd5b505050506040513d601f19601f82011682018060405250810190610ac09190612b08565b6004805460405163095ea7b360e01b81529293506001600160a01b038088169363095ea7b393610af69390921691879101612b21565b6020604051808303816000875af1158015610b15573d6000803e3d6000fd5b505050506040513d601f19601f82011682018060405250810190610b399190612b3a565b506004805460405163095ea7b360e01b81526001600160a01b038087169363095ea7b393610b6c93921691869101612b21565b6020604051808303816000875af1158015610b8b573d6000803e3d6000fd5b505050506040513d601f19601f82011682018060405250810190610baf9190612b3a565b506004805460035460405163d5bcb9b560e01b81526000936001600160a01b039384169363d5bcb9b593610bf5938b936101009092049092169189918d91339101612bfd565b6020604051808303816000875af1158015610c14573d6000803e3d6000fd5b505050506040513d601f19601f82011682018060405250810190610c389190612b08565b6004805460035460405163d5bcb9b560e01b81529394506000936001600160a01b039283169363d5bcb9b593610c80938b936101009091049091169189918e91339101612bfd565b6020604051808303816000875af1158015610c9f573d6000803e3d6000fd5b505050506040513d601f19601f82011682018060405250810190610cc39190612b08565b90506000610cd18284612c2d565b90508a60016000828254610ce59190612c40565b909155505060408051828152602081018d90527f410c5c259085cde81fedf70c1aa308ec839373c26e9b7ada6560a2aca0254eb6910160405180910390a16003805460ff191690559a9950505050505050505050565b3360009081526008602052604081205460ff16610d6a576040516282b42960e81b815260040160405180910390fd5b60035460ff1615610d8e5760405163cbece43f60e01b815260040160405180910390fd5b60038054600160ff1990911617908190556040516323b872dd60e01b8152336004820152306024820152604481018490526101009091046001600160a01b0316906323b872dd906064016020604051808303816000875af1158015610df7573d6000803e3d6000fd5b505050506040513d601f19601f82011682018060405250810190610e1b9190612b3a565b5060065460408051630dfe168160e01b815290516001600160a01b03909216916000918391630dfe1681916004808201926020929091908290030181865afa158015610e6b573d6000803e3d6000fd5b505050506040513d601f19601f82011682018060405250810190610e8f9190612be0565b90506000826001600160a01b031663d21220a76040518163ffffffff1660e01b8152600401602060405180830381865afa158015610ed1573d6000803e3d6000fd5b505050506040513d601f19601f82011682018060405250810190610ef59190612be0565b6002549091506000610f056103c7565b90506000610f14600289612bbe565b6003546004805460405163095ea7b360e01b81529394506001600160a01b0361010090930483169363095ea7b393610f51939216918d9101612b21565b6020604051808303816000875af1158015610f70573d6000803e3d6000fd5b505050506040513d601f19601f82011682018060405250810190610f949190612b3a565b506004805460035460405163d5bcb9b560e01b81526001600160a01b039283169363d5bcb9b593610fd493610100900416918a9187918a91309101612bfd565b6020604051808303816000875af1158015610ff3573d6000803e3d6000fd5b505050506040513d601f19601f820116820180604052508101906110179190612b08565b506004546003546001600160a01b039182169163d5bcb9b59161010090041686611041858d612c40565b87306040518663ffffffff1660e01b8152600401611063959493929190612bfd565b6020604051808303816000875af1158015611082573d6000803e3d6000fd5b505050506040513d601f19601f820116820180604052508101906110a69190612b08565b506040516370a0823160e01b81523060048201526001600160a01b0386169063a9059cbb90889083906370a0823190602401602060405180830381865afa1580156110f5573d6000803e3d6000fd5b505050506040513d601f19601f820116820180604052508101906111199190612b08565b6040518363ffffffff1660e01b8152600401611136929190612b21565b6020604051808303816000875af1158015611155573d6000803e3d6000fd5b505050506040513d601f19601f820116820180604052508101906111799190612b3a565b506040516370a0823160e01b81523060048201526001600160a01b0385169063a9059cbb90889083906370a0823190602401602060405180830381865afa1580156111c8573d6000803e3d6000fd5b505050506040513d601f19601f820116820180604052508101906111ec9190612b08565b6040518363ffffffff1660e01b8152600401611209929190612b21565b6020604051808303816000875af1158015611228573d6000803e3d6000fd5b505050506040513d601f19601f8201168201806040525081019061124c9190612b3a565b50506040516335313c2160e11b81523060048201526001600160a01b03861690636a627842906024016020604051808303816000875af1158015611294573d6000803e3d6000fd5b505050506040513d601f19601f820116820180604052508101906112b89190612b08565b5060405163bc25cf7760e01b81523060048201526001600160a01b0386169063bc25cf7790602401600060405180830381600087803b1580156112fa57600080fd5b505af115801561130e573d6000803e3d6000fd5b50506040516370a0823160e01b8152306004820152600092506001600160a01b03881691506370a0823190602401602060405180830381865afa158015611359573d6000803e3d6000fd5b505050506040513d601f19601f8201168201806040525081019061137d9190612b08565b60055460405163095ea7b360e01b81529192506001600160a01b038089169263095ea7b3926113b29216908590600401612b21565b6020604051808303816000875af11580156113d1573d6000803e3d6000fd5b505050506040513d601f19601f820116820180604052508101906113f59190612b3a565b50600554600754604051638dbdbe6d60e01b81526001600160a01b0390921691638dbdbe6d9161142b9185903090600401612b5c565b600060405180830381600087803b15801561144557600080fd5b505af1158015611459573d6000803e3d6000fd5b505050506000826000146114855782600154836114769190612b91565b6114809190612bbe565b611487565b815b9050806001600082825461149b9190612c2d565b9091555050604080518a8152602081018390527fcc9c58b575eabd3f6a1ee653e91fcea3ff546867ffc3782a3bbca1f9b6dbb8df910160405180910390a16003805460ff1916905598975050505050505050565b3360009081526008602052604090205460ff1661151e576040516282b42960e81b815260040160405180910390fd5b600554600754600154604051630ad58d2f60e01b81526001600160a01b0390931692630ad58d2f926115569290918690600401612b5c565b600060405180830381600087803b15801561157057600080fd5b505af1158015611584573d6000803e3d6000fd5b5050505050565b3360009081526008602052604090205460609060ff166115bd576040516282b42960e81b815260040160405180910390fd5b60035460ff16156115e15760405163cbece43f60e01b815260040160405180910390fd5b6003805460ff19166001908117909155546000906115fd6103c7565b6116079086612b91565b6116119190612bbe565b600554600754604051630ad58d2f60e01b81529293506001600160a01b0390911691630ad58d2f916116499185908890600401612b5c565b600060405180830381600087803b15801561166357600080fd5b505af1158015611677573d6000803e3d6000fd5b50505050836001600082825461168d9190612c40565b909155505060408051828152602081018690527f622e2307f13a1f8b5f4747071048478ab949ebea33d6bfdecc6018530ff22857910160405180910390a160408051600180825281830190925260009160208083019080368337505060065482519293506001600160a01b03169183915060009061170d5761170d612c53565b6001600160a01b0390921660209283029190910182015260405161173d9164737573686960d81b91849101612c69565b604051602081830303815290604052925050506003805460ff1916905592915050565b60035460ff16156117845760405163cbece43f60e01b815260040160405180910390fd5b6003805460ff191660011790553360009081526009602052604090205460ff166117c157604051631ea2564f60e31b815260040160405180910390fd5b60006117ce6001546122b4565b60065460055460408051630ab560e160e41b815290519394506001600160a01b03928316936000939092169163ab560e10916004808201926020929091908290030181865afa158015611825573d6000803e3d6000fd5b505050506040513d601f19601f820116820180604052508101906118499190612be0565b600554600754604051630c7e663b60e11b815260048101919091523060248201529192506001600160a01b0316906318fccc7690604401600060405180830381600087803b15801561189a57600080fd5b505af11580156118ae573d6000803e3d6000fd5b50506040516370a0823160e01b8152306004820152600092506001600160a01b03841691506370a0823190602401602060405180830381865afa1580156118f9573d6000803e3d6000fd5b505050506040513d601f19601f8201168201806040525081019061191d9190612b08565b9050600061192c600283612bbe565b60048054604051630f8b27d760e01b81529293506706f05b59d3b20000926001600160a01b0390911691630f8b27d79161196a918891889101612b21565b602060405180830381865afa158015611987573d6000803e3d6000fd5b505050506040513d601f19601f820116820180604052508101906119ab9190612b08565b10156119bb5750505050506121ca565b6004805460405163095ea7b360e01b81526001600160a01b038087169363095ea7b3936119ed93921691879101612b21565b6020604051808303816000875af1158015611a0c573d6000803e3d6000fd5b505050506040513d601f19601f82011682018060405250810190611a309190612b3a565b50600460009054906101000a90046001600160a01b03166001600160a01b031663d5bcb9b584866001600160a01b0316630dfe16816040518163ffffffff1660e01b8152600401602060405180830381865afa158015611a94573d6000803e3d6000fd5b505050506040513d601f19601f82011682018060405250810190611ab89190612be0565b84600254306040518663ffffffff1660e01b8152600401611add959493929190612bfd565b6020604051808303816000875af1158015611afc573d6000803e3d6000fd5b505050506040513d601f19601f82011682018060405250810190611b209190612b08565b50600460009054906101000a90046001600160a01b03166001600160a01b031663d5bcb9b584866001600160a01b031663d21220a76040518163ffffffff1660e01b8152600401602060405180830381865afa158015611b84573d6000803e3d6000fd5b505050506040513d601f19601f82011682018060405250810190611ba89190612be0565b611bb28587612c40565b600254306040518663ffffffff1660e01b8152600401611bd6959493929190612bfd565b6020604051808303816000875af1158015611bf5573d6000803e3d6000fd5b505050506040513d601f19601f82011682018060405250810190611c199190612b08565b50836001600160a01b0316630dfe16816040518163ffffffff1660e01b8152600401602060405180830381865afa158015611c58573d6000803e3d6000fd5b505050506040513d601f19601f82011682018060405250810190611c7c9190612be0565b6001600160a01b031663a9059cbb85866001600160a01b0316630dfe16816040518163ffffffff1660e01b8152600401602060405180830381865afa158015611cc9573d6000803e3d6000fd5b505050506040513d601f19601f82011682018060405250810190611ced9190612be0565b6040516370a0823160e01b81523060048201526001600160a01b0391909116906370a0823190602401602060405180830381865afa158015611d33573d6000803e3d6000fd5b505050506040513d601f19601f82011682018060405250810190611d579190612b08565b6040518363ffffffff1660e01b8152600401611d74929190612b21565b6020604051808303816000875af1158015611d93573d6000803e3d6000fd5b505050506040513d601f19601f82011682018060405250810190611db79190612b3a565b50836001600160a01b031663d21220a76040518163ffffffff1660e01b8152600401602060405180830381865afa158015611df6573d6000803e3d6000fd5b505050506040513d601f19601f82011682018060405250810190611e1a9190612be0565b6001600160a01b031663a9059cbb85866001600160a01b031663d21220a76040518163ffffffff1660e01b8152600401602060405180830381865afa158015611e67573d6000803e3d6000fd5b505050506040513d601f19601f82011682018060405250810190611e8b9190612be0565b6040516370a0823160e01b81523060048201526001600160a01b0391909116906370a0823190602401602060405180830381865afa158015611ed1573d6000803e3d6000fd5b505050506040513d601f19601f82011682018060405250810190611ef59190612b08565b6040518363ffffffff1660e01b8152600401611f12929190612b21565b6020604051808303816000875af1158015611f31573d6000803e3d6000fd5b505050506040513d601f19601f82011682018060405250810190611f559190612b3a565b506040516335313c2160e11b81523060048201526001600160a01b03851690636a627842906024016020604051808303816000875af1158015611f9c573d6000803e3d6000fd5b505050506040513d601f19601f82011682018060405250810190611fc09190612b08565b5060405163bc25cf7760e01b81523060048201526001600160a01b0385169063bc25cf7790602401600060405180830381600087803b15801561200257600080fd5b505af1158015612016573d6000803e3d6000fd5b50506040516370a0823160e01b8152306004820152600092506001600160a01b03871691506370a0823190602401602060405180830381865afa158015612061573d6000803e3d6000fd5b505050506040513d601f19601f820116820180604052508101906120859190612b08565b60055460405163095ea7b360e01b81529192506001600160a01b038088169263095ea7b3926120ba9216908590600401612b21565b6020604051808303816000875af11580156120d9573d6000803e3d6000fd5b505050506040513d601f19601f820116820180604052508101906120fd9190612b3a565b50600554600754604051638dbdbe6d60e01b81526001600160a01b0390921691638dbdbe6d916121339185903090600401612b5c565b600060405180830381600087803b15801561214d57600080fd5b505af1158015612161573d6000803e3d6000fd5b5050505060006121726001546122b4565b90507f5850d758e6151f474c145f4f59e8cb315c3f1a9fe82d96dff5bd2d48b5a76f9b816121a0838a612814565b6121aa9084612c40565b6040805192835260208301919091520160405180910390a1505050505050505b6003805460ff19169055565b3360009081526008602052604090205460ff16612205576040516282b42960e81b815260040160405180910390fd5b81636578656360e01b03612240576001600160a01b0381166000908152600860205260409020805460ff19811660ff90911615179055612279565b816535b2b2b832b960d11b03610753576001600160a01b0381166000908152600960205260409020805460ff19811660ff909116151790555b6040516001600160a01b038216815282907f8fef588b5fc1afbf5b2f06c1a435d513f208da2e6704c3d8f0e0ec91167066ba9060200161079e565b60008115806122c35750600154155b156122d057506000919050565b600654604080516318160ddd60e01b815290516001600160a01b039092169160009183916318160ddd916004808201926020929091908290030181865afa15801561231f573d6000803e3d6000fd5b505050506040513d601f19601f820116820180604052508101906123439190612b08565b9050600061234f6103c7565b9050600080600080866001600160a01b0316630902f1ac6040518163ffffffff1660e01b8152600401606060405180830381865afa158015612395573d6000803e3d6000fd5b505050506040513d601f19601f820116820180604052508101906123b99190612cdc565b5091509150866001600160a01b0316630dfe16816040518163ffffffff1660e01b8152600401602060405180830381865afa1580156123fc573d6000803e3d6000fd5b505050506040513d601f19601f820116820180604052508101906124209190612be0565b6001600160a01b031663313ce5676040518163ffffffff1660e01b8152600401602060405180830381865afa15801561245d573d6000803e3d6000fd5b505050506040513d601f19601f820116820180604052508101906124819190612d2c565b61248c90600a612e33565b6124a76001600160701b038416670de0b6b3a7640000612b91565b6124b19190612bbe565b9350866001600160a01b031663d21220a76040518163ffffffff1660e01b8152600401602060405180830381865afa1580156124f1573d6000803e3d6000fd5b505050506040513d601f19601f820116820180604052508101906125159190612be0565b6001600160a01b031663313ce5676040518163ffffffff1660e01b8152600401602060405180830381865afa158015612552573d6000803e3d6000fd5b505050506040513d601f19601f820116820180604052508101906125769190612d2c565b61258190600a612e33565b61259c6001600160701b038316670de0b6b3a7640000612b91565b6125a69190612bbe565b925050506000600460009054906101000a90046001600160a01b03166001600160a01b031663aea91078876001600160a01b0316630dfe16816040518163ffffffff1660e01b8152600401602060405180830381865afa15801561260e573d6000803e3d6000fd5b505050506040513d601f19601f820116820180604052508101906126329190612be0565b6040516001600160e01b031960e084901b1681526001600160a01b039091166004820152602401602060405180830381865afa158015612676573d6000803e3d6000fd5b505050506040513d601f19601f8201168201806040525081019061269a9190612b08565b90506000600460009054906101000a90046001600160a01b03166001600160a01b031663aea91078886001600160a01b031663d21220a76040518163ffffffff1660e01b8152600401602060405180830381865afa158015612700573d6000803e3d6000fd5b505050506040513d601f19601f820116820180604052508101906127249190612be0565b6040516001600160e01b031960e084901b1681526001600160a01b039091166004820152602401602060405180830381865afa158015612768573d6000803e3d6000fd5b505050506040513d601f19601f8201168201806040525081019061278c9190612b08565b90506000866127a361279e8486612b91565b61282e565b6127b061279e8789612b91565b6127ba9190612b91565b6127c49190612bbe565b6127cf906002612b91565b600154909150670de0b6b3a76400006127e88884612b91565b6127f29190612bbe565b6127fc908c612b91565b6128069190612bbe565b9a9950505050505050505050565b60008183106128235781612825565b825b90505b92915050565b60008160000361284057506000919050565b6000600161284d8461291d565b901c6001901b9050600181848161286657612866612ba8565b048201901c9050600181848161287e5761287e612ba8565b048201901c9050600181848161289657612896612ba8565b048201901c905060018184816128ae576128ae612ba8565b048201901c905060018184816128c6576128c6612ba8565b048201901c905060018184816128de576128de612ba8565b048201901c905060018184816128f6576128f6612ba8565b048201901c90506129168182858161291057612910612ba8565b04612814565b9392505050565b600080608083901c1561293257608092831c92015b604083901c1561294457604092831c92015b602083901c1561295657602092831c92015b601083901c1561296857601092831c92015b600883901c1561297a57600892831c92015b600483901c1561298c57600492831c92015b600283901c1561299e57600292831c92015b600183901c156128285760010192915050565b6000815180845260005b818110156129d7576020818501810151868301820152016129bb565b506000602082860101526020601f19601f83011685010191505092915050565b60208152600061282560208301846129b1565b6001600160a01b0381168114612a1f57600080fd5b50565b600060208284031215612a3457600080fd5b813561291681612a0a565b60008060408385031215612a5257600080fd5b50508035926020909101359150565b600060208284031215612a7357600080fd5b5035919050565b60008060408385031215612a8d57600080fd5b823591506020830135612a9f81612a0a565b809150509250929050565b60008060408385031215612abd57600080fd5b505080516020909101519092909150565b600181811c90821680612ae257607f821691505b602082108103612b0257634e487b7160e01b600052602260045260246000fd5b50919050565b600060208284031215612b1a57600080fd5b5051919050565b6001600160a01b03929092168252602082015260400190565b600060208284031215612b4c57600080fd5b8151801515811461291657600080fd5b92835260208301919091526001600160a01b0316604082015260600190565b634e487b7160e01b600052601160045260246000fd5b808202811582820484141761282857612828612b7b565b634e487b7160e01b600052601260045260246000fd5b600082612bdb57634e487b7160e01b600052601260045260246000fd5b500490565b600060208284031215612bf257600080fd5b815161291681612a0a565b6001600160a01b039586168152938516602085015260408401929092526060830152909116608082015260a00190565b8082018082111561282857612828612b7b565b8181038181111561282857612828612b7b565b634e487b7160e01b600052603260045260246000fd5b6000604082018483526020604081850152818551808452606086019150828701935060005b81811015612cb35784516001600160a01b031683529383019391830191600101612c8e565b5090979650505050505050565b80516001600160701b0381168114612cd757600080fd5b919050565b600080600060608486031215612cf157600080fd5b612cfa84612cc0565b9250612d0860208501612cc0565b9150604084015163ffffffff81168114612d2157600080fd5b809150509250925092565b600060208284031215612d3e57600080fd5b815160ff8116811461291657600080fd5b600181815b80851115612d8a578160001904821115612d7057612d70612b7b565b80851615612d7d57918102915b93841c9390800290612d54565b509250929050565b600082612da157506001612828565b81612dae57506000612828565b8160018114612dc45760028114612dce57612dea565b6001915050612828565b60ff841115612ddf57612ddf612b7b565b50506001821b612828565b5060208310610133831016604e8410600b8410161715612e0d575081810a612828565b612e178383612d4f565b8060001904821115612e2b57612e2b612b7b565b029392505050565b600061282560ff841683612d9256fea2646970667358221220b5858212661b5736b87cac6c0918e03e1c8126fe4c42bac9de0f16a10def88bc64736f6c63430008110033","linkReferences":{}},"methodIdentifiers":{"asset()":"38d52e0f","burn(uint256)":"42966c68","earn()":"d389800f","exec(address)":"6bb6126e","exit(address)":"b42652e9","file(bytes32,address)":"d4e8be83","file(bytes32,uint256)":"29ae8114","keepers(address)":"3bbd64bc","kill(uint256,address)":"b72a6e3f","mint(uint256)":"a0712d68","move(address)":"23cadd34","name()":"06fdde03","pool()":"16f0115b","poolId()":"3e0dc34e","rate(uint256)":"e7ee6ad6","rewarder()":"dcc3e06e","slippage()":"3e032a3b","strategyHelper()":"e070555e","totalManagedAssets()":"05b2bfb0","totalShares()":"3a98ef39"},"id":9}