{"abi":[{"type":"constructor","inputs":[{"name":"_asset","type":"address","internalType":"address"},{"name":"_strategyHelper","type":"address","internalType":"address"},{"name":"_xgrail","type":"address","internalType":"address"},{"name":"_strategyHelperUniswapV3","type":"address","internalType":"address"},{"name":"_uniProxy","type":"address","internalType":"address"},{"name":"_quoter","type":"address","internalType":"address"},{"name":"_hypervisor","type":"address","internalType":"address"},{"name":"_nftPool","type":"address","internalType":"address"},{"name":"_targetAsset","type":"address","internalType":"address"},{"name":"_pathToLp","type":"bytes","internalType":"bytes"}],"stateMutability":"nonpayable"},{"type":"function","name":"asset","inputs":[],"outputs":[{"name":"","type":"address","internalType":"contract IERC20"}],"stateMutability":"view"},{"type":"function","name":"burn","inputs":[{"name":"shares","type":"uint256","internalType":"uint256"}],"outputs":[{"name":"","type":"uint256","internalType":"uint256"}],"stateMutability":"nonpayable"},{"type":"function","name":"earn","inputs":[],"outputs":[],"stateMutability":"payable"},{"type":"function","name":"exec","inputs":[{"name":"","type":"address","internalType":"address"}],"outputs":[{"name":"","type":"bool","internalType":"bool"}],"stateMutability":"view"},{"type":"function","name":"exit","inputs":[{"name":"strategy","type":"address","internalType":"address"}],"outputs":[],"stateMutability":"nonpayable"},{"type":"function","name":"file","inputs":[{"name":"what","type":"bytes32","internalType":"bytes32"},{"name":"data","type":"uint256","internalType":"uint256"}],"outputs":[],"stateMutability":"nonpayable"},{"type":"function","name":"file","inputs":[{"name":"what","type":"bytes32","internalType":"bytes32"},{"name":"data","type":"address","internalType":"address"}],"outputs":[],"stateMutability":"nonpayable"},{"type":"function","name":"hypervisor","inputs":[],"outputs":[{"name":"","type":"address","internalType":"contract IHypervisor"}],"stateMutability":"view"},{"type":"function","name":"keepers","inputs":[{"name":"","type":"address","internalType":"address"}],"outputs":[{"name":"","type":"bool","internalType":"bool"}],"stateMutability":"view"},{"type":"function","name":"kill","inputs":[{"name":"shares","type":"uint256","internalType":"uint256"},{"name":"to","type":"address","internalType":"address"}],"outputs":[{"name":"","type":"bytes","internalType":"bytes"}],"stateMutability":"nonpayable"},{"type":"function","name":"mint","inputs":[{"name":"amount","type":"uint256","internalType":"uint256"}],"outputs":[{"name":"","type":"uint256","internalType":"uint256"}],"stateMutability":"nonpayable"},{"type":"function","name":"move","inputs":[{"name":"old","type":"address","internalType":"address"}],"outputs":[],"stateMutability":"nonpayable"},{"type":"function","name":"name","inputs":[],"outputs":[{"name":"","type":"string","internalType":"string"}],"stateMutability":"view"},{"type":"function","name":"nftPool","inputs":[],"outputs":[{"name":"","type":"address","internalType":"contract INFTPool"}],"stateMutability":"view"},{"type":"function","name":"nitroPool","inputs":[],"outputs":[{"name":"","type":"address","internalType":"contract INitroPool"}],"stateMutability":"view"},{"type":"function","name":"onERC721Received","inputs":[{"name":"","type":"address","internalType":"address"},{"name":"","type":"address","internalType":"address"},{"name":"_tokenId","type":"uint256","internalType":"uint256"},{"name":"","type":"bytes","internalType":"bytes"}],"outputs":[{"name":"","type":"bytes4","internalType":"bytes4"}],"stateMutability":"nonpayable"},{"type":"function","name":"onNFTAddToPosition","inputs":[{"name":"","type":"address","internalType":"address"},{"name":"","type":"uint256","internalType":"uint256"},{"name":"","type":"uint256","internalType":"uint256"}],"outputs":[{"name":"","type":"bool","internalType":"bool"}],"stateMutability":"pure"},{"type":"function","name":"onNFTHarvest","inputs":[{"name":"","type":"address","internalType":"address"},{"name":"","type":"address","internalType":"address"},{"name":"","type":"uint256","internalType":"uint256"},{"name":"","type":"uint256","internalType":"uint256"},{"name":"","type":"uint256","internalType":"uint256"}],"outputs":[{"name":"","type":"bool","internalType":"bool"}],"stateMutability":"pure"},{"type":"function","name":"onNFTWithdraw","inputs":[{"name":"","type":"address","internalType":"address"},{"name":"","type":"uint256","internalType":"uint256"},{"name":"","type":"uint256","internalType":"uint256"}],"outputs":[{"name":"","type":"bool","internalType":"bool"}],"stateMutability":"pure"},{"type":"function","name":"pathToLp","inputs":[],"outputs":[{"name":"","type":"bytes","internalType":"bytes"}],"stateMutability":"view"},{"type":"function","name":"quoter","inputs":[],"outputs":[{"name":"","type":"address","internalType":"contract IQuoter"}],"stateMutability":"view"},{"type":"function","name":"rate","inputs":[{"name":"shares","type":"uint256","internalType":"uint256"}],"outputs":[{"name":"","type":"uint256","internalType":"uint256"}],"stateMutability":"view"},{"type":"function","name":"rewardToken1","inputs":[],"outputs":[{"name":"","type":"address","internalType":"address"}],"stateMutability":"view"},{"type":"function","name":"rewardToken2","inputs":[],"outputs":[{"name":"","type":"address","internalType":"address"}],"stateMutability":"view"},{"type":"function","name":"rewardToken3","inputs":[],"outputs":[{"name":"","type":"address","internalType":"address"}],"stateMutability":"view"},{"type":"function","name":"setNitroPool","inputs":[{"name":"_nitroPool","type":"address","internalType":"address"}],"outputs":[],"stateMutability":"nonpayable"},{"type":"function","name":"setPathToLp","inputs":[{"name":"newPathToLp","type":"bytes","internalType":"bytes"}],"outputs":[],"stateMutability":"nonpayable"},{"type":"function","name":"slippage","inputs":[],"outputs":[{"name":"","type":"uint256","internalType":"uint256"}],"stateMutability":"view"},{"type":"function","name":"strategyHelper","inputs":[],"outputs":[{"name":"","type":"address","internalType":"contract IStrategyHelper"}],"stateMutability":"view"},{"type":"function","name":"strategyHelperUniswapV3","inputs":[],"outputs":[{"name":"","type":"address","internalType":"contract IStrategyHelperUniswapV3"}],"stateMutability":"view"},{"type":"function","name":"targetAsset","inputs":[],"outputs":[{"name":"","type":"address","internalType":"address"}],"stateMutability":"view"},{"type":"function","name":"tokenId","inputs":[],"outputs":[{"name":"","type":"uint256","internalType":"uint256"}],"stateMutability":"view"},{"type":"function","name":"totalShares","inputs":[],"outputs":[{"name":"","type":"uint256","internalType":"uint256"}],"stateMutability":"view"},{"type":"function","name":"twapPeriod","inputs":[],"outputs":[{"name":"","type":"uint32","internalType":"uint32"}],"stateMutability":"view"},{"type":"function","name":"uniProxy","inputs":[],"outputs":[{"name":"","type":"address","internalType":"contract IUniProxy"}],"stateMutability":"view"},{"type":"function","name":"xgrail","inputs":[],"outputs":[{"name":"","type":"address","internalType":"contract IXGrail"}],"stateMutability":"view"},{"type":"function","name":"xgrailFinalizeRedeem","inputs":[{"name":"index","type":"uint256","internalType":"uint256"}],"outputs":[],"stateMutability":"nonpayable"},{"type":"function","name":"xgrailRedeem","inputs":[{"name":"amount","type":"uint256","internalType":"uint256"},{"name":"duration","type":"uint256","internalType":"uint256"}],"outputs":[],"stateMutability":"nonpayable"},{"type":"event","name":"Burn","inputs":[{"name":"amount","type":"uint256","indexed":false,"internalType":"uint256"},{"name":"shares","type":"uint256","indexed":false,"internalType":"uint256"}],"anonymous":false},{"type":"event","name":"Earn","inputs":[{"name":"tvl","type":"uint256","indexed":false,"internalType":"uint256"},{"name":"profit","type":"uint256","indexed":false,"internalType":"uint256"}],"anonymous":false},{"type":"event","name":"File","inputs":[{"name":"what","type":"bytes32","indexed":true,"internalType":"bytes32"},{"name":"data","type":"uint256","indexed":false,"internalType":"uint256"}],"anonymous":false},{"type":"event","name":"File","inputs":[{"name":"what","type":"bytes32","indexed":true,"internalType":"bytes32"},{"name":"data","type":"address","indexed":false,"internalType":"address"}],"anonymous":false},{"type":"event","name":"Kill","inputs":[{"name":"amount","type":"uint256","indexed":false,"internalType":"uint256"},{"name":"shares","type":"uint256","indexed":false,"internalType":"uint256"}],"anonymous":false},{"type":"event","name":"Mint","inputs":[{"name":"amount","type":"uint256","indexed":false,"internalType":"uint256"},{"name":"shares","type":"uint256","indexed":false,"internalType":"uint256"}],"anonymous":false},{"type":"error","name":"InvalidFile","inputs":[]},{"type":"error","name":"NoReentering","inputs":[]},{"type":"error","name":"NotKeeper","inputs":[]},{"type":"error","name":"PriceSlipped","inputs":[]},{"type":"error","name":"T","inputs":[]},{"type":"error","name":"TokenIdNeededFirst","inputs":[]},{"type":"error","name":"TwapPeriodTooLong","inputs":[]},{"type":"error","name":"Unauthorized","inputs":[]},{"type":"error","name":"WrongTargetAsset","inputs":[]}],"bytecode":{"object":"0x610120604052620f42406001556101f4600255600c805463ffffffff191661a8c01790553480156200003057600080fd5b5060405162005f5438038062005f54833981016040819052620000539162000504565b3360009081526005602052604090208054600160ff1990911617905560038054610100600160a81b0319166101006001600160a01b038d8116820292909217909255600480546001600160a01b03199081168d8416179091558a821660805289821660a05288821660c05287821660e052868216909252600980548316868316179055600880549092169084161790556007620000f182826200068c565b50610100516001600160a01b0316630dfe16816040518163ffffffff1660e01b8152600401602060405180830381865afa15801562000134573d6000803e3d6000fd5b505050506040513d601f19601f820116820180604052508101906200015a919062000758565b6001600160a01b03166395d89b416040518163ffffffff1660e01b8152600401600060405180830381865afa15801562000198573d6000803e3d6000fd5b505050506040513d6000823e601f3d908101601f19168201604052620001c2919081019062000778565b610100516001600160a01b031663d21220a76040518163ffffffff1660e01b8152600401602060405180830381865afa15801562000204573d6000803e3d6000fd5b505050506040513d601f19601f820116820180604052508101906200022a919062000758565b6001600160a01b03166395d89b416040518163ffffffff1660e01b8152600401600060405180830381865afa15801562000268573d6000803e3d6000fd5b505050506040513d6000823e601f3d908101601f1916820160405262000292919081019062000778565b604051602001620002a5929190620007cd565b60405160208183030381529060405260009081620002c491906200068c565b50610100516001600160a01b0316630dfe16816040518163ffffffff1660e01b8152600401602060405180830381865afa15801562000307573d6000803e3d6000fd5b505050506040513d601f19601f820116820180604052508101906200032d919062000758565b6001600160a01b0316826001600160a01b031614158015620003c85750610100516001600160a01b031663d21220a76040518163ffffffff1660e01b8152600401602060405180830381865afa1580156200038c573d6000803e3d6000fd5b505050506040513d601f19601f82011682018060405250810190620003b2919062000758565b6001600160a01b0316826001600160a01b031614155b15620003e75760405163039a204760e51b815260040160405180910390fd5b5050505050505050505062000824565b6001600160a01b03811681146200040d57600080fd5b50565b80516200041d81620003f7565b919050565b634e487b7160e01b600052604160045260246000fd5b60005b83811015620004555781810151838201526020016200043b565b50506000910152565b60006001600160401b03808411156200047b576200047b62000422565b604051601f8501601f19908116603f01168101908282118183101715620004a657620004a662000422565b81604052809350858152868686011115620004c057600080fd5b620004d086602083018762000438565b5050509392505050565b600082601f830112620004ec57600080fd5b620004fd838351602085016200045e565b9392505050565b6000806000806000806000806000806101408b8d0312156200052557600080fd5b8a516200053281620003f7565b60208c0151909a506200054581620003f7565b60408c01519099506200055881620003f7565b60608c01519098506200056b81620003f7565b60808c01519097506200057e81620003f7565b95506200058e60a08c0162000410565b94506200059e60c08c0162000410565b9350620005ae60e08c0162000410565b9250620005bf6101008c0162000410565b6101208c01519092506001600160401b03811115620005dd57600080fd5b620005eb8d828e01620004da565b9150509295989b9194979a5092959850565b600181811c908216806200061257607f821691505b6020821081036200063357634e487b7160e01b600052602260045260246000fd5b50919050565b601f8211156200068757600081815260208120601f850160051c81016020861015620006625750805b601f850160051c820191505b8181101562000683578281556001016200066e565b5050505b505050565b81516001600160401b03811115620006a857620006a862000422565b620006c081620006b98454620005fd565b8462000639565b602080601f831160018114620006f85760008415620006df5750858301515b600019600386901b1c1916600185901b17855562000683565b600085815260208120601f198616915b82811015620007295788860151825594840194600190910190840162000708565b5085821015620007485787850151600019600388901b60f8161c191681555b5050505050600190811b01905550565b6000602082840312156200076b57600080fd5b8151620004fd81620003f7565b6000602082840312156200078b57600080fd5b81516001600160401b03811115620007a257600080fd5b8201601f81018413620007b457600080fd5b620007c5848251602084016200045e565b949350505050565b6a021b0b6b2b637ba102b19960ad1b815260008351620007f581600b85016020880162000438565b602f60f81b600b9184019182015283516200081881600c84016020880162000438565b01600c01949350505050565b60805160a05160c05160e051610100516155b0620009a46000396000818161033301528181610cbd01528181610d9301528181610e7401528181610f81015281816110af0152818161157f015281816115a20152818161168301528181611b2701528181611c040152818161265301528181612cae01528181612e0601528181612e8801528181612f1a01528181612f9c01528181613024015281816130a60152818161313d0152818161324e015281816132d0015281816133670152818161346001528181613708015281816137a7015281816138990152818161392701528181613a2701528181613b2301528181613c4401528181614092015281816140d1015281816142520152818161430701528181614523015261454401526000818161058f015281816143d70152614472015260008181610745015281816117970152818161283001526144f40152600081816106dd015281816147900152614801015260008181610711015281816108600152612b2301526155b06000f3fe6080604052600436106102255760003560e01c806398eb4f2111610123578063df0678f6116100ab578063f62073261161006f578063f620732614610699578063f6749570146106cb578063f916c798146106ff578063fb918fe314610733578063fe4ee9671461076757600080fd5b8063df0678f614610619578063e070555e14610639578063e2b36dc314610395578063e7ee6ad614610659578063edc2e59d1461067957600080fd5b8063c6bbd5a7116100f2578063c6bbd5a71461057d578063d17476fe146105b1578063d389800f146105d1578063d4e8be83146105d9578063d61a47f1146105f957600080fd5b806398eb4f21146104fd578063a0712d681461051d578063b42652e91461053d578063b72a6e3f1461055d57600080fd5b806334677c7a116101b15780633e032a3b116101755780633e032a3b1461045057806342966c68146104665780634d6446d9146104865780636bb6126e146104a65780636f28d688146104d657600080fd5b806334677c7a1461039557806338d52e0f146103c55780633a98ef39146103ea5780633bbd64bc146104005780633d4403ac1461043057600080fd5b8063151fc7a7116101f8578063151fc7a7146102e857806317d70f7c146102fd5780631f9e32c21461032157806323cadd341461035557806329ae81141461037557600080fd5b806306fdde031461022a5780630828862d146102555780630c9023821461028d578063150b7a02146102af575b600080fd5b34801561023657600080fd5b5061023f61078d565b60405161024c9190614ac8565b60405180910390f35b34801561026157600080fd5b50600954610275906001600160a01b031681565b6040516001600160a01b03909116815260200161024c565b34801561029957600080fd5b506102ad6102a8366004614adb565b61081b565b005b3480156102bb57600080fd5b506102cf6102ca366004614b52565b6108c8565b6040516001600160e01b0319909116815260200161024c565b3480156102f457600080fd5b5061023f610903565b34801561030957600080fd5b50610313600b5481565b60405190815260200161024c565b34801561032d57600080fd5b506102757f000000000000000000000000000000000000000000000000000000000000000081565b34801561036157600080fd5b506102ad610370366004614bc5565b610910565b34801561038157600080fd5b506102ad610390366004614be2565b610b03565b3480156103a157600080fd5b506103b56103b0366004614c04565b610bfa565b604051901515815260200161024c565b3480156103d157600080fd5b506003546102759061010090046001600160a01b031681565b3480156103f657600080fd5b5061031360015481565b34801561040c57600080fd5b506103b561041b366004614bc5565b60066020526000908152604090205460ff1681565b34801561043c57600080fd5b50600854610275906001600160a01b031681565b34801561045c57600080fd5b5061031360025481565b34801561047257600080fd5b50610313610481366004614adb565b610c04565b34801561049257600080fd5b50600a54610275906001600160a01b031681565b3480156104b257600080fd5b506103b56104c1366004614bc5565b60056020526000908152604090205460ff1681565b3480156104e257600080fd5b50600c5461027590600160201b90046001600160a01b031681565b34801561050957600080fd5b506102ad610518366004614c39565b6112d8565b34801561052957600080fd5b50610313610538366004614adb565b611319565b34801561054957600080fd5b506102ad610558366004614bc5565b61199a565b34801561056957600080fd5b5061023f610578366004614c7b565b611a7f565b34801561058957600080fd5b506102757f000000000000000000000000000000000000000000000000000000000000000081565b3480156105bd57600080fd5b506102ad6105cc366004614bc5565b611c8d565b6102ad611de3565b3480156105e557600080fd5b506102ad6105f4366004614c7b565b612926565b34801561060557600080fd5b50600d54610275906001600160a01b031681565b34801561062557600080fd5b50600e54610275906001600160a01b031681565b34801561064557600080fd5b50600454610275906001600160a01b031681565b34801561066557600080fd5b50610313610674366004614adb565b612ab0565b34801561068557600080fd5b506102ad610694366004614be2565b612ad7565b3480156106a557600080fd5b50600c546106b69063ffffffff1681565b60405163ffffffff909116815260200161024c565b3480156106d757600080fd5b506102757f000000000000000000000000000000000000000000000000000000000000000081565b34801561070b57600080fd5b506102757f000000000000000000000000000000000000000000000000000000000000000081565b34801561073f57600080fd5b506102757f000000000000000000000000000000000000000000000000000000000000000081565b34801561077357600080fd5b506103b5610782366004614cab565b600195945050505050565b6000805461079a90614cfc565b80601f01602080910402602001604051908101604052809291908181526020018280546107c690614cfc565b80156108135780601f106107e857610100808354040283529160200191610813565b820191906000526020600020905b8154815290600101906020018083116107f657829003601f168201915b505050505081565b3360009081526005602052604090205460ff1661084a576040516282b42960e81b815260040160405180910390fd5b60405163aff6cbf160e01b8152600481018290527f00000000000000000000000000000000000000000000000000000000000000006001600160a01b03169063aff6cbf1906024015b600060405180830381600087803b1580156108ad57600080fd5b505af11580156108c1573d6000803e3d6000fd5b5050505050565b6009546000906001600160a01b0316331480156108e55750600b54155b156108f057600b8490555b50630a85bd0160e11b5b95945050505050565b6007805461079a90614cfc565b3360009081526005602052604090205460ff1661093f576040516282b42960e81b815260040160405180910390fd5b806001600160a01b0316630828862d6040518163ffffffff1660e01b8152600401602060405180830381865afa15801561097d573d6000803e3d6000fd5b505050506040513d601f19601f820116820180604052508101906109a19190614d36565b600960006101000a8154816001600160a01b0302191690836001600160a01b03160217905550806001600160a01b0316634d6446d96040518163ffffffff1660e01b8152600401602060405180830381865afa158015610a05573d6000803e3d6000fd5b505050506040513d601f19601f82011682018060405250810190610a299190614d36565b600a60006101000a8154816001600160a01b0302191690836001600160a01b03160217905550806001600160a01b03166317d70f7c6040518163ffffffff1660e01b8152600401602060405180830381865afa158015610a8d573d6000803e3d6000fd5b505050506040513d601f19601f82011682018060405250810190610ab19190614d53565b600b55600a546001600160a01b031615610b0057600954600a54600b54604051635c46a7ef60e11b81526001600160a01b039384169363b88d4fde936108939330939290911691600401614d6c565b50565b3360009081526005602052604090205460ff16610b32576040516282b42960e81b815260040160405180910390fd5b8167736c69707061676560c01b03610b4e576002819055610bbc565b81691d1dd85c14195c9a5bd960b21b03610ba357637fffffff811115610b875760405163a8d55f1f60e01b815260040160405180910390fd5b600c805463ffffffff19811663ffffffff909116179055610bbc565b6040516302bfa98160e41b815260040160405180910390fd5b817fe986e40cc8c151830d4f61050f4fb2e4add8567caad2d5f5496f9158e91fe4c782604051610bee91815260200190565b60405180910390a25050565b60015b9392505050565b3360009081526005602052604081205460ff16610c33576040516282b42960e81b815260040160405180910390fd5b60035460ff1615610c575760405163cbece43f60e01b815260040160405180910390fd5b6003805460ff191660011790556000610c6e612b8b565b905060006001548285610c819190614db5565b610c8b9190614de2565b905060008282610c99612c1e565b610ca39190614db5565b610cad9190614de2565b9050610cb88261352b565b6000807f00000000000000000000000000000000000000000000000000000000000000006001600160a01b031663a8559872853030604051806080016040528060008152602001600081526020016000815260200160008152506040518563ffffffff1660e01b8152600401610d319493929190614e1f565b60408051808303816000875af1158015610d4f573d6000803e3d6000fd5b505050506040513d601f19601f82011682018060405250810190610d739190614e4a565b915091506000600460009054906101000a90046001600160a01b031690507f00000000000000000000000000000000000000000000000000000000000000006001600160a01b0316630dfe16816040518163ffffffff1660e01b8152600401602060405180830381865afa158015610def573d6000803e3d6000fd5b505050506040513d601f19601f82011682018060405250810190610e139190614d36565b6001600160a01b031663095ea7b382856040518363ffffffff1660e01b8152600401610e40929190614e6e565b600060405180830381600087803b158015610e5a57600080fd5b505af1158015610e6e573d6000803e3d6000fd5b505050507f00000000000000000000000000000000000000000000000000000000000000006001600160a01b031663d21220a76040518163ffffffff1660e01b8152600401602060405180830381865afa158015610ed0573d6000803e3d6000fd5b505050506040513d601f19601f82011682018060405250810190610ef49190614d36565b6001600160a01b031663095ea7b382846040518363ffffffff1660e01b8152600401610f21929190614e6e565b600060405180830381600087803b158015610f3b57600080fd5b505af1158015610f4f573d6000803e3d6000fd5b505050506000806002549050600460009054906101000a90046001600160a01b03166001600160a01b031663d5bcb9b57f00000000000000000000000000000000000000000000000000000000000000006001600160a01b0316630dfe16816040518163ffffffff1660e01b8152600401602060405180830381865afa158015610fdd573d6000803e3d6000fd5b505050506040513d601f19601f820116820180604052508101906110019190614d36565b60035460405160e084901b6001600160e01b031916815261103a929161010090046001600160a01b0316908a9087903390600401614e87565b6020604051808303816000875af1158015611059573d6000803e3d6000fd5b505050506040513d601f19601f8201168201806040525081019061107d9190614d53565b6110879083614eb7565b9150600460009054906101000a90046001600160a01b03166001600160a01b031663d5bcb9b57f00000000000000000000000000000000000000000000000000000000000000006001600160a01b031663d21220a76040518163ffffffff1660e01b8152600401602060405180830381865afa15801561110b573d6000803e3d6000fd5b505050506040513d601f19601f8201168201806040525081019061112f9190614d36565b60035460405160e084901b6001600160e01b0319168152611168929161010090046001600160a01b031690899087903390600401614e87565b6020604051808303816000875af1158015611187573d6000803e3d6000fd5b505050506040513d601f19601f820116820180604052508101906111ab9190614d53565b6111b59083614eb7565b91506127106111c48282614eca565b6111ce9088614db5565b6111d89190614de2565b60048054600354604051630f8b27d760e01b81526001600160a01b0392831693630f8b27d7936112119361010090041691889101614e6e565b602060405180830381865afa15801561122e573d6000803e3d6000fd5b505050506040513d601f19601f820116820180604052508101906112529190614d53565b1015611271576040516327a62cad60e21b815260040160405180910390fd5b89600160008282546112839190614eca565b909155505060408051838152602081018c90527f410c5c259085cde81fedf70c1aa308ec839373c26e9b7ada6560a2aca0254eb6910160405180910390a1506003805460ff1916905598975050505050505050565b3360009081526005602052604090205460ff16611307576040516282b42960e81b815260040160405180910390fd5b6007611314828483614f39565b505050565b3360009081526005602052604081205460ff16611348576040516282b42960e81b815260040160405180910390fd5b60035460ff161561136c5760405163cbece43f60e01b815260040160405180910390fd5b60038054600160ff1990911617908190556040516323b872dd60e01b8152336004820152306024820152604481018490526101009091046001600160a01b0316906323b872dd90606401600060405180830381600087803b1580156113d057600080fd5b505af11580156113e4573d6000803e3d6000fd5b50506008546002546001600160a01b03909116925090506000611405612b8b565b6003546004805460405163095ea7b360e01b81529394506001600160a01b0361010090930483169363095ea7b393611442939216918a9101614e6e565b600060405180830381600087803b15801561145c57600080fd5b505af1158015611470573d6000803e3d6000fd5b50506004805460035460405163d5bcb9b560e01b81526001600160a01b03928316955063d5bcb9b594506114b6936101009092049092169188918b918991309101614e87565b6020604051808303816000875af11580156114d5573d6000803e3d6000fd5b505050506040513d601f19601f820116820180604052508101906114f99190614d53565b506040516370a0823160e01b815230600482015260009081906001600160a01b038616906370a0823190602401602060405180830381865afa158015611543573d6000803e3d6000fd5b505050506040513d601f19601f820116820180604052508101906115679190614d53565b9050600080611577878488613660565b9150915060007f000000000000000000000000000000000000000000000000000000000000000090507f00000000000000000000000000000000000000000000000000000000000000006001600160a01b0316630dfe16816040518163ffffffff1660e01b8152600401602060405180830381865afa1580156115fe573d6000803e3d6000fd5b505050506040513d601f19601f820116820180604052508101906116229190614d36565b6001600160a01b031663095ea7b382856040518363ffffffff1660e01b815260040161164f929190614e6e565b600060405180830381600087803b15801561166957600080fd5b505af115801561167d573d6000803e3d6000fd5b505050507f00000000000000000000000000000000000000000000000000000000000000006001600160a01b031663d21220a76040518163ffffffff1660e01b8152600401602060405180830381865afa1580156116df573d6000803e3d6000fd5b505050506040513d601f19601f820116820180604052508101906117039190614d36565b6001600160a01b031663095ea7b382846040518363ffffffff1660e01b8152600401611730929190614e6e565b600060405180830381600087803b15801561174a57600080fd5b505af115801561175e573d6000803e3d6000fd5b5050604080516080810182526000808252602082018190528183018190526060820152905163238f24b960e21b81526001600160a01b037f0000000000000000000000000000000000000000000000000000000000000000169350638e3c92e492506117d591879187913091889190600401614ff9565b6020604051808303816000875af11580156117f4573d6000803e3d6000fd5b505050506040513d601f19601f820116820180604052508101906118189190614d53565b945061182385613c2a565b505050506000611831612b8b565b8261183a612c1e565b6118449190614db5565b61184e9190614de2565b905061271061185d8582614eca565b60048054600354604051630f8b27d760e01b81526001600160a01b0392831693630f8b27d79361189693610100900416918e9101614e6e565b602060405180830381865afa1580156118b3573d6000803e3d6000fd5b505050506040513d601f19601f820116820180604052508101906118d79190614d53565b6118e19190614db5565b6118eb9190614de2565b81101561190b576040516327a62cad60e21b815260040160405180910390fd5b600083156119315783600154846119229190614db5565b61192c9190614de2565b611933565b825b905080600160008282546119479190614eb7565b909155505060408051898152602081018390527fcc9c58b575eabd3f6a1ee653e91fcea3ff546867ffc3782a3bbca1f9b6dbb8df910160405180910390a16003805460ff19169055979650505050505050565b3360009081526005602052604090205460ff166119c9576040516282b42960e81b815260040160405180910390fd5b600b5415610b0057600a546001600160a01b031615611a4a57600a54600b54604051632e1a7d4d60e01b81526001600160a01b0390921691632e1a7d4d91611a179160040190815260200190565b600060405180830381600087803b158015611a3157600080fd5b505af1158015611a45573d6000803e3d6000fd5b505050505b600954600b54604051635c46a7ef60e11b81526001600160a01b039092169163b88d4fde916108939130918691600401614d6c565b3360009081526005602052604090205460609060ff16611ab1576040516282b42960e81b815260040160405180910390fd5b60035460ff1615611ad55760405163cbece43f60e01b815260040160405180910390fd5b6003805460ff1916600190811790915554600090611af1612b8b565b611afb9086614db5565b611b059190614de2565b9050611b108161352b565b60405163a9059cbb60e01b81526001600160a01b037f0000000000000000000000000000000000000000000000000000000000000000169063a9059cbb90611b5e9086908590600401614e6e565b600060405180830381600087803b158015611b7857600080fd5b505af1158015611b8c573d6000803e3d6000fd5b505050508360016000828254611ba29190614eca565b909155505060408051828152602081018690527f622e2307f13a1f8b5f4747071048478ab949ebea33d6bfdecc6018530ff22857910160405180910390a1604080516001808252818301909252600091602080830190803683370190505090507f000000000000000000000000000000000000000000000000000000000000000081600081518110611c3657611c36615036565b6001600160a01b03909216602092830291909101820152604051611c6a916863616d656c6f74763360b81b9184910161504c565b604051602081830303815290604052925050506003805460ff1916905592915050565b3360009081526005602052604090205460ff16611cbc576040516282b42960e81b815260040160405180910390fd5b600b54600003611cdf5760405163446aa49b60e01b815260040160405180910390fd5b6001600160a01b038116611d5957600a54600b54604051632e1a7d4d60e01b81526001600160a01b0390921691632e1a7d4d91611d229160040190815260200190565b600060405180830381600087803b158015611d3c57600080fd5b505af1158015611d50573d6000803e3d6000fd5b50505050611dc1565b600954600b54604051635c46a7ef60e11b81526001600160a01b039092169163b88d4fde91611d8e9130918691600401614d6c565b600060405180830381600087803b158015611da857600080fd5b505af1158015611dbc573d6000803e3d6000fd5b505050505b600a80546001600160a01b0319166001600160a01b0392909216919091179055565b60035460ff1615611e075760405163cbece43f60e01b815260040160405180910390fd5b6003805460ff191660011790553360009081526006602052604090205460ff16611e4457604051631ea2564f60e31b815260040160405180910390fd5b6000611e51600154612ab0565b9050600b54600003611e63575061291a565b600254600854600954600b5460405163107c74a760e11b815260048101919091526001600160a01b0392831692909116906320f8e94e90602401600060405180830381600087803b158015611eb757600080fd5b505af1158015611ecb573d6000803e3d6000fd5b5050600a546001600160a01b0316159150611f4b905057600a60009054906101000a90046001600160a01b03166001600160a01b0316634641257d6040518163ffffffff1660e01b8152600401600060405180830381600087803b158015611f3257600080fd5b505af1158015611f46573d6000803e3d6000fd5b505050505b600c54600160201b90046001600160a01b03161561216057600c546040516370a0823160e01b8152306004820152600091600160201b90046001600160a01b0316906370a0823190602401602060405180830381865afa158015611fb3573d6000803e3d6000fd5b505050506040513d601f19601f82011682018060405250810190611fd79190614d53565b60048054600c54604051630f8b27d760e01b8152939450670de0b6b3a7640000936001600160a01b0392831693630f8b27d79361201f93600160201b90041691879101614e6e565b602060405180830381865afa15801561203c573d6000803e3d6000fd5b505050506040513d601f19601f820116820180604052508101906120609190614d53565b111561215e57600c546004805460405163095ea7b360e01b81526001600160a01b03600160201b90940484169363095ea7b3936120a39390911691869101614e6e565b600060405180830381600087803b1580156120bd57600080fd5b505af11580156120d1573d6000803e3d6000fd5b505060048054600c5460405163d5bcb9b560e01b81526001600160a01b03928316955063d5bcb9b5945061211993600160201b90920490921691879187918a91309101614e87565b6020604051808303816000875af1158015612138573d6000803e3d6000fd5b505050506040513d601f19601f8201168201806040525081019061215c9190614d53565b505b505b600d546001600160a01b03161561235257600d546040516370a0823160e01b81523060048201526000916001600160a01b0316906370a0823190602401602060405180830381865afa1580156121ba573d6000803e3d6000fd5b505050506040513d601f19601f820116820180604052508101906121de9190614d53565b60048054600d54604051630f8b27d760e01b8152939450670de0b6b3a7640000936001600160a01b0392831693630f8b27d79361221f931691879101614e6e565b602060405180830381865afa15801561223c573d6000803e3d6000fd5b505050506040513d601f19601f820116820180604052508101906122609190614d53565b111561235057600d546004805460405163095ea7b360e01b81526001600160a01b039384169363095ea7b39361229c9390911691869101614e6e565b600060405180830381600087803b1580156122b657600080fd5b505af11580156122ca573d6000803e3d6000fd5b505060048054600d5460405163d5bcb9b560e01b81526001600160a01b03928316955063d5bcb9b5945061230b939190921691879187918a91309101614e87565b6020604051808303816000875af115801561232a573d6000803e3d6000fd5b505050506040513d601f19601f8201168201806040525081019061234e9190614d53565b505b505b600e546001600160a01b03161561254457600e546040516370a0823160e01b81523060048201526000916001600160a01b0316906370a0823190602401602060405180830381865afa1580156123ac573d6000803e3d6000fd5b505050506040513d601f19601f820116820180604052508101906123d09190614d53565b60048054600e54604051630f8b27d760e01b8152939450670de0b6b3a7640000936001600160a01b0392831693630f8b27d793612411931691879101614e6e565b602060405180830381865afa15801561242e573d6000803e3d6000fd5b505050506040513d601f19601f820116820180604052508101906124529190614d53565b111561254257600e546004805460405163095ea7b360e01b81526001600160a01b039384169363095ea7b39361248e9390911691869101614e6e565b600060405180830381600087803b1580156124a857600080fd5b505af11580156124bc573d6000803e3d6000fd5b505060048054600e5460405163d5bcb9b560e01b81526001600160a01b03928316955063d5bcb9b594506124fd939190921691879187918a91309101614e87565b6020604051808303816000875af115801561251c573d6000803e3d6000fd5b505050506040513d601f19601f820116820180604052508101906125409190614d53565b505b505b6040516370a0823160e01b81523060048201526000906001600160a01b038316906370a0823190602401602060405180830381865afa15801561258b573d6000803e3d6000fd5b505050506040513d601f19601f820116820180604052508101906125af9190614d53565b60048054604051630f8b27d760e01b8152929350670de0b6b3a7640000926001600160a01b0390911691630f8b27d7916125ed918791879101614e6e565b602060405180830381865afa15801561260a573d6000803e3d6000fd5b505050506040513d601f19601f8201168201806040525081019061262e9190614d53565b101561263d575050505061291a565b60008061264b848487613660565b9150915060007f00000000000000000000000000000000000000000000000000000000000000009050806001600160a01b0316630dfe16816040518163ffffffff1660e01b8152600401602060405180830381865afa1580156126b2573d6000803e3d6000fd5b505050506040513d601f19601f820116820180604052508101906126d69190614d36565b6001600160a01b031663095ea7b382856040518363ffffffff1660e01b8152600401612703929190614e6e565b600060405180830381600087803b15801561271d57600080fd5b505af1158015612731573d6000803e3d6000fd5b50505050806001600160a01b031663d21220a76040518163ffffffff1660e01b8152600401602060405180830381865afa158015612773573d6000803e3d6000fd5b505050506040513d601f19601f820116820180604052508101906127979190614d36565b6001600160a01b031663095ea7b382846040518363ffffffff1660e01b81526004016127c4929190614e6e565b600060405180830381600087803b1580156127de57600080fd5b505af11580156127f2573d6000803e3d6000fd5b5050604080516080810182526000808252602082018190528183018190526060820152905163238f24b960e21b81526128b493506001600160a01b037f0000000000000000000000000000000000000000000000000000000000000000169250638e3c92e49161286c918891889130918991600401614ff9565b6020604051808303816000875af115801561288b573d6000803e3d6000fd5b505050506040513d601f19601f820116820180604052508101906128af9190614d53565b613c2a565b60006128c1600154612ab0565b90507f5850d758e6151f474c145f4f59e8cb315c3f1a9fe82d96dff5bd2d48b5a76f9b816128ef838b613d52565b6128f99084614eca565b6040805192835260208301919091520160405180910390a150505050505050505b6003805460ff19169055565b3360009081526005602052604090205460ff16612955576040516282b42960e81b815260040160405180910390fd5b81636578656360e01b03612990576001600160a01b0381166000908152600560205260409020805460ff19811660ff90911615179055612a75565b816535b2b2b832b960d11b036129cd576001600160a01b0381166000908152600660205260409020805460ff19811660ff90911615179055612a75565b816b726577617264546f6b656e3160a01b03612a0d57600c8054640100000000600160c01b031916600160201b6001600160a01b03841602179055612a75565b816b3932bbb0b9322a37b5b2b71960a11b03612a4357600d80546001600160a01b0319166001600160a01b038316179055612a75565b816b726577617264546f6b656e3360a01b03610ba357600e80546001600160a01b0319166001600160a01b0383161790555b6040516001600160a01b038216815282907f8fef588b5fc1afbf5b2f06c1a435d513f208da2e6704c3d8f0e0ec91167066ba90602001610bee565b6000600154612abd612c1e565b612ac79084614db5565b612ad19190614de2565b92915050565b3360009081526005602052604090205460ff16612b06576040516282b42960e81b815260040160405180910390fd5b604051637cbc237360e01b815260048101839052602481018290527f00000000000000000000000000000000000000000000000000000000000000006001600160a01b031690637cbc237390604401600060405180830381600087803b158015612b6f57600080fd5b505af1158015612b83573d6000803e3d6000fd5b505050505050565b6000600b54600003612b9d5750600090565b600954600b546040516308521f7960e01b815260048101919091526000916001600160a01b0316906308521f799060240161010060405180830381865afa158015612bec573d6000803e3d6000fd5b505050506040513d601f19601f82011682018060405250810190612c1091906150a3565b509598975050505050505050565b600c5460408051600280825260608201835260009363ffffffff1692849291906020830190803683370190505090508181600081518110612c6157612c61615036565b602002602001019063ffffffff16908163ffffffff1681525050600081600181518110612c9057612c90615036565b602002602001019063ffffffff16908163ffffffff168152505060007f00000000000000000000000000000000000000000000000000000000000000006001600160a01b03166316f0115b6040518163ffffffff1660e01b8152600401602060405180830381865afa158015612d0a573d6000803e3d6000fd5b505050506040513d601f19601f82011682018060405250810190612d2e9190614d36565b6001600160a01b0316639d3a5241836040518263ffffffff1660e01b8152600401612d599190615100565b600060405180830381865afa158015612d76573d6000803e3d6000fd5b505050506040513d6000823e601f3d908101601f19168201604052612d9e91908101906152e6565b50505090506000612dfb8460030b83600081518110612dbf57612dbf615036565b602002602001015184600181518110612dda57612dda615036565b6020026020010151612dec91906153fb565b612df69190615428565b613d68565b9050600080612f0d837f00000000000000000000000000000000000000000000000000000000000000006001600160a01b031663fa0827436040518163ffffffff1660e01b8152600401602060405180830381865afa158015612e62573d6000803e3d6000fd5b505050506040513d601f19601f82011682018060405250810190612e869190615466565b7f00000000000000000000000000000000000000000000000000000000000000006001600160a01b031663888a91346040518163ffffffff1660e01b8152600401602060405180830381865afa158015612ee4573d6000803e3d6000fd5b505050506040513d601f19601f82011682018060405250810190612f089190615466565b61408a565b91509150600080612ff8857f00000000000000000000000000000000000000000000000000000000000000006001600160a01b03166351e87af76040518163ffffffff1660e01b8152600401602060405180830381865afa158015612f76573d6000803e3d6000fd5b505050506040513d601f19601f82011682018060405250810190612f9a9190615466565b7f00000000000000000000000000000000000000000000000000000000000000006001600160a01b0316630f35bcac6040518163ffffffff1660e01b8152600401602060405180830381865afa158015612ee4573d6000803e3d6000fd5b915091506000600460009054906101000a90046001600160a01b03166001600160a01b0316630f8b27d77f00000000000000000000000000000000000000000000000000000000000000006001600160a01b0316630dfe16816040518163ffffffff1660e01b8152600401602060405180830381865afa158015613080573d6000803e3d6000fd5b505050506040513d601f19601f820116820180604052508101906130a49190614d36565b7f00000000000000000000000000000000000000000000000000000000000000006001600160a01b0316630dfe16816040518163ffffffff1660e01b8152600401602060405180830381865afa158015613102573d6000803e3d6000fd5b505050506040513d601f19601f820116820180604052508101906131269190614d36565b6040516370a0823160e01b81526001600160a01b037f00000000000000000000000000000000000000000000000000000000000000008116600483015291909116906370a0823190602401602060405180830381865afa15801561318e573d6000803e3d6000fd5b505050506040513d601f19601f820116820180604052508101906131b29190614d53565b6131bc878a614eb7565b6131c69190614eb7565b6040518363ffffffff1660e01b81526004016131e3929190614e6e565b602060405180830381865afa158015613200573d6000803e3d6000fd5b505050506040513d601f19601f820116820180604052508101906132249190614d53565b90506000600460009054906101000a90046001600160a01b03166001600160a01b0316630f8b27d77f00000000000000000000000000000000000000000000000000000000000000006001600160a01b031663d21220a76040518163ffffffff1660e01b8152600401602060405180830381865afa1580156132aa573d6000803e3d6000fd5b505050506040513d601f19601f820116820180604052508101906132ce9190614d36565b7f00000000000000000000000000000000000000000000000000000000000000006001600160a01b031663d21220a76040518163ffffffff1660e01b8152600401602060405180830381865afa15801561332c573d6000803e3d6000fd5b505050506040513d601f19601f820116820180604052508101906133509190614d36565b6040516370a0823160e01b81526001600160a01b037f00000000000000000000000000000000000000000000000000000000000000008116600483015291909116906370a0823190602401602060405180830381865afa1580156133b8573d6000803e3d6000fd5b505050506040513d601f19601f820116820180604052508101906133dc9190614d53565b6133e6878a614eb7565b6133f09190614eb7565b6040518363ffffffff1660e01b815260040161340d929190614e6e565b602060405180830381865afa15801561342a573d6000803e3d6000fd5b505050506040513d601f19601f8201168201806040525081019061344e9190614d53565b9050600061345a612b8b565b905060007f00000000000000000000000000000000000000000000000000000000000000006001600160a01b03166318160ddd6040518163ffffffff1660e01b8152600401602060405180830381865afa1580156134bc573d6000803e3d6000fd5b505050506040513d601f19601f820116820180604052508101906134e09190614d53565b9050806134ed8386614db5565b6134f79190614de2565b9350806135048385614db5565b61350e9190614de2565b925061351a8385614eb7565b9c5050505050505050505050505090565b600a546001600160a01b0316156135a457600a54600b54604051632e1a7d4d60e01b81526001600160a01b0390921691632e1a7d4d916135719160040190815260200190565b600060405180830381600087803b15801561358b57600080fd5b505af115801561359f573d6000803e3d6000fd5b505050505b600954600b54604051633cb85acf60e21b81526001600160a01b039092169163f2e16b3c916135e0918590600401918252602082015260400190565b600060405180830381600087803b1580156135fa57600080fd5b505af115801561360e573d6000803e3d6000fd5b5050600a546001600160a01b0316159150610b00905057600954600a54600b54604051635c46a7ef60e11b81526001600160a01b039384169363b88d4fde936108939330939290911691600401614d6c565b60008060006007805461367290614cfc565b80601f016020809104026020016040519081016040528092919081815260200182805461369e90614cfc565b80156136eb5780601f106136c0576101008083540402835291602001916136eb565b820191906000526020600020905b8154815290600101906020018083116136ce57829003601f168201915b50505050509050600080613700878985614225565b9150915060007f00000000000000000000000000000000000000000000000000000000000000006001600160a01b0316630dfe16816040518163ffffffff1660e01b8152600401602060405180830381865afa158015613764573d6000803e3d6000fd5b505050506040513d601f19601f820116820180604052508101906137889190614d36565b9050806001600160a01b0316896001600160a01b031603613a235760007f00000000000000000000000000000000000000000000000000000000000000006001600160a01b031663d21220a76040518163ffffffff1660e01b8152600401602060405180830381865afa158015613803573d6000803e3d6000fd5b505050506040513d601f19601f820116820180604052508101906138279190614d36565b6040516370a0823160e01b81523060048201526001600160a01b0391909116906370a0823190602401602060405180830381865afa15801561386d573d6000803e3d6000fd5b505050506040513d601f19601f820116820180604052508101906138919190614d53565b90506139218a7f00000000000000000000000000000000000000000000000000000000000000006001600160a01b031663d21220a76040518163ffffffff1660e01b8152600401602060405180830381865afa1580156138f5573d6000803e3d6000fd5b505050506040513d601f19601f820116820180604052508101906139199190614d36565b87868c6146c7565b839650807f00000000000000000000000000000000000000000000000000000000000000006001600160a01b031663d21220a76040518163ffffffff1660e01b8152600401602060405180830381865afa158015613983573d6000803e3d6000fd5b505050506040513d601f19601f820116820180604052508101906139a79190614d36565b6040516370a0823160e01b81523060048201526001600160a01b0391909116906370a0823190602401602060405180830381865afa1580156139ed573d6000803e3d6000fd5b505050506040513d601f19601f82011682018060405250810190613a119190614d53565b613a1b9190614eca565b955050613c1e565b60007f00000000000000000000000000000000000000000000000000000000000000006001600160a01b0316630dfe16816040518163ffffffff1660e01b8152600401602060405180830381865afa158015613a83573d6000803e3d6000fd5b505050506040513d601f19601f82011682018060405250810190613aa79190614d36565b6040516370a0823160e01b81523060048201526001600160a01b0391909116906370a0823190602401602060405180830381865afa158015613aed573d6000803e3d6000fd5b505050506040513d601f19601f82011682018060405250810190613b119190614d53565b9050613b208a8387878c6146c7565b807f00000000000000000000000000000000000000000000000000000000000000006001600160a01b0316630dfe16816040518163ffffffff1660e01b8152600401602060405180830381865afa158015613b7f573d6000803e3d6000fd5b505050506040513d601f19601f82011682018060405250810190613ba39190614d36565b6040516370a0823160e01b81523060048201526001600160a01b0391909116906370a0823190602401602060405180830381865afa158015613be9573d6000803e3d6000fd5b505050506040513d601f19601f82011682018060405250810190613c0d9190614d53565b613c179190614eca565b9650829550505b50505050935093915050565b60095460405163095ea7b360e01b81526001600160a01b037f000000000000000000000000000000000000000000000000000000000000000081169263095ea7b392613c7f9291909116908590600401614e6e565b600060405180830381600087803b158015613c9957600080fd5b505af1158015613cad573d6000803e3d6000fd5b50505050600b54600014158015613ccb57506000613cc9612b8b565b115b15613d0c57600954600b5460405163162a176f60e11b81526001600160a01b0390921691632c542ede91610893918590600401918252602082015260400190565b600b5415613d1a576000600b555b60095460405163d1aaef0560e01b815260048101839052600060248201526001600160a01b039091169063d1aaef0590604401610893565b6000818310613d615781610bfd565b5090919050565b60008060008360020b12613d7f578260020b613d87565b8260020b6000035b9050620d89e8811115613dad576040516315e4079d60e11b815260040160405180910390fd5b600081600116600003613dc457600160801b613dd6565b6ffffcb933bd6fad37aa2d162d1a5940015b70ffffffffffffffffffffffffffffffffff1690506002821615613e0a576ffff97272373d413259a46990580e213a0260801c5b6004821615613e29576ffff2e50f5f656932ef12357cf3c7fdcc0260801c5b6008821615613e48576fffe5caca7e10e4e61c3624eaa0941cd00260801c5b6010821615613e67576fffcb9843d60f6159c9db58835c9266440260801c5b6020821615613e86576fff973b41fa98c081472e6896dfb254c00260801c5b6040821615613ea5576fff2ea16466c96a3843ec78b326b528610260801c5b6080821615613ec4576ffe5dee046a99a2a811c461f1969c30530260801c5b610100821615613ee4576ffcbe86c7900a88aedcffc83b479aa3a40260801c5b610200821615613f04576ff987a7253ac413176f2b074cf7815e540260801c5b610400821615613f24576ff3392b0822b70005940c7a398e4b70f30260801c5b610800821615613f44576fe7159475a2c29b7443b29c7fa6e889d90260801c5b611000821615613f64576fd097f3bdfd2022b8845ad8f792aa58250260801c5b612000821615613f84576fa9f746462d870fdf8a65dc1f90e061e50260801c5b614000821615613fa4576f70d869a156d2a1b890bb3df62baf32f70260801c5b618000821615613fc4576f31be135f97d08fd981231505542fcfa60260801c5b62010000821615613fe5576f09aa508b5b7a84e1c677de54f3e99bc90260801c5b62020000821615614005576e5d6af8dedb81196699c329225ee6040260801c5b62040000821615614024576d2216e584f5fa1ea926041bedfe980260801c5b62080000821615614041576b048a170391f7dc42444e8fa20260801c5b60008460020b131561406257806000198161405e5761405e614dcc565b0490505b600160201b810615614075576001614078565b60005b60ff16602082901c0192505050919050565b6000806000807f0000000000000000000000000000000000000000000000000000000000000000905062ffffff851662ffffff87168260181b1760181b17915060008060007f00000000000000000000000000000000000000000000000000000000000000006001600160a01b03166316f0115b6040518163ffffffff1660e01b8152600401602060405180830381865afa15801561412d573d6000803e3d6000fd5b505050506040513d601f19601f820116820180604052508101906141519190614d36565b6001600160a01b031663514ea4bf866040518263ffffffff1660e01b815260040161417e91815260200190565b60c060405180830381865afa15801561419b573d6000803e3d6000fd5b505050506040513d601f19601f820116820180604052508101906141bf91906154a5565b9550955050505092506000806141e78c6141d88d613d68565b6141e18d613d68565b8861487a565b90925090506141ff6001600160801b03851683614eb7565b6142126001600160801b03851683614eb7565b9850985050505050505050935093915050565b60008080614234600287614de2565b905060006142428288614eca565b90506000829050600082905060007f00000000000000000000000000000000000000000000000000000000000000006001600160a01b0316630dfe16816040518163ffffffff1660e01b8152600401602060405180830381865afa1580156142ae573d6000803e3d6000fd5b505050506040513d601f19601f820116820180604052508101906142d29190614d36565b6001600160a01b0316896001600160a01b0316036142ff5760405180602001604052806000815250614301565b875b905060007f00000000000000000000000000000000000000000000000000000000000000006001600160a01b031663d21220a76040518163ffffffff1660e01b8152600401602060405180830381865afa158015614363573d6000803e3d6000fd5b505050506040513d601f19601f820116820180604052508101906143879190614d36565b6001600160a01b03168a6001600160a01b0316036143b457604051806020016040528060008152506143b6565b885b8251909150156144545760405163cdca175360e01b81526001600160a01b037f0000000000000000000000000000000000000000000000000000000000000000169063cdca17539061440e9085908a90600401615517565b6020604051808303816000875af115801561442d573d6000803e3d6000fd5b505050506040513d601f19601f820116820180604052508101906144519190614d53565b93505b8051156144ef5760405163cdca175360e01b81526001600160a01b037f0000000000000000000000000000000000000000000000000000000000000000169063cdca1753906144a99084908990600401615517565b6020604051808303816000875af11580156144c8573d6000803e3d6000fd5b505050506040513d601f19601f820116820180604052508101906144ec9190614d53565b92505b6000807f00000000000000000000000000000000000000000000000000000000000000006001600160a01b0316635ccfb71d7f00000000000000000000000000000000000000000000000000000000000000007f00000000000000000000000000000000000000000000000000000000000000006001600160a01b0316630dfe16816040518163ffffffff1660e01b8152600401602060405180830381865afa1580156145a0573d6000803e3d6000fd5b505050506040513d601f19601f820116820180604052508101906145c49190614d36565b6040516001600160e01b031960e085901b1681526001600160a01b03928316600482015291166024820152604481018990526064016040805180830381865afa158015614615573d6000803e3d6000fd5b505050506040513d601f19601f820116820180604052508101906146399190614e4a565b9092509050600085600261464d8486614eb7565b6146579190614de2565b61466990670de0b6b3a7640000614db5565b6146739190614de2565b61468590670de0b6b3a7640000614eb7565b6146978f670de0b6b3a7640000614db5565b6146a19190614de2565b90506000818f6146b19190614eca565b919f919e50909c50505050505050505050505050565b60006127106146d68382614eca565b6004805460405163248391ff60e01b81526001600160a01b038b81169382019390935289831660248201526044810188905291169063248391ff90606401602060405180830381865afa158015614731573d6000803e3d6000fd5b505050506040513d601f19601f820116820180604052508101906147559190614d53565b61475f9190614db5565b6147699190614de2565b60405163a9059cbb60e01b81529091506001600160a01b0387169063a9059cbb906147ba907f0000000000000000000000000000000000000000000000000000000000000000908790600401614e6e565b600060405180830381600087803b1580156147d457600080fd5b505af11580156147e8573d6000803e3d6000fd5b5050604051631f19e6af60e01b81526001600160a01b037f0000000000000000000000000000000000000000000000000000000000000000169250631f19e6af91506148409089908890889087903090600401615539565b600060405180830381600087803b15801561485a57600080fd5b505af115801561486e573d6000803e3d6000fd5b50505050505050505050565b600080836001600160a01b0316856001600160a01b0316111561489b579293925b846001600160a01b0316866001600160a01b0316116148c6576148bf858585614916565b915061490d565b836001600160a01b0316866001600160a01b031610156148ff576148eb868585614916565b91506148f8858785614985565b905061490d565b61490a858585614985565b90505b94509492505050565b6000826001600160a01b0316846001600160a01b03161115614936579192915b836001600160a01b031661496f606060ff16846001600160801b0316901b8686036001600160a01b0316866001600160a01b03166149d0565b8161497c5761497c614dcc565b04949350505050565b6000826001600160a01b0316846001600160a01b031611156149a5579192915b6149c8826001600160801b03168585036001600160a01b0316600160601b6149d0565b949350505050565b6000808060001985870985870292508281108382030391505080600003614a0957600084116149fe57600080fd5b508290049050610bfd565b808411614a1557600080fd5b6000848688096000868103871696879004966002600389028118808a02820302808a02820302808a02820302808a02820302808a02820302808a02909103029181900381900460010186841190950394909402919094039290920491909117919091029150509392505050565b6000815180845260005b81811015614aa857602081850181015186830182015201614a8c565b506000602082860101526020601f19601f83011685010191505092915050565b602081526000610bfd6020830184614a82565b600060208284031215614aed57600080fd5b5035919050565b6001600160a01b0381168114610b0057600080fd5b60008083601f840112614b1b57600080fd5b50813567ffffffffffffffff811115614b3357600080fd5b602083019150836020828501011115614b4b57600080fd5b9250929050565b600080600080600060808688031215614b6a57600080fd5b8535614b7581614af4565b94506020860135614b8581614af4565b935060408601359250606086013567ffffffffffffffff811115614ba857600080fd5b614bb488828901614b09565b969995985093965092949392505050565b600060208284031215614bd757600080fd5b8135610bfd81614af4565b60008060408385031215614bf557600080fd5b50508035926020909101359150565b600080600060608486031215614c1957600080fd5b8335614c2481614af4565b95602085013595506040909401359392505050565b60008060208385031215614c4c57600080fd5b823567ffffffffffffffff811115614c6357600080fd5b614c6f85828601614b09565b90969095509350505050565b60008060408385031215614c8e57600080fd5b823591506020830135614ca081614af4565b809150509250929050565b600080600080600060a08688031215614cc357600080fd5b8535614cce81614af4565b94506020860135614cde81614af4565b94979496505050506040830135926060810135926080909101359150565b600181811c90821680614d1057607f821691505b602082108103614d3057634e487b7160e01b600052602260045260246000fd5b50919050565b600060208284031215614d4857600080fd5b8151610bfd81614af4565b600060208284031215614d6557600080fd5b5051919050565b6001600160a01b039384168152919092166020820152604081019190915260806060820181905260009082015260a00190565b634e487b7160e01b600052601160045260246000fd5b8082028115828204841417612ad157612ad1614d9f565b634e487b7160e01b600052601260045260246000fd5b600082614df157614df1614dcc565b500490565b8060005b6004811015614e19578151845260209384019390910190600101614dfa565b50505050565b8481526001600160a01b0384811660208301528316604082015260e081016108fa6060830184614df6565b60008060408385031215614e5d57600080fd5b505080516020909101519092909150565b6001600160a01b03929092168252602082015260400190565b6001600160a01b039586168152938516602085015260408401929092526060830152909116608082015260a00190565b80820180821115612ad157612ad1614d9f565b81810381811115612ad157612ad1614d9f565b634e487b7160e01b600052604160045260246000fd5b601f82111561131457600081815260208120601f850160051c81016020861015614f1a5750805b601f850160051c820191505b81811015612b8357828155600101614f26565b67ffffffffffffffff831115614f5157614f51614edd565b614f6583614f5f8354614cfc565b83614ef3565b6000601f841160018114614f995760008515614f815750838201355b600019600387901b1c1916600186901b1783556108c1565b600083815260209020601f19861690835b82811015614fca5786850135825560209485019460019092019101614faa565b5086821015614fe75760001960f88860031b161c19848701351681555b505060018560011b0183555050505050565b858152602081018590526001600160a01b03848116604083015283166060820152610100810161502c6080830184614df6565b9695505050505050565b634e487b7160e01b600052603260045260246000fd5b6000604082018483526020604081850152818551808452606086019150828701935060005b818110156150965784516001600160a01b031683529383019391830191600101615071565b5090979650505050505050565b600080600080600080600080610100898b0312156150c057600080fd5b505086516020880151604089015160608a015160808b015160a08c015160c08d015160e0909d0151959e949d50929b919a50985090965094509092509050565b6020808252825182820181905260009190848201906040850190845b8181101561513e57835163ffffffff168352928401929184019160010161511c565b50909695505050505050565b604051601f8201601f1916810167ffffffffffffffff8111828210171561517357615173614edd565b604052919050565b600067ffffffffffffffff82111561519557615195614edd565b5060051b60200190565b600082601f8301126151b057600080fd5b815160206151c56151c08361517b565b61514a565b82815260059290921b840181019181810190868411156151e457600080fd5b8286015b848110156152085780516151fb81614af4565b83529183019183016151e8565b509695505050505050565b600082601f83011261522457600080fd5b815160206152346151c08361517b565b82815260059290921b8401810191818101908684111561525357600080fd5b8286015b848110156152085780516dffffffffffffffffffffffffffff8116811461527e5760008081fd5b8352918301918301615257565b600082601f83011261529c57600080fd5b815160206152ac6151c08361517b565b82815260059290921b840181019181810190868411156152cb57600080fd5b8286015b8481101561520857805183529183019183016152cf565b600080600080608085870312156152fc57600080fd5b845167ffffffffffffffff8082111561531457600080fd5b818701915087601f83011261532857600080fd5b815160206153386151c08361517b565b82815260059290921b8401810191818101908b84111561535757600080fd5b948201945b838610156153855785518060060b81146153765760008081fd5b8252948201949082019061535c565b918a015191985090935050508082111561539e57600080fd5b6153aa8883890161519f565b945060408701519150808211156153c057600080fd5b6153cc88838901615213565b935060608701519150808211156153e257600080fd5b506153ef8782880161528b565b91505092959194509250565b600682810b9082900b03667fffffffffffff198112667fffffffffffff82131715612ad157612ad1614d9f565b60008160060b8360060b8061543f5761543f614dcc565b667fffffffffffff1982146000198214161561545d5761545d614d9f565b90059392505050565b60006020828403121561547857600080fd5b81518060020b8114610bfd57600080fd5b80516001600160801b03811681146154a057600080fd5b919050565b60008060008060008060c087890312156154be57600080fd5b6154c787615489565b9550602087015163ffffffff811681146154e057600080fd5b60408801516060890151919650945092506154fd60808801615489565b915061550b60a08801615489565b90509295509295509295565b60408152600061552a6040830185614a82565b90508260208301529392505050565b600060018060a01b03808816835260a0602084015261555b60a0840188614a82565b604084019690965260608301949094525091166080909101529291505056fea26469706673582212200e1644a82bd273b47d19ee7a41001640b6083125c59ae46a86a846107243a9ac64736f6c63430008110033","linkReferences":{}},"methodIdentifiers":{"asset()":"38d52e0f","burn(uint256)":"42966c68","earn()":"d389800f","exec(address)":"6bb6126e","exit(address)":"b42652e9","file(bytes32,address)":"d4e8be83","file(bytes32,uint256)":"29ae8114","hypervisor()":"1f9e32c2","keepers(address)":"3bbd64bc","kill(uint256,address)":"b72a6e3f","mint(uint256)":"a0712d68","move(address)":"23cadd34","name()":"06fdde03","nftPool()":"0828862d","nitroPool()":"4d6446d9","onERC721Received(address,address,uint256,bytes)":"150b7a02","onNFTAddToPosition(address,uint256,uint256)":"e2b36dc3","onNFTHarvest(address,address,uint256,uint256,uint256)":"fe4ee967","onNFTWithdraw(address,uint256,uint256)":"34677c7a","pathToLp()":"151fc7a7","quoter()":"c6bbd5a7","rate(uint256)":"e7ee6ad6","rewardToken1()":"6f28d688","rewardToken2()":"d61a47f1","rewardToken3()":"df0678f6","setNitroPool(address)":"d17476fe","setPathToLp(bytes)":"98eb4f21","slippage()":"3e032a3b","strategyHelper()":"e070555e","strategyHelperUniswapV3()":"f6749570","targetAsset()":"3d4403ac","tokenId()":"17d70f7c","totalShares()":"3a98ef39","twapPeriod()":"f6207326","uniProxy()":"fb918fe3","xgrail()":"f916c798","xgrailFinalizeRedeem(uint256)":"0c902382","xgrailRedeem(uint256,uint256)":"edc2e59d"},"id":7}