{"abi":[{"type":"constructor","inputs":[{"name":"_asset","type":"address","internalType":"address"}],"stateMutability":"nonpayable"},{"type":"function","name":"asset","inputs":[],"outputs":[{"name":"","type":"address","internalType":"contract IERC20"}],"stateMutability":"view"},{"type":"function","name":"burn","inputs":[{"name":"strategy","type":"address","internalType":"address"},{"name":"shares","type":"uint256","internalType":"uint256"}],"outputs":[{"name":"","type":"uint256","internalType":"uint256"}],"stateMutability":"nonpayable"},{"type":"function","name":"call","inputs":[{"name":"strategy","type":"address","internalType":"address"},{"name":"value","type":"uint256","internalType":"uint256"},{"name":"data","type":"bytes","internalType":"bytes"}],"outputs":[],"stateMutability":"nonpayable"},{"type":"function","name":"exec","inputs":[{"name":"","type":"address","internalType":"address"}],"outputs":[{"name":"","type":"bool","internalType":"bool"}],"stateMutability":"view"},{"type":"function","name":"file","inputs":[{"name":"what","type":"bytes32","internalType":"bytes32"},{"name":"data","type":"address","internalType":"address"}],"outputs":[],"stateMutability":"nonpayable"},{"type":"function","name":"kill","inputs":[{"name":"strategy","type":"address","internalType":"address"},{"name":"shares","type":"uint256","internalType":"uint256"},{"name":"target","type":"address","internalType":"address"}],"outputs":[{"name":"","type":"bytes","internalType":"bytes"}],"stateMutability":"nonpayable"},{"type":"function","name":"mint","inputs":[{"name":"strategy","type":"address","internalType":"address"},{"name":"amount","type":"uint256","internalType":"uint256"}],"outputs":[{"name":"","type":"uint256","internalType":"uint256"}],"stateMutability":"nonpayable"},{"type":"event","name":"File","inputs":[{"name":"what","type":"bytes32","indexed":true,"internalType":"bytes32"},{"name":"data","type":"address","indexed":false,"internalType":"address"}],"anonymous":false},{"type":"error","name":"InvalidFile","inputs":[]},{"type":"error","name":"Unauthorized","inputs":[]}],"bytecode":{"object":"0x608060405234801561001057600080fd5b5060405161094b38038061094b83398101604081905261002f9161006e565b600080546001600160a01b0319166001600160a01b0392909216919091178155338152600160208190526040909120805460ff1916909117905561009e565b60006020828403121561008057600080fd5b81516001600160a01b038116811461009757600080fd5b9392505050565b61089e806100ad6000396000f3fe608060405234801561001057600080fd5b506004361061007d5760003560e01c80636dbf2fa01161005b5780636dbf2fa0146101065780639dc29fac1461011b578063d4e8be831461012e578063e277cfd61461014157600080fd5b806338d52e0f1461008257806340c10f19146100b25780636bb6126e146100d3575b600080fd5b600054610095906001600160a01b031681565b6040516001600160a01b0390911681526020015b60405180910390f35b6100c56100c03660046105cf565b610161565b6040519081526020016100a9565b6100f66100e13660046105f9565b60016020526000908152604090205460ff1681565b60405190151581526020016100a9565b610119610114366004610614565b61027a565b005b6100c56101293660046105cf565b610322565b61011961013c36600461069b565b61043d565b61015461014f3660046106c7565b610502565b6040516100a99190610727565b3360009081526001602052604081205460ff16610190576040516282b42960e81b815260040160405180910390fd5b60005460405163095ea7b360e01b81526001600160a01b038581166004830152602482018590529091169063095ea7b3906044016020604051808303816000875af11580156101e3573d6000803e3d6000fd5b505050506040513d601f19601f82011682018060405250810190610207919061075a565b5060405163140e25ad60e31b8152600481018390526001600160a01b0384169063a0712d68906024016020604051808303816000875af115801561024f573d6000803e3d6000fd5b505050506040513d601f19601f82011682018060405250810190610273919061077c565b9392505050565b3360009081526001602052604090205460ff166102a9576040516282b42960e81b815260040160405180910390fd5b6000846001600160a01b03168484846040516102c6929190610795565b60006040518083038185875af1925050503d8060008114610303576040519150601f19603f3d011682016040523d82523d6000602084013e610308565b606091505b505090508061031b573d6000803e3d6000fd5b5050505050565b3360009081526001602052604081205460ff16610351576040516282b42960e81b815260040160405180910390fd5b604051630852cd8d60e31b8152600481018390526000906001600160a01b038516906342966c68906024016020604051808303816000875af115801561039b573d6000803e3d6000fd5b505050506040513d601f19601f820116820180604052508101906103bf919061077c565b60005460405163a9059cbb60e01b8152336004820152602481018390529192506001600160a01b03169063a9059cbb906044016020604051808303816000875af1158015610411573d6000803e3d6000fd5b505050506040513d601f19601f82011682018060405250810190610435919061075a565b509392505050565b3360009081526001602052604090205460ff1661046c576040516282b42960e81b815260040160405180910390fd5b81636578656360e01b036104a7576001600160a01b0381166000908152600160205260409020805460ff19811660ff909116151790556104c0565b6040516302bfa98160e41b815260040160405180910390fd5b6040516001600160a01b038216815282907f8fef588b5fc1afbf5b2f06c1a435d513f208da2e6704c3d8f0e0ec91167066ba9060200160405180910390a25050565b3360009081526001602052604090205460609060ff16610534576040516282b42960e81b815260040160405180910390fd5b60405163b72a6e3f60e01b8152600481018490526001600160a01b03838116602483015285169063b72a6e3f906044016000604051808303816000875af1158015610583573d6000803e3d6000fd5b505050506040513d6000823e601f3d908101601f191682016040526105ab91908101906107bb565b949350505050565b80356001600160a01b03811681146105ca57600080fd5b919050565b600080604083850312156105e257600080fd5b6105eb836105b3565b946020939093013593505050565b60006020828403121561060b57600080fd5b610273826105b3565b6000806000806060858703121561062a57600080fd5b610633856105b3565b935060208501359250604085013567ffffffffffffffff8082111561065757600080fd5b818701915087601f83011261066b57600080fd5b81358181111561067a57600080fd5b88602082850101111561068c57600080fd5b95989497505060200194505050565b600080604083850312156106ae57600080fd5b823591506106be602084016105b3565b90509250929050565b6000806000606084860312156106dc57600080fd5b6106e5846105b3565b9250602084013591506106fa604085016105b3565b90509250925092565b60005b8381101561071e578181015183820152602001610706565b50506000910152565b6020815260008251806020840152610746816040850160208701610703565b601f01601f19169190910160400192915050565b60006020828403121561076c57600080fd5b8151801515811461027357600080fd5b60006020828403121561078e57600080fd5b5051919050565b8183823760009101908152919050565b634e487b7160e01b600052604160045260246000fd5b6000602082840312156107cd57600080fd5b815167ffffffffffffffff808211156107e557600080fd5b818401915084601f8301126107f957600080fd5b81518181111561080b5761080b6107a5565b604051601f8201601f19908116603f01168101908382118183101715610833576108336107a5565b8160405282815287602084870101111561084c57600080fd5b61085d836020830160208801610703565b97965050505050505056fea2646970667358221220b97fb7150ece42ef224bbfe8f5cdd4c7e7a6ec44d5afcc2cd2698cf650e75f9e64736f6c63430008110033","linkReferences":{}},"methodIdentifiers":{"asset()":"38d52e0f","burn(address,uint256)":"9dc29fac","call(address,uint256,bytes)":"6dbf2fa0","exec(address)":"6bb6126e","file(bytes32,address)":"d4e8be83","kill(address,uint256,address)":"e277cfd6","mint(address,uint256)":"40c10f19"},"id":4}