{"abi":[{"type":"function","name":"get","inputs":[{"name":"start","type":"uint256","internalType":"uint256"}],"outputs":[{"name":"","type":"address[]","internalType":"address[]"},{"name":"","type":"uint256[]","internalType":"uint256[]"}],"stateMutability":"view"}],"bytecode":{"object":"0x608060405234801561001057600080fd5b5061058a806100206000396000f3fe608060405234801561001057600080fd5b506004361061002b5760003560e01c80639507d39a14610030575b600080fd5b61004361003e366004610358565b61005a565b604051610051929190610371565b60405180910390f35b6060806000738accf43dd31dfcd4919cc7d65912a475bfa6036990506000735e4d7f61cc608485a2e4f105713d26d58a9d0cf690506000826001600160a01b0316631e6c57226040518163ffffffff1660e01b8152600401602060405180830381865afa1580156100cf573d6000803e3d6000fd5b505050506040513d601f19601f820116820180604052508101906100f391906103f5565b905060006101018783610424565b67ffffffffffffffff8111156101195761011961043d565b604051908082528060200260200182016040528015610142578160200160208202803683370190505b50905060006101518884610424565b67ffffffffffffffff8111156101695761016961043d565b604051908082528060200260200182016040528015610192578160200160208202803683370190505b509050875b8381101561034a5760405163133f757160e31b8152600481018290526000906001600160a01b038816906399fbab889060240160e060405180830381865afa1580156101e7573d6000803e3d6000fd5b505050506040513d601f19601f8201168201806040525081019061020b919061046b565b5095505050505050600080876001600160a01b0316636352211e60e01b8560405160240161023b91815260200190565b60408051601f198184030181529181526020820180516001600160e01b03166001600160e01b031990941693909317909252905161027991906104d2565b600060405180830381855afa9150503d80600081146102b4576040519150601f19603f3d011682016040523d82523d6000602084013e6102b9565b606091505b5091509150811561033457808060200190518101906102d89190610501565b866102e38e87610424565b815181106102f3576102f3610525565b6001600160a01b039092166020928302919091019091015282856103178e87610424565b8151811061032757610327610525565b6020026020010181815250505b50505080806103429061053b565b915050610197565b509097909650945050505050565b60006020828403121561036a57600080fd5b5035919050565b604080825283519082018190526000906020906060840190828701845b828110156103b35781516001600160a01b03168452928401929084019060010161038e565b5050508381038285015284518082528583019183019060005b818110156103e8578351835292840192918401916001016103cc565b5090979650505050505050565b60006020828403121561040757600080fd5b5051919050565b634e487b7160e01b600052601160045260246000fd5b818103818111156104375761043761040e565b92915050565b634e487b7160e01b600052604160045260246000fd5b6001600160a01b038116811461046857600080fd5b50565b600080600080600080600060e0888a03121561048657600080fd5b875161049181610453565b60208901519097506104a281610453565b604089015160608a015160808b015160a08c015160c0909c01519a9d939c50919a90999198509650945092505050565b6000825160005b818110156104f357602081860181015185830152016104d9565b506000920191825250919050565b60006020828403121561051357600080fd5b815161051e81610453565b9392505050565b634e487b7160e01b600052603260045260246000fd5b60006001820161054d5761054d61040e565b506001019056fea2646970667358221220d5ecf4d94a233a34c0aad7ba1a5a053e93c8016f9ebe953e89e55af80f6d492764736f6c63430008110033","linkReferences":{}},"methodIdentifiers":{"get(uint256)":"9507d39a"},"id":10}