{"abi":[{"type":"constructor","inputs":[{"name":"_store","type":"address","internalType":"address"},{"name":"_helper","type":"address","internalType":"address"}],"stateMutability":"nonpayable"},{"type":"function","name":"STATUS_LIQUIDATE","inputs":[],"outputs":[{"name":"","type":"uint256","internalType":"uint256"}],"stateMutability":"view"},{"type":"function","name":"STATUS_LIVE","inputs":[],"outputs":[{"name":"","type":"uint256","internalType":"uint256"}],"stateMutability":"view"},{"type":"function","name":"STATUS_PAUSED","inputs":[],"outputs":[{"name":"","type":"uint256","internalType":"uint256"}],"stateMutability":"view"},{"type":"function","name":"STATUS_WITHDRAW","inputs":[],"outputs":[{"name":"","type":"uint256","internalType":"uint256"}],"stateMutability":"view"},{"type":"function","name":"closeCollateralPadding","inputs":[],"outputs":[{"name":"","type":"uint256","internalType":"uint256"}],"stateMutability":"view"},{"type":"function","name":"collateralSetCap","inputs":[{"name":"token","type":"address","internalType":"address"},{"name":"cap","type":"uint256","internalType":"uint256"}],"outputs":[],"stateMutability":"nonpayable"},{"type":"function","name":"collateralSetFactor","inputs":[{"name":"token","type":"address","internalType":"address"},{"name":"factor","type":"uint256","internalType":"uint256"}],"outputs":[],"stateMutability":"nonpayable"},{"type":"function","name":"collect","inputs":[{"name":"token","type":"address","internalType":"address"}],"outputs":[],"stateMutability":"nonpayable"},{"type":"function","name":"edit","inputs":[{"name":"id","type":"uint256","internalType":"uint256"},{"name":"borrow","type":"int256","internalType":"int256"},{"name":"collateral","type":"int256","internalType":"int256"}],"outputs":[],"stateMutability":"nonpayable"},{"type":"function","name":"exec","inputs":[{"name":"","type":"address","internalType":"address"}],"outputs":[{"name":"","type":"bool","internalType":"bool"}],"stateMutability":"view"},{"type":"function","name":"file","inputs":[{"name":"what","type":"bytes32","internalType":"bytes32"},{"name":"data","type":"uint256","internalType":"uint256"}],"outputs":[],"stateMutability":"nonpayable"},{"type":"function","name":"file","inputs":[{"name":"what","type":"bytes32","internalType":"bytes32"},{"name":"data","type":"address","internalType":"address"}],"outputs":[],"stateMutability":"nonpayable"},{"type":"function","name":"getPool","inputs":[],"outputs":[{"name":"","type":"address","internalType":"address"}],"stateMutability":"view"},{"type":"function","name":"getPosition","inputs":[{"name":"id","type":"uint256","internalType":"uint256"}],"outputs":[{"name":"p","type":"tuple","internalType":"struct Investor.Position","components":[{"name":"owner","type":"address","internalType":"address"},{"name":"start","type":"uint256","internalType":"uint256"},{"name":"strategy","type":"uint256","internalType":"uint256"},{"name":"token","type":"address","internalType":"address"},{"name":"collateral","type":"uint256","internalType":"uint256"},{"name":"borrow","type":"uint256","internalType":"uint256"},{"name":"shares","type":"uint256","internalType":"uint256"},{"name":"basis","type":"uint256","internalType":"uint256"}]}],"stateMutability":"view"},{"type":"function","name":"getStrategy","inputs":[{"name":"id","type":"uint256","internalType":"uint256"}],"outputs":[{"name":"s","type":"tuple","internalType":"struct Investor.Strategy","components":[{"name":"implementation","type":"address","internalType":"address"},{"name":"cap","type":"uint256","internalType":"uint256"},{"name":"status","type":"uint256","internalType":"uint256"}]}],"stateMutability":"view"},{"type":"function","name":"helper","inputs":[],"outputs":[{"name":"","type":"address","internalType":"contract IHelper"}],"stateMutability":"view"},{"type":"function","name":"kill","inputs":[{"name":"id","type":"uint256","internalType":"uint256"}],"outputs":[{"name":"","type":"address","internalType":"address"},{"name":"","type":"bytes","internalType":"bytes"}],"stateMutability":"nonpayable"},{"type":"function","name":"killCollateralPadding","inputs":[],"outputs":[{"name":"","type":"uint256","internalType":"uint256"}],"stateMutability":"view"},{"type":"function","name":"killRepayment","inputs":[{"name":"id","type":"uint256","internalType":"uint256"}],"outputs":[{"name":"","type":"uint256","internalType":"uint256"}],"stateMutability":"view"},{"type":"function","name":"life","inputs":[{"name":"id","type":"uint256","internalType":"uint256"}],"outputs":[{"name":"","type":"uint256","internalType":"uint256"}],"stateMutability":"view"},{"type":"function","name":"open","inputs":[{"name":"strategy","type":"uint256","internalType":"uint256"},{"name":"token","type":"address","internalType":"address"},{"name":"collateral","type":"uint256","internalType":"uint256"},{"name":"borrow","type":"uint256","internalType":"uint256"}],"outputs":[{"name":"","type":"uint256","internalType":"uint256"}],"stateMutability":"nonpayable"},{"type":"function","name":"performanceFee","inputs":[],"outputs":[{"name":"","type":"uint256","internalType":"uint256"}],"stateMutability":"view"},{"type":"function","name":"slippage","inputs":[],"outputs":[{"name":"","type":"uint256","internalType":"uint256"}],"stateMutability":"view"},{"type":"function","name":"store","inputs":[],"outputs":[{"name":"","type":"address","internalType":"contract IStore"}],"stateMutability":"view"},{"type":"function","name":"strategyNew","inputs":[{"name":"index","type":"uint256","internalType":"uint256"},{"name":"implementation","type":"address","internalType":"address"}],"outputs":[],"stateMutability":"nonpayable"},{"type":"function","name":"strategyProxy","inputs":[],"outputs":[{"name":"","type":"address","internalType":"contract IStrategyProxy"}],"stateMutability":"view"},{"type":"function","name":"strategySetCap","inputs":[{"name":"index","type":"uint256","internalType":"uint256"},{"name":"cap","type":"uint256","internalType":"uint256"}],"outputs":[],"stateMutability":"nonpayable"},{"type":"function","name":"strategySetStatus","inputs":[{"name":"index","type":"uint256","internalType":"uint256"},{"name":"status","type":"uint256","internalType":"uint256"}],"outputs":[],"stateMutability":"nonpayable"},{"type":"function","name":"strategyUgrade","inputs":[{"name":"index","type":"uint256","internalType":"uint256"},{"name":"implementation","type":"address","internalType":"address"}],"outputs":[],"stateMutability":"nonpayable"},{"type":"function","name":"whitelist","inputs":[],"outputs":[{"name":"","type":"address","internalType":"contract IWhitelist"}],"stateMutability":"view"},{"type":"event","name":"CollateralUpdate","inputs":[{"name":"token","type":"address","indexed":true,"internalType":"address"},{"name":"factor","type":"uint256","indexed":false,"internalType":"uint256"},{"name":"cap","type":"uint256","indexed":false,"internalType":"uint256"}],"anonymous":false},{"type":"event","name":"Edit","inputs":[{"name":"id","type":"uint256","indexed":true,"internalType":"uint256"},{"name":"borrow","type":"int256","indexed":false,"internalType":"int256"},{"name":"collateral","type":"int256","indexed":false,"internalType":"int256"}],"anonymous":false},{"type":"event","name":"File","inputs":[{"name":"what","type":"bytes32","indexed":true,"internalType":"bytes32"},{"name":"data","type":"uint256","indexed":false,"internalType":"uint256"}],"anonymous":false},{"type":"event","name":"File","inputs":[{"name":"what","type":"bytes32","indexed":true,"internalType":"bytes32"},{"name":"data","type":"address","indexed":false,"internalType":"address"}],"anonymous":false},{"type":"event","name":"Kill","inputs":[{"name":"id","type":"uint256","indexed":true,"internalType":"uint256"},{"name":"borrow","type":"uint256","indexed":false,"internalType":"uint256"},{"name":"value","type":"uint256","indexed":false,"internalType":"uint256"},{"name":"collateral","type":"uint256","indexed":false,"internalType":"uint256"},{"name":"shares","type":"uint256","indexed":false,"internalType":"uint256"},{"name":"fee","type":"uint256","indexed":false,"internalType":"uint256"}],"anonymous":false},{"type":"event","name":"Open","inputs":[{"name":"id","type":"uint256","indexed":true,"internalType":"uint256"},{"name":"borrow","type":"uint256","indexed":false,"internalType":"uint256"},{"name":"collateral","type":"uint256","indexed":false,"internalType":"uint256"},{"name":"strategy","type":"uint256","indexed":false,"internalType":"uint256"},{"name":"token","type":"address","indexed":false,"internalType":"address"}],"anonymous":false},{"type":"event","name":"StrategyUpdate","inputs":[{"name":"index","type":"uint256","indexed":true,"internalType":"uint256"},{"name":"implementation","type":"address","indexed":false,"internalType":"address"},{"name":"status","type":"uint256","indexed":false,"internalType":"uint256"},{"name":"cap","type":"uint256","indexed":false,"internalType":"uint256"}],"anonymous":false},{"type":"error","name":"CollateralOverCap","inputs":[]},{"type":"error","name":"InvalidFile","inputs":[]},{"type":"error","name":"InvalidParameters","inputs":[]},{"type":"error","name":"NoEditingInSameBlock","inputs":[]},{"type":"error","name":"NoReentering","inputs":[]},{"type":"error","name":"NotOwner","inputs":[]},{"type":"error","name":"NotWhitelisted","inputs":[]},{"type":"error","name":"PositionNotLiquidatable","inputs":[]},{"type":"error","name":"StrategyClosed","inputs":[]},{"type":"error","name":"StrategyExists","inputs":[]},{"type":"error","name":"StrategyOverCap","inputs":[]},{"type":"error","name":"StrategyUninitialized","inputs":[]},{"type":"error","name":"TransferFailed","inputs":[]},{"type":"error","name":"Unauthorized","inputs":[]},{"type":"error","name":"Undercollateralized","inputs":[]},{"type":"error","name":"UnknownCollateral","inputs":[]},{"type":"error","name":"UnknownStrategy","inputs":[]},{"type":"error","name":"WrongStatus","inputs":[]}],"bytecode":{"object":"0x608060405260c86004556107d06005556101f46006556101906007553480156200002857600080fd5b5060405162005ffd38038062005ffd8339810160408190526200004b91620000b3565b600080546001600160a01b039384166001600160a01b031991821617825560018054939094169216919091178255338152600a60205260409020805460ff19169091179055620000eb565b80516001600160a01b0381168114620000ae57600080fd5b919050565b60008060408385031215620000c757600080fd5b620000d28362000096565b9150620000e26020840162000096565b90509250929050565b615f0280620000fb6000396000f3fe608060405234801561001057600080fd5b50600436106101da5760003560e01c8063934b57d611610104578063b09e6dd2116100a2578063cfc0cc3411610071578063cfc0cc34146103bb578063d29a0025146103f9578063d4e8be831461041a578063eb02c3011461042d57600080fd5b8063b09e6dd214610379578063b6a69f821461038c578063cb14cd0a14610395578063ceb4ea4a146103a857600080fd5b8063975057e7116100de578063975057e7146103385780639f7217701461034b578063a38b996614610353578063ae5e35db1461036657600080fd5b8063934b57d61461030a57806393e59dc1146103125780639647289e1461032557600080fd5b80633e032a3b1161017c5780636bb6126e1161014b5780636bb6126e146102b3578063735b8c93146102e65780637d5ad9be146102f9578063877887821461030157600080fd5b80633e032a3b146102715780635bae29311461027a5780635e2ce15e1461028d57806363b0e66a146102a057600080fd5b806322272024116101b8578063222720241461022c578063239aaddd1461024d57806329ae8114146102555780633660fa261461026857600080fd5b8063026b1d5f146101df57806306ec16f8146102045780631e95a99b14610219575b600080fd5b6101e76104ad565b6040516001600160a01b0390911681526020015b60405180910390f35b610217610212366004615903565b61054c565b005b610217610227366004615920565b610651565b61023f61023a366004615942565b6107a7565b6040519081526020016101fb565b61023f600281565b610217610263366004615920565b6107c5565b61023f60065481565b61023f60045481565b61023f61028836600461595b565b610a49565b61021761029b366004615998565b6113ab565b6001546101e7906001600160a01b031681565b6102d66102c1366004615903565b600a6020526000908152604090205460ff1681565b60405190151581526020016101fb565b61023f6102f4366004615942565b611597565b61023f600381565b61023f60055481565b61023f600181565b6002546101e7906001600160a01b031681565b6102176103333660046159c4565b611707565b6000546101e7906001600160a01b031681565b61023f600481565b6102176103613660046159f4565b6119ee565b610217610374366004615998565b612a57565b6102176103873660046159c4565b612c43565b61023f60075481565b6003546101e7906001600160a01b031681565b6102176103b6366004615920565b612e40565b6103ce6103c9366004615942565b612f64565b6040805182516001600160a01b031681526020808401519082015291810151908201526060016101fb565b61040c610407366004615942565b613252565b6040516101fb929190615a44565b6102176104283660046159c4565b613b16565b61044061043b366004615942565b614115565b6040516101fb919060006101008201905060018060a01b038084511683526020840151602084015260408401516040840152806060850151166060840152506080830151608083015260a083015160a083015260c083015160c083015260e083015160e083015292915050565b600080546040516001600160a01b03909116906321f8a721906104d290602001615a86565b604051602081830303815290604052805190602001206040518263ffffffff1660e01b815260040161050691815260200190565b602060405180830381865afa158015610523573d6000803e3d6000fd5b505050506040513d601f19601f820116820180604052508101906105479190615aa4565b905090565b336000908152600a602052604090205460ff1661057b576040516282b42960e81b815260040160405180910390fd5b6040516370a0823160e01b81523060048201526001600160a01b0382169063a9059cbb90339083906370a0823190602401602060405180830381865afa1580156105c9573d6000803e3d6000fd5b505050506040513d601f19601f820116820180604052508101906105ed9190615ac1565b6040518363ffffffff1660e01b815260040161060a929190615ada565b6020604051808303816000875af1158015610629573d6000803e3d6000fd5b505050506040513d601f19601f8201168201806040525081019061064d9190615af3565b5050565b336000908152600a602052604090205460ff16610680576040516282b42960e81b815260040160405180910390fd5b600061068b83612f64565b6000546040519192506001600160a01b03169063e2a4853a9085906106d5906020016020808252600e908201526d0535452415445474945535f4341560941b604082015260600190565b60405160208183030381529060405280519060200120604051602001610705929190918252602082015260400190565b60408051601f198184030181529082905280516020909101206001600160e01b031960e084901b168252600482015260248101859052604401600060405180830381600087803b15801561075857600080fd5b505af115801561076c573d6000803e3d6000fd5b5050505082600080516020615ead833981519152826000015183604001518560405161079a93929190615b15565b60405180910390a2505050565b6000806107b383614115565b90506107be816148b8565b9392505050565b336000908152600a602052604090205460ff166107f4576040516282b42960e81b815260040160405180910390fd5b8167736c69707061676560c01b0361083957670de0b6b3a764000081111561082f576040516302bfa98160e41b815260040160405180910390fd5b6004819055610a0b565b816d706572666f726d616e636546656560901b0361087e57611388811115610874576040516302bfa98160e41b815260040160405180910390fd5b6005819055610a0b565b81746b696c6c436f6c6c61746572616c50616464696e6760581b036108d057670de0b6b3a76400008111156108c6576040516302bfa98160e41b815260040160405180910390fd5b6006819055610a0b565b8175636c6f7365436f6c6c61746572616c50616464696e6760501b0361092357670de0b6b3a7640000811115610919576040516302bfa98160e41b815260040160405180910390fd5b6007819055610a0b565b816573746174757360d01b036109f2578015806109405750600481115b1561095e576040516302bfa98160e41b815260040160405180910390fd5b6000546040516001600160a01b039091169063e2a4853a9061098290602001615b36565b60408051601f198184030181529082905280516020909101206001600160e01b031960e084901b168252600482015260248101849052604401600060405180830381600087803b1580156109d557600080fd5b505af11580156109e9573d6000803e3d6000fd5b50505050610a0b565b6040516302bfa98160e41b815260040160405180910390fd5b817fe986e40cc8c151830d4f61050f4fb2e4add8567caad2d5f5496f9158e91fe4c782604051610a3d91815260200190565b60405180910390a25050565b60085460009060ff1615610a705760405163cbece43f60e01b815260040160405180910390fd5b6008805460ff191660011790556002546001600160a01b031615610b1757600254604051631846d2f560e31b81523360048201526001600160a01b039091169063c23697a890602401602060405180830381865afa158015610ad6573d6000803e3d6000fd5b505050506040513d601f19601f82011682018060405250810190610afa9190615af3565b610b1757604051630b094f2760e31b815260040160405180910390fd5b600080546040516001600160a01b03909116906345ee66ee90610b5a90602001602080825260099082015268504f534954494f4e5360b81b604082015260600190565b60408051601f198184030181529082905280516020909101206001600160e01b031960e084901b1682526004820152600160248201526044016020604051808303816000875af1158015610bb2573d6000803e3d6000fd5b505050506040513d601f19601f82011682018060405250810190610bd69190615ac1565b6000818152600960205260408120439055909150610bf387612f64565b805160005460405192935090916004916001600160a01b03169063bd02d0f590610c1f90602001615b36565b604051602081830303815290604052805190602001206040518263ffffffff1660e01b8152600401610c5391815260200190565b602060405180830381865afa158015610c70573d6000803e3d6000fd5b505050506040513d601f19601f82011682018060405250810190610c949190615ac1565b1080610ca4575060048260400151105b15610cc257604051638e78f0cb60e01b815260040160405180910390fd5b600080546040516001600160a01b039091169063bd02d0f5908a90610ce990602001615b56565b60405160208183030381529060405280519060200120604051602001610d10929190615ada565b604051602081830303815290604052805190602001206040518263ffffffff1660e01b8152600401610d4491815260200190565b602060405180830381865afa158015610d61573d6000803e3d6000fd5b505050506040513d601f19601f82011682018060405250810190610d859190615ac1565b905080600003610da85760405163039a1fd760e21b815260040160405180910390fd5b600054604051829189916001600160a01b03808d16926370a08231929116906321f8a72190610dd990602001615b7e565b604051602081830303815290604052805190602001206040518263ffffffff1660e01b8152600401610e0d91815260200190565b602060405180830381865afa158015610e2a573d6000803e3d6000fd5b505050506040513d601f19601f82011682018060405250810190610e4e9190615aa4565b6040516001600160e01b031960e084901b1681526001600160a01b039091166004820152602401602060405180830381865afa158015610e92573d6000803e3d6000fd5b505050506040513d601f19601f82011682018060405250810190610eb69190615ac1565b610ec09190615bb2565b1115610edf57604051631459551960e31b815260040160405180910390fd5b610ee7615894565b3381524260208083019190915260408083018c90526001600160a01b038b81166060850152608084018b90528151633a98ef3960e01b8152915190861692633a98ef3992600480820193918290030181865afa158015610f4b573d6000803e3d6000fd5b505050506040513d601f19601f82011682018060405250810190610f6f9190615ac1565b600003610f8f576040516301d0ba7760e01b815260040160405180910390fd5b600080546040516001600160a01b03909116906321f8a72190610fb490602001615a86565b604051602081830303815290604052805190602001206040518263ffffffff1660e01b8152600401610fe891815260200190565b602060405180830381865afa158015611005573d6000803e3d6000fd5b505050506040513d601f19601f820116820180604052508101906110299190615aa4565b90506000816001600160a01b03166338d52e0f6040518163ffffffff1660e01b8152600401602060405180830381865afa15801561106b573d6000803e3d6000fd5b505050506040513d601f19601f8201168201806040525081019061108f9190615aa4565b905061109c8b338c614f4b565b60405163317afabb60e21b8152600481018a90526001600160a01b0383169063c5ebeaec906024016020604051808303816000875af11580156110e3573d6000803e3d6000fd5b505050506040513d601f19601f820116820180604052508101906111079190615ac1565b60a08401526003546111249082906001600160a01b03168b615092565b6003546040516340c10f1960e01b81526001600160a01b03909116906340c10f19906111569088908d90600401615ada565b6020604051808303816000875af1158015611175573d6000803e3d6000fd5b505050506040513d601f19601f820116820180604052508101906111999190615ac1565b60c084018190526040516373f7356b60e11b815260048101919091526001600160a01b0386169063e7ee6ad690602401602060405180830381865afa1580156111e6573d6000803e3d6000fd5b505050506040513d601f19601f8201168201806040525081019061120a9190615ac1565b60e084015250670de0b6b3a76400009050611224826148b8565b10156112435760405163fddafdf560e01b815260040160405180910390fd5b8360200151836001600160a01b031663e7ee6ad6856001600160a01b0316633a98ef396040518163ffffffff1660e01b8152600401602060405180830381865afa158015611295573d6000803e3d6000fd5b505050506040513d601f19601f820116820180604052508101906112b99190615ac1565b6040518263ffffffff1660e01b81526004016112d791815260200190565b602060405180830381865afa1580156112f4573d6000803e3d6000fd5b505050506040513d601f19601f820116820180604052508101906113189190615ac1565b11156113375760405163079ba2db60e41b815260040160405180910390fd5b61134185826150cd565b60408051888152602081018a90529081018b90526001600160a01b038a16606082015285907f3fd9db8f5aedb24b1efe1ee9daeacb147b87adc7b292b567c852fe84992175589060800160405180910390a250506008805460ff1916905550909695505050505050565b336000908152600a602052604090205460ff166113da576040516282b42960e81b815260040160405180910390fd5b600080546040516001600160a01b039091169063bd02d0f590859061140190602001615b56565b60405160208183030381529060405280519060200120604051602001611428929190615ada565b604051602081830303815290604052805190602001206040518263ffffffff1660e01b815260040161145c91815260200190565b602060405180830381865afa158015611479573d6000803e3d6000fd5b505050506040513d601f19601f8201168201806040525081019061149d9190615ac1565b6000546040519192506001600160a01b03169063e2a4853a9085906114c490602001615bc5565b604051602081830303815290604052805190602001206040516020016114eb929190615ada565b60408051601f198184030181529082905280516020909101206001600160e01b031960e084901b168252600482015260248101859052604401600060405180830381600087803b15801561153e57600080fd5b505af1158015611552573d6000803e3d6000fd5b505060408051858152602081018590526001600160a01b03871693507f6a84df6b33ba6a5122ed22d5274ba5478abe0870cb14977ee9df8e0b18c3825b92500161079a565b6000805460405182916001600160a01b0316906321f8a721906115bc90602001615a86565b604051602081830303815290604052805190602001206040518263ffffffff1660e01b81526004016115f091815260200190565b602060405180830381865afa15801561160d573d6000803e3d6000fd5b505050506040513d601f19601f820116820180604052508101906116319190615aa4565b9050600061163e84614115565b90506000670de0b6b3a7640000836001600160a01b0316634bb700966040518163ffffffff1660e01b8152600401602060405180830381865afa158015611689573d6000803e3d6000fd5b505050506040513d601f19601f820116820180604052508101906116ad9190615ac1565b8360a001516116bc9190615bf0565b6116c69190615c07565b905060006002612710600654846116dd9190615bf0565b6116e79190615c07565b6116f19190615c07565b90506116fd8183615bb2565b9695505050505050565b336000908152600a602052604090205460ff16611736576040516282b42960e81b815260040160405180910390fd5b600080546040516001600160a01b03909116906321f8a72190859061175d90602001615c29565b6040516020818303038152906040528051906020012060405160200161178d929190918252602082015260400190565b604051602081830303815290604052805190602001206040518263ffffffff1660e01b81526004016117c191815260200190565b602060405180830381865afa1580156117de573d6000803e3d6000fd5b505050506040513d601f19601f820116820180604052508101906118029190615aa4565b6001600160a01b031614611829576040516325a2934b60e21b815260040160405180910390fd5b6000546040516001600160a01b039091169063ca446dd990849061184f90602001615c29565b6040516020818303038152906040528051906020012060405160200161187f929190918252602082015260400190565b60408051601f198184030181529082905280516020909101206001600160e01b031960e084901b16825260048201526001600160a01b03841660248201526044016020604051808303816000875af11580156118df573d6000803e3d6000fd5b505050506040513d601f19601f820116820180604052508101906119039190615aa4565b506000546040516001600160a01b039091169063e2a4853a90849061192a90602001615c55565b6040516020818303038152906040528051906020012060405160200161195a929190918252602082015260400190565b6040516020818303038152906040528051906020012060046040518363ffffffff1660e01b8152600401611998929190918252602082015260400190565b600060405180830381600087803b1580156119b257600080fd5b505af11580156119c6573d6000803e3d6000fd5b5050505081600080516020615ead8339815191528260046000604051610a3d93929190615b15565b60085460ff1615611a125760405163cbece43f60e01b815260040160405180910390fd5b6008805460ff19166001179055600080546040516001600160a01b03909116906321f8a72190611a4490602001615b7e565b604051602081830303815290604052805190602001206040518263ffffffff1660e01b8152600401611a7891815260200190565b602060405180830381865afa158015611a95573d6000803e3d6000fd5b505050506040513d601f19601f82011682018060405250810190611ab99190615aa4565b6000805460405192935090916001600160a01b03909116906321f8a72190611ae390602001615a86565b604051602081830303815290604052805190602001206040518263ffffffff1660e01b8152600401611b1791815260200190565b602060405180830381865afa158015611b34573d6000803e3d6000fd5b505050506040513d601f19601f82011682018060405250810190611b589190615aa4565b905060008390506000826001600160a01b03166338d52e0f6040518163ffffffff1660e01b8152600401602060405180830381865afa158015611b9f573d6000803e3d6000fd5b505050506040513d601f19601f82011682018060405250810190611bc39190615aa4565b90506000611bd088614115565b90506000611be18260400151612f64565b80518351919250906001600160a01b03163314611c11576040516330cd747160e01b815260040160405180910390fd5b600089128015611c2c575060c0830151611c2a8a615c80565b115b15611c4a57604051630e52390960e41b815260040160405180910390fd5b600089138015611c5c575060c0830151155b15611c7a57604051630e52390960e41b815260040160405180910390fd5b600088128015611c9557506080830151611c9389615c80565b115b15611cb357604051630e52390960e41b815260040160405180910390fd5b60008a815260096020526040902054439003611ce25760405163d20d093760e01b815260040160405180910390fd5b60008a8152600960209081526040808320439055825490516001600160a01b039091169163bd02d0f591611d169101615b36565b604051602081830303815290604052805190602001206040518263ffffffff1660e01b8152600401611d4a91815260200190565b602060405180830381865afa158015611d67573d6000803e3d6000fd5b505050506040513d601f19601f82011682018060405250810190611d8b9190615ac1565b905060008a138015611dab57506004811080611dab575060048360400151105b15611dc957604051638e78f0cb60e01b815260040160405180910390fd5b60008a13158015611de857506003811080611de8575060038360400151105b15611e0657604051638e78f0cb60e01b815260040160405180910390fd5b50600088131561202f57611e1f8360600151338a614f4b565b878360800151611e2f9190615bb2565b60808401526000805460608501516040516001600160a01b039092169163bd02d0f59190611e5f90602001615b56565b60405160208183030381529060405280519060200120604051602001611e86929190615ada565b604051602081830303815290604052805190602001206040518263ffffffff1660e01b8152600401611eba91815260200190565b602060405180830381865afa158015611ed7573d6000803e3d6000fd5b505050506040513d601f19601f82011682018060405250810190611efb9190615ac1565b606085015160005460405192935083926001600160a01b03928316926370a082319216906321f8a72190611f3190602001615b7e565b604051602081830303815290604052805190602001206040518263ffffffff1660e01b8152600401611f6591815260200190565b602060405180830381865afa158015611f82573d6000803e3d6000fd5b505050506040513d601f19601f82011682018060405250810190611fa69190615aa4565b6040516001600160e01b031960e084901b1681526001600160a01b039091166004820152602401602060405180830381865afa158015611fea573d6000803e3d6000fd5b505050506040513d601f19601f8201168201806040525081019061200e9190615ac1565b111561202d57604051631459551960e31b815260040160405180910390fd5b505b60008912156125c7576120bd8360e00151826001600160a01b031663e7ee6ad68c61205990615c80565b6040518263ffffffff1660e01b815260040161207791815260200190565b602060405180830381865afa158015612094573d6000803e3d6000fd5b505050506040513d601f19601f820116820180604052508101906120b89190615ac1565b61587a565b8360e001516120cc9190615c9c565b60e08401526003546000906001600160a01b0316639dc29fac836120ef8d615c80565b6040518363ffffffff1660e01b815260040161210c929190615ada565b6020604051808303816000875af115801561212b573d6000803e3d6000fd5b505050506040513d601f19601f8201168201806040525081019061214f9190615ac1565b905061215a8a615c80565b8460c001516121699190615c9c565b8460c00181815250506000876001600160a01b0316634bb700966040518163ffffffff1660e01b8152600401602060405180830381865afa1580156121b2573d6000803e3d6000fd5b505050506040513d601f19601f820116820180604052508101906121d69190615ac1565b90506000816121ed84670de0b6b3a7640000615bf0565b6121f79190615c07565b90508560a0015181111561220c575060a08501515b8560c001516000036124a15750600060e0860181905260a086015190670de0b6b3a764000061223b8484615bf0565b6122459190615c07565b90508381111561249f5760015460608801516000916001600160a01b03169063248391ff908b906122768987615c9c565b6040518463ffffffff1660e01b815260040161229493929190615caf565b602060405180830381865afa1580156122b1573d6000803e3d6000fd5b505050506040513d601f19601f820116820180604052508101906122d59190615ac1565b90506127106007546127106122ea9190615bb2565b6122f49083615bf0565b6122fe9190615c07565b90508760800151811115612313575060808701515b60608801516040516317d5759960e31b81526001600160a01b038e169163beabacc891612347919030908690600401615caf565b600060405180830381600087803b15801561236157600080fd5b505af1158015612375573d6000803e3d6000fd5b505050606089015160015460405163095ea7b360e01b81526001600160a01b03928316935063095ea7b3926123b09216908590600401615ada565b600060405180830381600087803b1580156123ca57600080fd5b505af11580156123de573d6000803e3d6000fd5b505060015460608b01516004805460405163d5bcb9b560e01b81526001600160a01b03938416928101929092528e83166024830152604482018790526064820152306084820152600094509116915063d5bcb9b59060a4016020604051808303816000875af1158015612455573d6000803e3d6000fd5b505050506040513d601f19601f820116820180604052508101906124799190615ac1565b90506124858187615bb2565b95508189608001516124979190615c9c565b60808a015250505b505b60405163095ea7b360e01b81526001600160a01b0388169063095ea7b3906124cf908c908790600401615ada565b600060405180830381600087803b1580156124e957600080fd5b505af11580156124fd573d6000803e3d6000fd5b5050604051631b8fec7360e11b815260048101849052600092506001600160a01b038c16915063371fd8e6906024016020604051808303816000875af115801561254b573d6000803e3d6000fd5b505050506040513d601f19601f8201168201806040525081019061256f9190615ac1565b9050818760a001516125819190615c9c565b60a08801526005546125c290899033906127109061259f9082615c9c565b6125a9868a615c9c565b6125b39190615bf0565b6125bd9190615c07565b615092565b505050505b600089131561281a57806001600160a01b0316633a98ef396040518163ffffffff1660e01b8152600401602060405180830381865afa15801561260e573d6000803e3d6000fd5b505050506040513d601f19601f820116820180604052508101906126329190615ac1565b600003612652576040516301d0ba7760e01b815260040160405180910390fd5b8260c00151600003612677576040516313ce05a960e21b815260040160405180910390fd5b60405163317afabb60e21b8152600481018a90526001600160a01b0387169063c5ebeaec906024016020604051808303816000875af11580156126be573d6000803e3d6000fd5b505050506040513d601f19601f820116820180604052508101906126e29190615ac1565b8360a001516126f19190615bb2565b60a084015260035461270e9085906001600160a01b03168b615092565b6003546040516340c10f1960e01b81526000916001600160a01b0316906340c10f19906127419085908e90600401615ada565b6020604051808303816000875af1158015612760573d6000803e3d6000fd5b505050506040513d601f19601f820116820180604052508101906127849190615ac1565b9050808460c001516127969190615bb2565b60c08501526040516373f7356b60e11b8152600481018290526001600160a01b0383169063e7ee6ad690602401602060405180830381865afa1580156127e0573d6000803e3d6000fd5b505050506040513d601f19601f820116820180604052508101906128049190615ac1565b8460e001516128139190615bb2565b60e0850152505b60008812156128cb57600061282e89615c80565b90508360800151811115612843575060808301515b61284c81615c80565b955080846080015161285e9190615c9c565b608085015260608401516040516317d5759960e31b81526001600160a01b038a169163beabacc891612897919033908690600401615caf565b600060405180830381600087803b1580156128b157600080fd5b505af11580156128c5573d6000803e3d6000fd5b50505050505b670de0b6b3a76400006128dd846148b8565b10156128fc5760405163fddafdf560e01b815260040160405180910390fd5b6000891380156129de57508160200151816001600160a01b031663e7ee6ad6836001600160a01b0316633a98ef396040518163ffffffff1660e01b8152600401602060405180830381865afa158015612959573d6000803e3d6000fd5b505050506040513d601f19601f8201168201806040525081019061297d9190615ac1565b6040518263ffffffff1660e01b815260040161299b91815260200190565b602060405180830381865afa1580156129b8573d6000803e3d6000fd5b505050506040513d601f19601f820116820180604052508101906129dc9190615ac1565b115b156129fc5760405163079ba2db60e41b815260040160405180910390fd5b612a068a846150cd565b604080518a8152602081018790528b917fe9223f4d25a545166988684c0b391b0b382c7c93eca95bd3c498d0516ff4dcf4910160405180910390a250506008805460ff191690555050505050505050565b336000908152600a602052604090205460ff16612a86576040516282b42960e81b815260040160405180910390fd5b600080546040516001600160a01b039091169063bd02d0f5908590612aad90602001615bc5565b60405160208183030381529060405280519060200120604051602001612ad4929190615ada565b604051602081830303815290604052805190602001206040518263ffffffff1660e01b8152600401612b0891815260200190565b602060405180830381865afa158015612b25573d6000803e3d6000fd5b505050506040513d601f19601f82011682018060405250810190612b499190615ac1565b6000546040519192506001600160a01b03169063e2a4853a908590612b7090602001615b56565b60405160208183030381529060405280519060200120604051602001612b97929190615ada565b60408051601f198184030181529082905280516020909101206001600160e01b031960e084901b168252600482015260248101859052604401600060405180830381600087803b158015612bea57600080fd5b505af1158015612bfe573d6000803e3d6000fd5b505060408051848152602081018690526001600160a01b03871693507f6a84df6b33ba6a5122ed22d5274ba5478abe0870cb14977ee9df8e0b18c3825b92500161079a565b336000908152600a602052604090205460ff16612c72576040516282b42960e81b815260040160405180910390fd5b6000612c7d83612f64565b805160405163b42652e960e01b81526001600160a01b03858116600483015292935091169063b42652e990602401600060405180830381600087803b158015612cc557600080fd5b505af1158015612cd9573d6000803e3d6000fd5b505082516040516308f2b74d60e21b81526001600160a01b03918216600482015290851692506323cadd349150602401600060405180830381600087803b158015612d2357600080fd5b505af1158015612d37573d6000803e3d6000fd5b50506000546040516001600160a01b03909116925063ca446dd991508590612d6190602001615c29565b60405160208183030381529060405280519060200120604051602001612d91929190918252602082015260400190565b60408051601f198184030181529082905280516020909101206001600160e01b031960e084901b16825260048201526001600160a01b03851660248201526044016020604051808303816000875af1158015612df1573d6000803e3d6000fd5b505050506040513d601f19601f82011682018060405250810190612e159190615aa4565b5082600080516020615ead833981519152838360400151846020015160405161079a93929190615b15565b336000908152600a602052604090205460ff16612e6f576040516282b42960e81b815260040160405180910390fd5b6000612e7a83612f64565b6000546040519192506001600160a01b03169063e2a4853a908590612ea190602001615c55565b60405160208183030381529060405280519060200120604051602001612ed1929190918252602082015260400190565b60408051601f198184030181529082905280516020909101206001600160e01b031960e084901b168252600482015260248101859052604401600060405180830381600087803b158015612f2457600080fd5b505af1158015612f38573d6000803e3d6000fd5b505082516020840151604051879450600080516020615ead833981519152935061079a92918791615b15565b612f91604051806060016040528060006001600160a01b0316815260200160008152602001600081525090565b6000546040516001600160a01b03909116906321f8a721908490612fb790602001615c29565b60405160208183030381529060405280519060200120604051602001612fe7929190918252602082015260400190565b604051602081830303815290604052805190602001206040518263ffffffff1660e01b815260040161301b91815260200190565b602060405180830381865afa158015613038573d6000803e3d6000fd5b505050506040513d601f19601f8201168201806040525081019061305c9190615aa4565b6001600160a01b03908116825260005460405191169063bd02d0f59084906130a9906020016020808252600e908201526d0535452415445474945535f4341560941b604082015260600190565b604051602081830303815290604052805190602001206040516020016130d9929190918252602082015260400190565b604051602081830303815290604052805190602001206040518263ffffffff1660e01b815260040161310d91815260200190565b602060405180830381865afa15801561312a573d6000803e3d6000fd5b505050506040513d601f19601f8201168201806040525081019061314e9190615ac1565b6020808301919091526000546040516001600160a01b039091169163bd02d0f591859161317b9101615c55565b604051602081830303815290604052805190602001206040516020016131ab929190918252602082015260400190565b604051602081830303815290604052805190602001206040518263ffffffff1660e01b81526004016131df91815260200190565b602060405180830381865afa1580156131fc573d6000803e3d6000fd5b505050506040513d601f19601f820116820180604052508101906132209190615ac1565b604082015280516001600160a01b031661324d57604051633191b6f360e01b815260040160405180910390fd5b919050565b60085460009060609060ff161561327c5760405163cbece43f60e01b815260040160405180910390fd5b6008805460ff19166001179055600080546040516001600160a01b03909116906321f8a721906132ae90602001615b7e565b604051602081830303815290604052805190602001206040518263ffffffff1660e01b81526004016132e291815260200190565b602060405180830381865afa1580156132ff573d6000803e3d6000fd5b505050506040513d601f19601f820116820180604052508101906133239190615aa4565b6000805460405192935090916001600160a01b03909116906321f8a7219061334d90602001615a86565b604051602081830303815290604052805190602001206040518263ffffffff1660e01b815260040161338191815260200190565b602060405180830381865afa15801561339e573d6000803e3d6000fd5b505050506040513d601f19601f820116820180604052508101906133c29190615aa4565b905060006133cf86614115565b905060006133e08260400151612f64565b90506000836001600160a01b03166338d52e0f6040518163ffffffff1660e01b8152600401602060405180830381865afa158015613422573d6000803e3d6000fd5b505050506040513d601f19601f820116820180604052508101906134469190615aa4565b9050670de0b6b3a764000061345a846148b8565b1061347857604051636415f95960e01b815260040160405180910390fd5b6000546040516002916001600160a01b03169063bd02d0f59061349d90602001615b36565b604051602081830303815290604052805190602001206040518263ffffffff1660e01b81526004016134d191815260200190565b602060405180830381865afa1580156134ee573d6000803e3d6000fd5b505050506040513d601f19601f820116820180604052508101906135129190615ac1565b1080613522575060028260400151105b1561354057604051638e78f0cb60e01b815260040160405180910390fd5b60008881526009602052604090205443900361356f5760405163d20d093760e01b815260040160405180910390fd5b600088815260096020908152604080832043905580516325db804b60e11b81529051670de0b6b3a7640000926001600160a01b03891692634bb7009692600480830193928290030181865afa1580156135cc573d6000803e3d6000fd5b505050506040513d601f19601f820116820180604052508101906135f09190615ac1565b8560a001516135ff9190615bf0565b6136099190615c07565b905060006002612710600654846136209190615bf0565b61362a9190615c07565b6136349190615c07565b90506001600160a01b0383166323b872dd33306136518587615bb2565b6040518463ffffffff1660e01b815260040161366f93929190615caf565b6020604051808303816000875af115801561368e573d6000803e3d6000fd5b505050506040513d601f19601f820116820180604052508101906136b29190615af3565b5060405163095ea7b360e01b81526001600160a01b0384169063095ea7b3906136e19089908690600401615ada565b600060405180830381600087803b1580156136fb57600080fd5b505af115801561370f573d6000803e3d6000fd5b50505060a0860151604051631b8fec7360e11b81526001600160a01b038916925063371fd8e6916137469160040190815260200190565b6020604051808303816000875af1158015613765573d6000803e3d6000fd5b505050506040513d601f19601f820116820180604052508101906137899190615ac1565b50835160c08601516040516373f7356b60e11b815260048101919091526000916001600160a01b03169063e7ee6ad690602401602060405180830381865afa1580156137d9573d6000803e3d6000fd5b505050506040513d601f19601f820116820180604052508101906137fd9190615ac1565b600154909150600090819081906001600160a01b0316630f8b27d788613824886002615bf0565b61382e908a615bb2565b6040518363ffffffff1660e01b815260040161384b929190615ada565b602060405180830381865afa158015613868573d6000803e3d6000fd5b505050506040513d601f19601f8201168201806040525081019061388c9190615ac1565b9050808410156139ab5760015460608a01516040516315d5220f60e31b81526001600160a01b03918216600482015291169063aea9107890602401602060405180830381865afa1580156138e4573d6000803e3d6000fd5b505050506040513d601f19601f820116820180604052508101906139089190615ac1565b6139128583615c9c565b61392490670de0b6b3a7640000615bf0565b61392e9190615c07565b9150886080015182111561394457886080015191505b60608901516040516317d5759960e31b81526001600160a01b038d169163beabacc891613978919033908790600401615caf565b600060405180830381600087803b15801561399257600080fd5b505af11580156139a6573d6000803e3d6000fd5b505050505b83818a60c001516139bc9190615bf0565b6139c69190615c07565b92508860c001518311156139dc578860c0015192505b50600354875160405163713be7eb60e11b81526001600160a01b03918216600482015260248101859052336044820152600092919091169063e277cfd6906064016000604051808303816000875af1158015613a3c573d6000803e3d6000fd5b505050506040513d6000823e601f3d908101601f19168201604052613a649190810190615ce9565b9050818960800151613a769190615c9c565b60808a015260c0890151613a8b908490615c9c565b60c08a0152600060a08a0152613aa18e8a6150cd565b604080518781526020810186905290810183905260608101849052608081018690528e907f8ef350b8af21a39ac7e7a3c9d93cccebe8b3e7665bf0edc88ecd38f60171fbe19060a00160405180910390a2606098909801516008805460ff191690559d979c50969a5050505050505050505050565b336000908152600a602052604090205460ff16613b45576040516282b42960e81b815260040160405180910390fd5b81636578656360e01b03613b80576001600160a01b0381166000908152600a60205260409020805460ff19811660ff909116151790556140da565b81681dda1a5d195b1a5cdd60ba1b03613bb357600280546001600160a01b0319166001600160a01b0383161790556140da565b81653432b63832b960d11b03613d7257600180546001600160a01b0319166001600160a01b038381169190911790915560008054604051919216906321f8a72190613c0090602001615a86565b604051602081830303815290604052805190602001206040518263ffffffff1660e01b8152600401613c3491815260200190565b602060405180830381865afa158015613c51573d6000803e3d6000fd5b505050506040513d601f19601f82011682018060405250810190613c759190615aa4565b90506000816001600160a01b03166338d52e0f6040518163ffffffff1660e01b8152600401602060405180830381865afa158015613cb7573d6000803e3d6000fd5b505050506040513d601f19601f82011682018060405250810190613cdb9190615aa4565b6001546040516315d5220f60e31b81526001600160a01b03808416600483015292935091169063aea9107890602401602060405180830381865afa158015613d27573d6000803e3d6000fd5b505050506040513d601f19601f82011682018060405250810190613d4b9190615ac1565b600003613d6b576040516302bfa98160e41b815260040160405180910390fd5b50506140da565b816c737472617465677950726f787960981b03613e2757600380546001600160a01b0319166001600160a01b0383169081179091556040516335db093760e11b8152306004820152636bb6126e906024015b602060405180830381865afa158015613de1573d6000803e3d6000fd5b505050506040513d601f19601f82011682018060405250810190613e059190615af3565b613e22576040516302bfa98160e41b815260040160405180910390fd5b6140da565b816362616e6b60e01b03613f0a576000546040516001600160a01b039091169063ca446dd990613e5990602001615b7e565b60408051601f198184030181529082905280516020909101206001600160e01b031960e084901b16825260048201526001600160a01b03841660248201526044016020604051808303816000875af1158015613eb9573d6000803e3d6000fd5b505050506040513d601f19601f82011682018060405250810190613edd9190615aa4565b506040516335db093760e11b81523060048201526001600160a01b03821690636bb6126e90602401613dc4565b81631c1bdbdb60e21b036109f2576000546040516001600160a01b039091169063ca446dd990613f3c90602001615a86565b60408051601f198184030181529082905280516020909101206001600160e01b031960e084901b16825260048201526001600160a01b03841660248201526044016020604051808303816000875af1158015613f9c573d6000803e3d6000fd5b505050506040513d601f19601f82011682018060405250810190613fc09190615aa4565b506040516335db093760e11b81523060048201526001600160a01b03821690636bb6126e90602401602060405180830381865afa158015614005573d6000803e3d6000fd5b505050506040513d601f19601f820116820180604052508101906140299190615af3565b614046576040516302bfa98160e41b815260040160405180910390fd5b60006001600160a01b0316816001600160a01b03166338d52e0f6040518163ffffffff1660e01b8152600401602060405180830381865afa15801561408f573d6000803e3d6000fd5b505050506040513d601f19601f820116820180604052508101906140b39190615aa4565b6001600160a01b031603613e22576040516302bfa98160e41b815260040160405180910390fd5b6040516001600160a01b038216815282907f8fef588b5fc1afbf5b2f06c1a435d513f208da2e6704c3d8f0e0ec91167066ba90602001610a3d565b61411d615894565b6000546040516001600160a01b03909116906321f8a721908490614167906020016020808252600f908201526e2827a9a4aa24a7a729afa7aba722a960891b604082015260600190565b60405160208183030381529060405280519060200120604051602001614197929190918252602082015260400190565b604051602081830303815290604052805190602001206040518263ffffffff1660e01b81526004016141cb91815260200190565b602060405180830381865afa1580156141e8573d6000803e3d6000fd5b505050506040513d601f19601f8201168201806040525081019061420c9190615aa4565b6001600160a01b03908116825260005460405191169063bd02d0f590849061425a906020016020808252600f908201526e1413d4d2551253d394d7d4d5105495608a1b604082015260600190565b6040516020818303038152906040528051906020012060405160200161428a929190918252602082015260400190565b604051602081830303815290604052805190602001206040518263ffffffff1660e01b81526004016142be91815260200190565b602060405180830381865afa1580156142db573d6000803e3d6000fd5b505050506040513d601f19601f820116820180604052508101906142ff9190615ac1565b6020828101919091526000546040805180840184905260128183015271504f534954494f4e535f535452415445475960701b60608083019190915282518083039091018152608082019092528151919093012060a0830185905260c08301526001600160a01b03169063bd02d0f59060e001604051602081830303815290604052805190602001206040518263ffffffff1660e01b81526004016143a591815260200190565b602060405180830381865afa1580156143c2573d6000803e3d6000fd5b505050506040513d601f19601f820116820180604052508101906143e69190615ac1565b6040828101919091526000548151602080820152600f928101929092526e2827a9a4aa24a7a729afaa27a5a2a760891b60608301526001600160a01b0316906321f8a72190849060800160405160208183030381529060405280519060200120604051602001614460929190918252602082015260400190565b604051602081830303815290604052805190602001206040518263ffffffff1660e01b815260040161449491815260200190565b602060405180830381865afa1580156144b1573d6000803e3d6000fd5b505050506040513d601f19601f820116820180604052508101906144d59190615aa4565b6001600160a01b03908116606083015260005460405191169063bd02d0f590849061452b906020016020808252601490820152731413d4d2551253d394d7d0d3d31310551154905360621b604082015260600190565b6040516020818303038152906040528051906020012060405160200161455b929190918252602082015260400190565b604051602081830303815290604052805190602001206040518263ffffffff1660e01b815260040161458f91815260200190565b602060405180830381865afa1580156145ac573d6000803e3d6000fd5b505050506040513d601f19601f820116820180604052508101906145d09190615ac1565b60808201526000546040516001600160a01b039091169063bd02d0f59084906146209060200160208082526010908201526f504f534954494f4e535f424f52524f5760801b604082015260600190565b60405160208183030381529060405280519060200120604051602001614650929190918252602082015260400190565b604051602081830303815290604052805190602001206040518263ffffffff1660e01b815260040161468491815260200190565b602060405180830381865afa1580156146a1573d6000803e3d6000fd5b505050506040513d601f19601f820116820180604052508101906146c59190615ac1565b60a08201526000546040516001600160a01b039091169063bd02d0f59084906147159060200160208082526010908201526f504f534954494f4e535f53484152455360801b604082015260600190565b60405160208183030381529060405280519060200120604051602001614745929190918252602082015260400190565b604051602081830303815290604052805190602001206040518263ffffffff1660e01b815260040161477991815260200190565b602060405180830381865afa158015614796573d6000803e3d6000fd5b505050506040513d601f19601f820116820180604052508101906147ba9190615ac1565b60c08201526000546040516001600160a01b039091169063bd02d0f5908490614809906020016020808252600f908201526e504f534954494f4e535f424153495360881b604082015260600190565b60405160208183030381529060405280519060200120604051602001614839929190918252602082015260400190565b604051602081830303815290604052805190602001206040518263ffffffff1660e01b815260040161486d91815260200190565b602060405180830381865afa15801561488a573d6000803e3d6000fd5b505050506040513d601f19601f820116820180604052508101906148ae9190615ac1565b60e0820152919050565b60008160a001516000036148d55750670de0b6b3a7640000919050565b6000805460408085015190516001600160a01b03909216916321f8a721919061490090602001615c29565b60405160208183030381529060405280519060200120604051602001614930929190918252602082015260400190565b604051602081830303815290604052805190602001206040518263ffffffff1660e01b815260040161496491815260200190565b602060405180830381865afa158015614981573d6000803e3d6000fd5b505050506040513d601f19601f820116820180604052508101906149a59190615aa4565b6000805460405192935090916001600160a01b03909116906321f8a721906149cf90602001615a86565b604051602081830303815290604052805190602001206040518263ffffffff1660e01b8152600401614a0391815260200190565b602060405180830381865afa158015614a20573d6000803e3d6000fd5b505050506040513d601f19601f82011682018060405250810190614a449190615aa4565b90506000816001600160a01b0316637dc0d1d06040518163ffffffff1660e01b8152600401602060405180830381865afa158015614a86573d6000803e3d6000fd5b505050506040513d601f19601f82011682018060405250810190614aaa9190615aa4565b60008054606088015160405193945091926001600160a01b039091169163bd02d0f591614ad990602001615bc5565b60405160208183030381529060405280519060200120604051602001614b00929190615ada565b604051602081830303815290604052805190602001206040518263ffffffff1660e01b8152600401614b3491815260200190565b602060405180830381865afa158015614b51573d6000803e3d6000fd5b505050506040513d601f19601f82011682018060405250810190614b759190615ac1565b90506000846001600160a01b031663e7ee6ad68860c001516040518263ffffffff1660e01b8152600401614bab91815260200190565b602060405180830381865afa158015614bc8573d6000803e3d6000fd5b505050506040513d601f19601f82011682018060405250810190614bec9190615ac1565b600154606089015160808a0151604051630f8b27d760e01b81529394506000936001600160a01b0390931692630f8b27d792614c2c929091600401615ada565b602060405180830381865afa158015614c49573d6000803e3d6000fd5b505050506040513d601f19601f82011682018060405250810190614c6d9190615ac1565b90506000670de0b6b3a764000084614c858486615bb2565b614c8f9190615bf0565b614c999190615c07565b90506000856001600160a01b031663313ce5676040518163ffffffff1660e01b8152600401602060405180830381865afa158015614cdb573d6000803e3d6000fd5b505050506040513d601f19601f82011682018060405250810190614cff9190615d96565b614d0a90600a615e9d565b866001600160a01b03166350d25bcd6040518163ffffffff1660e01b8152600401602060405180830381865afa158015614d48573d6000803e3d6000fd5b505050506040513d601f19601f82011682018060405250810190614d6c9190615ac1565b614d7e90670de0b6b3a7640000615bf0565b614d889190615c07565b90506000876001600160a01b03166338d52e0f6040518163ffffffff1660e01b8152600401602060405180830381865afa158015614dca573d6000803e3d6000fd5b505050506040513d601f19601f82011682018060405250810190614dee9190615aa4565b6001600160a01b031663313ce5676040518163ffffffff1660e01b8152600401602060405180830381865afa158015614e2b573d6000803e3d6000fd5b505050506040513d601f19601f82011682018060405250810190614e4f9190615d96565b614e5a90600a615e9d565b60a08c0151614e7190670de0b6b3a7640000615bf0565b614e7b9190615c07565b90506000670de0b6b3a764000083670de0b6b3a76400008b6001600160a01b0316634bb700966040518163ffffffff1660e01b8152600401602060405180830381865afa158015614ed0573d6000803e3d6000fd5b505050506040513d601f19601f82011682018060405250810190614ef49190615ac1565b614efe9086615bf0565b614f089190615c07565b614f129190615bf0565b614f1c9190615c07565b905080614f3185670de0b6b3a7640000615bf0565b614f3b9190615c07565b9c9b505050505050505050505050565b80600003614f5857505050565b826001600160a01b03166323b872dd8360008054906101000a90046001600160a01b03166001600160a01b03166321f8a721604051602001614f9990615b7e565b604051602081830303815290604052805190602001206040518263ffffffff1660e01b8152600401614fcd91815260200190565b602060405180830381865afa158015614fea573d6000803e3d6000fd5b505050506040513d601f19601f8201168201806040525081019061500e9190615aa4565b846040518463ffffffff1660e01b815260040161502d93929190615caf565b6020604051808303816000875af115801561504c573d6000803e3d6000fd5b505050506040513d601f19601f820116820180604052508101906150709190615af3565b61508d576040516312171d8360e31b815260040160405180910390fd5b505050565b8060000361509f57505050565b60405163a9059cbb60e01b81526001600160a01b0384169063a9059cbb9061502d9085908590600401615ada565b6000546040516001600160a01b039091169063ca446dd9908490615117906020016020808252600f908201526e2827a9a4aa24a7a729afa7aba722a960891b604082015260600190565b60405160208183030381529060405280519060200120604051602001615147929190918252602082015260400190565b60408051601f1981840301815290829052805160209091012084516001600160e01b031960e085901b168352615191926004019182526001600160a01b0316602082015260400190565b6020604051808303816000875af11580156151b0573d6000803e3d6000fd5b505050506040513d601f19601f820116820180604052508101906151d49190615aa4565b506000546040516001600160a01b039091169063e2a4853a90849061521f906020016020808252600f908201526e1413d4d2551253d394d7d4d5105495608a1b604082015260600190565b6040516020818303038152906040528051906020012060405160200161524f929190918252602082015260400190565b6040516020818303038152906040528051906020012083602001516040518363ffffffff1660e01b8152600401615290929190918252602082015260400190565b600060405180830381600087803b1580156152aa57600080fd5b505af11580156152be573d6000803e3d6000fd5b50506000546040516001600160a01b03909116925063e2a4853a9150849061530f90602001602080825260129082015271504f534954494f4e535f535452415445475960701b604082015260600190565b6040516020818303038152906040528051906020012060405160200161533f929190918252602082015260400190565b60408051601f198184030181528282528051602090910120908501516001600160e01b031960e085901b16835261538192600401918252602082015260400190565b600060405180830381600087803b15801561539b57600080fd5b505af11580156153af573d6000803e3d6000fd5b50506000546040516001600160a01b03909116925063ca446dd9915084906153fd906020016020808252600f908201526e2827a9a4aa24a7a729afaa27a5a2a760891b604082015260600190565b6040516020818303038152906040528051906020012060405160200161542d929190918252602082015260400190565b6040516020818303038152906040528051906020012083606001516040518363ffffffff1660e01b81526004016154779291909182526001600160a01b0316602082015260400190565b6020604051808303816000875af1158015615496573d6000803e3d6000fd5b505050506040513d601f19601f820116820180604052508101906154ba9190615aa4565b506000546040516001600160a01b039091169063e2a4853a90849061550a906020016020808252601490820152731413d4d2551253d394d7d0d3d31310551154905360621b604082015260600190565b6040516020818303038152906040528051906020012060405160200161553a929190918252602082015260400190565b6040516020818303038152906040528051906020012083608001516040518363ffffffff1660e01b815260040161557b929190918252602082015260400190565b600060405180830381600087803b15801561559557600080fd5b505af11580156155a9573d6000803e3d6000fd5b50506000546040516001600160a01b03909116925063e2a4853a915084906155f89060200160208082526010908201526f504f534954494f4e535f424f52524f5760801b604082015260600190565b60405160208183030381529060405280519060200120604051602001615628929190918252602082015260400190565b604051602081830303815290604052805190602001208360a001516040518363ffffffff1660e01b8152600401615669929190918252602082015260400190565b600060405180830381600087803b15801561568357600080fd5b505af1158015615697573d6000803e3d6000fd5b50506000546040516001600160a01b03909116925063e2a4853a915084906156e69060200160208082526010908201526f504f534954494f4e535f53484152455360801b604082015260600190565b60405160208183030381529060405280519060200120604051602001615716929190918252602082015260400190565b604051602081830303815290604052805190602001208360c001516040518363ffffffff1660e01b8152600401615757929190918252602082015260400190565b600060405180830381600087803b15801561577157600080fd5b505af1158015615785573d6000803e3d6000fd5b50506000546040516001600160a01b03909116925063e2a4853a915084906157d3906020016020808252600f908201526e504f534954494f4e535f424153495360881b604082015260600190565b60405160208183030381529060405280519060200120604051602001615803929190918252602082015260400190565b604051602081830303815290604052805190602001208360e001516040518363ffffffff1660e01b8152600401615844929190918252602082015260400190565b600060405180830381600087803b15801561585e57600080fd5b505af1158015615872573d6000803e3d6000fd5b505050505050565b6000818310615889578161588b565b825b90505b92915050565b60405180610100016040528060006001600160a01b03168152602001600081526020016000815260200160006001600160a01b03168152602001600081526020016000815260200160008152602001600081525090565b6001600160a01b038116811461590057600080fd5b50565b60006020828403121561591557600080fd5b81356107be816158eb565b6000806040838503121561593357600080fd5b50508035926020909101359150565b60006020828403121561595457600080fd5b5035919050565b6000806000806080858703121561597157600080fd5b843593506020850135615983816158eb565b93969395505050506040820135916060013590565b600080604083850312156159ab57600080fd5b82356159b6816158eb565b946020939093013593505050565b600080604083850312156159d757600080fd5b8235915060208301356159e9816158eb565b809150509250929050565b600080600060608486031215615a0957600080fd5b505081359360208301359350604090920135919050565b60005b83811015615a3b578181015183820152602001615a23565b50506000910152565b60018060a01b03831681526040602082015260008251806040840152615a71816060850160208701615a20565b601f01601f1916919091016060019392505050565b6020808252600490820152631413d3d360e21b604082015260600190565b600060208284031215615ab657600080fd5b81516107be816158eb565b600060208284031215615ad357600080fd5b5051919050565b6001600160a01b03929092168252602082015260400190565b600060208284031215615b0557600080fd5b815180151581146107be57600080fd5b6001600160a01b039390931683526020830191909152604082015260600190565b60208082526006908201526553544154555360d01b604082015260600190565b6020808252600e908201526d0434f4c4c41544552414c5f4341560941b604082015260600190565b60208082526004908201526342414e4b60e01b604082015260600190565b634e487b7160e01b600052601160045260246000fd5b8082018082111561588e5761588e615b9c565b60208082526011908201527021a7a62620aa22a920a62fa320a1aa27a960791b604082015260600190565b808202811582820484141761588e5761588e615b9c565b600082615c2457634e487b7160e01b600052601260045260246000fd5b500490565b602080825260129082015271535452415445474945535f4144445245535360701b604082015260600190565b602080825260119082015270535452415445474945535f53544154555360781b604082015260600190565b6000600160ff1b8201615c9557615c95615b9c565b5060000390565b8181038181111561588e5761588e615b9c565b6001600160a01b039384168152919092166020820152604081019190915260600190565b634e487b7160e01b600052604160045260246000fd5b600060208284031215615cfb57600080fd5b815167ffffffffffffffff80821115615d1357600080fd5b818401915084601f830112615d2757600080fd5b815181811115615d3957615d39615cd3565b604051601f8201601f19908116603f01168101908382118183101715615d6157615d61615cd3565b81604052828152876020848701011115615d7a57600080fd5b615d8b836020830160208801615a20565b979650505050505050565b600060208284031215615da857600080fd5b815160ff811681146107be57600080fd5b600181815b80851115615df4578160001904821115615dda57615dda615b9c565b80851615615de757918102915b93841c9390800290615dbe565b509250929050565b600082615e0b5750600161588e565b81615e185750600061588e565b8160018114615e2e5760028114615e3857615e54565b600191505061588e565b60ff841115615e4957615e49615b9c565b50506001821b61588e565b5060208310610133831016604e8410600b8410161715615e77575081810a61588e565b615e818383615db9565b8060001904821115615e9557615e95615b9c565b029392505050565b600061588b60ff841683615dfc56fef4e19ede40924a2a7d87ad305b0b003ece3bf303f7c698c3931c0e7a9c2fde00a26469706673582212205b3a554c0d16f9430d0e275d64b337ae20092485d439f207c1ad25834547b43864736f6c63430008110033","linkReferences":{}},"methodIdentifiers":{"STATUS_LIQUIDATE()":"239aaddd","STATUS_LIVE()":"9f721770","STATUS_PAUSED()":"934b57d6","STATUS_WITHDRAW()":"7d5ad9be","closeCollateralPadding()":"b6a69f82","collateralSetCap(address,uint256)":"ae5e35db","collateralSetFactor(address,uint256)":"5e2ce15e","collect(address)":"06ec16f8","edit(uint256,int256,int256)":"a38b9966","exec(address)":"6bb6126e","file(bytes32,address)":"d4e8be83","file(bytes32,uint256)":"29ae8114","getPool()":"026b1d5f","getPosition(uint256)":"eb02c301","getStrategy(uint256)":"cfc0cc34","helper()":"63b0e66a","kill(uint256)":"d29a0025","killCollateralPadding()":"3660fa26","killRepayment(uint256)":"735b8c93","life(uint256)":"22272024","open(uint256,address,uint256,uint256)":"5bae2931","performanceFee()":"87788782","slippage()":"3e032a3b","store()":"975057e7","strategyNew(uint256,address)":"9647289e","strategyProxy()":"cb14cd0a","strategySetCap(uint256,uint256)":"1e95a99b","strategySetStatus(uint256,uint256)":"ceb4ea4a","strategyUgrade(uint256,address)":"b09e6dd2","whitelist()":"93e59dc1"},"id":3}