{"abi":[{"type":"constructor","inputs":[],"stateMutability":"nonpayable"},{"type":"function","name":"batchWhitelist","inputs":[{"name":"addresses","type":"address[]","internalType":"address[]"},{"name":"status","type":"bool","internalType":"bool"}],"outputs":[],"stateMutability":"nonpayable"},{"type":"function","name":"check","inputs":[{"name":"user","type":"address","internalType":"address"}],"outputs":[{"name":"","type":"bool","internalType":"bool"}],"stateMutability":"view"},{"type":"function","name":"exec","inputs":[{"name":"","type":"address","internalType":"address"}],"outputs":[{"name":"","type":"bool","internalType":"bool"}],"stateMutability":"view"},{"type":"function","name":"file","inputs":[{"name":"what","type":"bytes32","internalType":"bytes32"},{"name":"data","type":"address","internalType":"address"}],"outputs":[],"stateMutability":"nonpayable"},{"type":"function","name":"whitelist","inputs":[{"name":"","type":"address","internalType":"address"}],"outputs":[{"name":"","type":"bool","internalType":"bool"}],"stateMutability":"view"},{"type":"event","name":"BatchWhitelist","inputs":[{"name":"addresses","type":"address[]","indexed":false,"internalType":"address[]"},{"name":"status","type":"bool","indexed":false,"internalType":"bool"}],"anonymous":false},{"type":"event","name":"File","inputs":[{"name":"what","type":"bytes32","indexed":true,"internalType":"bytes32"},{"name":"data","type":"address","indexed":false,"internalType":"address"}],"anonymous":false},{"type":"error","name":"InvalidFile","inputs":[]},{"type":"error","name":"Unauthorized","inputs":[]}],"bytecode":{"object":"0x608060405234801561001057600080fd5b50336000908152602081905260409020805460ff191660011790556105138061003a6000396000f3fe608060405234801561001057600080fd5b50600436106100575760003560e01c80636bb6126e1461005c5780639b19251a14610093578063b5adce3f146100b6578063c23697a8146100cb578063d4e8be83146100f7575b600080fd5b61007f61006a366004610301565b60006020819052908152604090205460ff1681565b604051901515815260200160405180910390f35b61007f6100a1366004610301565b60016020526000908152604090205460ff1681565b6100c96100c4366004610349565b61010a565b005b61007f6100d9366004610301565b6001600160a01b031660009081526001602052604090205460ff1690565b6100c9610105366004610420565b6101e0565b3360009081526020819052604090205460ff16610139576040516282b42960e81b815260040160405180910390fd5b815160005b818110156101a157826001600086848151811061015d5761015d61044c565b6020908102919091018101516001600160a01b03168252810191909152604001600020805460ff19169115159190911790558061019981610462565b91505061013e565b507f1ae0cca7203470654b7b2c254cc92311095a46ae247da5a641539da0c612eb1683836040516101d3929190610489565b60405180910390a1505050565b3360009081526020819052604090205460ff1661020f576040516282b42960e81b815260040160405180910390fd5b81636578656360e01b0361024a576001600160a01b0381166000908152602081905260409020805460ff19811660ff909116151790556102a3565b81681dda1a5d195b1a5cdd60ba1b0361028a576001600160a01b0381166000908152600160205260409020805460ff19811660ff909116151790556102a3565b6040516302bfa98160e41b815260040160405180910390fd5b6040516001600160a01b038216815282907f8fef588b5fc1afbf5b2f06c1a435d513f208da2e6704c3d8f0e0ec91167066ba9060200160405180910390a25050565b80356001600160a01b03811681146102fc57600080fd5b919050565b60006020828403121561031357600080fd5b61031c826102e5565b9392505050565b634e487b7160e01b600052604160045260246000fd5b803580151581146102fc57600080fd5b6000806040838503121561035c57600080fd5b823567ffffffffffffffff8082111561037457600080fd5b818501915085601f83011261038857600080fd5b813560208282111561039c5761039c610323565b8160051b604051601f19603f830116810181811086821117156103c1576103c1610323565b6040529283528183019350848101820192898411156103df57600080fd5b948201945b83861015610404576103f5866102e5565b855294820194938201936103e4565b96506104139050878201610339565b9450505050509250929050565b6000806040838503121561043357600080fd5b82359150610443602084016102e5565b90509250929050565b634e487b7160e01b600052603260045260246000fd5b60006001820161048257634e487b7160e01b600052601160045260246000fd5b5060010190565b604080825283519082018190526000906020906060840190828701845b828110156104cb5781516001600160a01b0316845292840192908401906001016104a6565b5050509315159201919091525091905056fea2646970667358221220fe3e92d8db08f0da7decb9d9e396c8166e28bfd21e8b7c0b29c747bcbf22eb5f64736f6c63430008110033","linkReferences":{}},"methodIdentifiers":{"batchWhitelist(address[],bool)":"b5adce3f","check(address)":"c23697a8","exec(address)":"6bb6126e","file(bytes32,address)":"d4e8be83","whitelist(address)":"9b19251a"},"id":11}