{"abi":[{"type":"constructor","inputs":[{"name":"_investor","type":"address","internalType":"address"}],"stateMutability":"nonpayable"},{"type":"function","name":"approve","inputs":[{"name":"spender","type":"address","internalType":"address"},{"name":"id","type":"uint256","internalType":"uint256"}],"outputs":[],"stateMutability":"nonpayable"},{"type":"function","name":"balanceOf","inputs":[{"name":"owner","type":"address","internalType":"address"}],"outputs":[{"name":"","type":"uint256","internalType":"uint256"}],"stateMutability":"view"},{"type":"function","name":"burn","inputs":[{"name":"id","type":"uint256","internalType":"uint256"}],"outputs":[],"stateMutability":"nonpayable"},{"type":"function","name":"edit","inputs":[{"name":"id","type":"uint256","internalType":"uint256"},{"name":"borrow","type":"int256","internalType":"int256"},{"name":"collateral","type":"int256","internalType":"int256"}],"outputs":[],"stateMutability":"nonpayable"},{"type":"function","name":"exec","inputs":[{"name":"","type":"address","internalType":"address"}],"outputs":[{"name":"","type":"bool","internalType":"bool"}],"stateMutability":"view"},{"type":"function","name":"file","inputs":[{"name":"what","type":"bytes32","internalType":"bytes32"},{"name":"data","type":"address","internalType":"address"}],"outputs":[],"stateMutability":"nonpayable"},{"type":"function","name":"forceBurn","inputs":[{"name":"id","type":"uint256","internalType":"uint256"}],"outputs":[],"stateMutability":"nonpayable"},{"type":"function","name":"getApproved","inputs":[{"name":"","type":"uint256","internalType":"uint256"}],"outputs":[{"name":"","type":"address","internalType":"address"}],"stateMutability":"view"},{"type":"function","name":"investor","inputs":[],"outputs":[{"name":"","type":"address","internalType":"contract IInvestor"}],"stateMutability":"view"},{"type":"function","name":"isApprovedForAll","inputs":[{"name":"","type":"address","internalType":"address"},{"name":"","type":"address","internalType":"address"}],"outputs":[{"name":"","type":"bool","internalType":"bool"}],"stateMutability":"view"},{"type":"function","name":"name","inputs":[],"outputs":[{"name":"","type":"string","internalType":"string"}],"stateMutability":"view"},{"type":"function","name":"open","inputs":[{"name":"strategy","type":"uint256","internalType":"uint256"},{"name":"token","type":"address","internalType":"address"},{"name":"collateral","type":"uint256","internalType":"uint256"},{"name":"borrow","type":"uint256","internalType":"uint256"},{"name":"to","type":"address","internalType":"address"}],"outputs":[{"name":"","type":"uint256","internalType":"uint256"}],"stateMutability":"nonpayable"},{"type":"function","name":"ownerOf","inputs":[{"name":"id","type":"uint256","internalType":"uint256"}],"outputs":[{"name":"owner","type":"address","internalType":"address"}],"stateMutability":"view"},{"type":"function","name":"safeTransferFrom","inputs":[{"name":"from","type":"address","internalType":"address"},{"name":"to","type":"address","internalType":"address"},{"name":"id","type":"uint256","internalType":"uint256"}],"outputs":[],"stateMutability":"nonpayable"},{"type":"function","name":"safeTransferFrom","inputs":[{"name":"from","type":"address","internalType":"address"},{"name":"to","type":"address","internalType":"address"},{"name":"id","type":"uint256","internalType":"uint256"},{"name":"data","type":"bytes","internalType":"bytes"}],"outputs":[],"stateMutability":"nonpayable"},{"type":"function","name":"setApprovalForAll","inputs":[{"name":"operator","type":"address","internalType":"address"},{"name":"approved","type":"bool","internalType":"bool"}],"outputs":[],"stateMutability":"nonpayable"},{"type":"function","name":"supportsInterface","inputs":[{"name":"interfaceId","type":"bytes4","internalType":"bytes4"}],"outputs":[{"name":"","type":"bool","internalType":"bool"}],"stateMutability":"pure"},{"type":"function","name":"symbol","inputs":[],"outputs":[{"name":"","type":"string","internalType":"string"}],"stateMutability":"view"},{"type":"function","name":"tokenOfOwnerByIndex","inputs":[{"name":"owner","type":"address","internalType":"address"},{"name":"index","type":"uint256","internalType":"uint256"}],"outputs":[{"name":"","type":"uint256","internalType":"uint256"}],"stateMutability":"view"},{"type":"function","name":"tokenURI","inputs":[{"name":"id","type":"uint256","internalType":"uint256"}],"outputs":[{"name":"","type":"string","internalType":"string"}],"stateMutability":"view"},{"type":"function","name":"tokensOfOwner","inputs":[{"name":"owner","type":"address","internalType":"address"},{"name":"start","type":"uint256","internalType":"uint256"},{"name":"end","type":"uint256","internalType":"uint256"}],"outputs":[{"name":"v","type":"uint256[]","internalType":"uint256[]"}],"stateMutability":"view"},{"type":"function","name":"transferFrom","inputs":[{"name":"from","type":"address","internalType":"address"},{"name":"to","type":"address","internalType":"address"},{"name":"id","type":"uint256","internalType":"uint256"}],"outputs":[],"stateMutability":"nonpayable"},{"type":"function","name":"whitelist","inputs":[],"outputs":[{"name":"","type":"address","internalType":"contract IWhitelist"}],"stateMutability":"view"},{"type":"event","name":"Approval","inputs":[{"name":"owner","type":"address","indexed":true,"internalType":"address"},{"name":"spender","type":"address","indexed":true,"internalType":"address"},{"name":"id","type":"uint256","indexed":true,"internalType":"uint256"}],"anonymous":false},{"type":"event","name":"ApprovalForAll","inputs":[{"name":"owner","type":"address","indexed":true,"internalType":"address"},{"name":"operator","type":"address","indexed":true,"internalType":"address"},{"name":"approved","type":"bool","indexed":false,"internalType":"bool"}],"anonymous":false},{"type":"event","name":"File","inputs":[{"name":"what","type":"bytes32","indexed":true,"internalType":"bytes32"},{"name":"data","type":"address","indexed":false,"internalType":"address"}],"anonymous":false},{"type":"event","name":"Transfer","inputs":[{"name":"from","type":"address","indexed":true,"internalType":"address"},{"name":"to","type":"address","indexed":true,"internalType":"address"},{"name":"id","type":"uint256","indexed":true,"internalType":"uint256"}],"anonymous":false},{"type":"error","name":"InvalidFile","inputs":[]},{"type":"error","name":"NotWhitelisted","inputs":[]},{"type":"error","name":"TransferFailed","inputs":[]},{"type":"error","name":"Unauthorized","inputs":[]}],"bytecode":{"object":"0x60806040523480156200001157600080fd5b50604051620038cc380380620038cc833981016040819052620000349162000071565b600080546001600160a01b0319166001600160a01b0392909216919091178155338152600260205260409020805460ff19166001179055620000a3565b6000602082840312156200008457600080fd5b81516001600160a01b03811681146200009c57600080fd5b9392505050565b61381980620000b36000396000f3fe608060405234801561001057600080fd5b506004361061014d5760003560e01c80636bb6126e116100c3578063b88d4fde1161007c578063b88d4fde14610331578063c839fe9414610344578063c87b56dd14610364578063d4e8be8314610377578063e985e9c51461038a578063fdf989f9146103b857600080fd5b80636bb6126e146102a057806370a08231146102c357806393e59dc1146102d657806395d89b41146102e9578063a22cb4651461030b578063a38b99661461031e57600080fd5b806323b872dd1161011557806323b872dd146102205780632f745c591461023357806331c10da31461025457806342842e0e1461026757806342966c681461027a5780636352211e1461028d57600080fd5b806301ffc9a71461015257806306fdde031461017a578063081812fc146101b7578063095ea7b3146101f85780631e0018d61461020d575b600080fd5b610165610160366004612290565b6103cb565b60405190151581526020015b60405180910390f35b6101aa604051806040016040528060118152602001702937b232b7902b19102837b9b4ba34b7b760791b81525081565b60405161017191906122d8565b6101e06101c536600461230b565b6006602052600090815260409020546001600160a01b031681565b6040516001600160a01b039091168152602001610171565b61020b610206366004612339565b61041d565b005b6000546101e0906001600160a01b031681565b61020b61022e366004612365565b6104e7565b610246610241366004612339565b610621565b604051908152602001610171565b61020b61026236600461230b565b61065e565b61020b610275366004612365565b61072d565b61020b61028836600461230b565b610800565b6101e061029b36600461230b565b61097b565b6101656102ae3660046123a6565b60026020526000908152604090205460ff1681565b6102466102d13660046123a6565b6109b5565b6001546101e0906001600160a01b031681565b6101aa6040518060400160405280600381526020016229281960e91b81525081565b61020b6103193660046123d1565b610a18565b61020b61032c36600461240a565b610a84565b61020b61033f366004612436565b610cfb565b6103576103523660046124d5565b610db7565b604051610171919061250a565b6101aa61037236600461230b565b610e88565b61020b61038536600461254e565b610ef0565b610165610398366004612573565b600760209081526000928352604080842090915290825290205460ff1681565b6102466103c63660046125a1565b61101a565b60006301ffc9a760e01b6001600160e01b0319831614806103fc57506380ac58cd60e01b6001600160e01b03198316145b806104175750635b5e139f60e01b6001600160e01b03198316145b92915050565b6000818152600360205260409020546001600160a01b03163381148061046657506001600160a01b038116600090815260076020908152604080832033845290915290205460ff165b61048b5760405162461bcd60e51b8152600401610482906125f7565b60405180910390fd5b60008281526006602052604080822080546001600160a01b0319166001600160a01b0387811691821790925591518593918516917f8c5be1e5ebec7d5bd14f71427d1e84f3dd0314c0f7b2291e5b200ac8c7c3b92591a4505050565b60008181526003602052604090205481906001600160a01b03163381148061053257506001600160a01b038116600090815260076020908152604080832033845290915290205460ff165b8061055357506000828152600660205260409020546001600160a01b031633145b61056f5760405162461bcd60e51b8152600401610482906125f7565b6000838152600360205260409020546001600160a01b038681169116146105c55760405162461bcd60e51b815260206004820152600a60248201526957524f4e475f46524f4d60b01b6044820152606401610482565b6001600160a01b03841661060f5760405162461bcd60e51b81526020600482015260116024820152701253959053125117d49150d25412515395607a1b6044820152606401610482565b61061a8585856112ca565b5050505050565b6001600160a01b038216600090815260056020526040812080548390811061064b5761064b61261f565b9060005260206000200154905092915050565b60008181526003602052604090205481906001600160a01b0316338114806106a957506001600160a01b038116600090815260076020908152604080832033845290915290205460ff165b806106ca57506000828152600660205260409020546001600160a01b031633145b6106e65760405162461bcd60e51b8152600401610482906125f7565b6000838152600360205260409020546001600160a01b03168061071b5760405162461bcd60e51b815260040161048290612635565b610727816000866112ca565b50505050565b6107388383836104e7565b6001600160a01b0382163b15806107df5750604051630a85bd0160e11b8082523360048301526001600160a01b03858116602484015260448301849052608060648401526000608484015290919084169063150b7a029060a401602060405180830381865afa1580156107af573d6000803e3d6000fd5b505050506040513d601f19601f820116820180604052508101906107d39190612659565b6001600160e01b031916145b6107fb5760405162461bcd60e51b815260040161048290612676565b505050565b60008181526003602052604090205481906001600160a01b03163381148061084b57506001600160a01b038116600090815260076020908152604080832033845290915290205460ff165b8061086c57506000828152600660205260409020546001600160a01b031633145b6108885760405162461bcd60e51b8152600401610482906125f7565b6000805460405163eb02c30160e01b8152600481018690526001600160a01b039091169063eb02c3019060240161010060405180830381865afa1580156108d3573d6000803e3d6000fd5b505050506040513d601f19601f820116820180604052508101906108f791906126c1565b9050806080015160001461093a5760405162461bcd60e51b815260206004820152600a6024820152691393d517d0d313d4d15160b21b6044820152606401610482565b6000848152600360205260409020546001600160a01b03168061096f5760405162461bcd60e51b815260040161048290612635565b61061a816000876112ca565b6000818152600360205260409020546001600160a01b0316806109b05760405162461bcd60e51b815260040161048290612635565b919050565b60006001600160a01b0382166109fc5760405162461bcd60e51b815260206004820152600c60248201526b5a45524f5f4144445245535360a01b6044820152606401610482565b506001600160a01b031660009081526004602052604090205490565b3360008181526007602090815260408083206001600160a01b03871680855290835292819020805460ff191686151590811790915590519081529192917f17307eab39ab6107e8899845ad3d59bd9653f200f220920489ca2b5937696c31910160405180910390a35050565b60008381526003602052604090205483906001600160a01b031633811480610acf57506001600160a01b038116600090815260076020908152604080832033845290915290205460ff165b80610af057506000828152600660205260409020546001600160a01b031633145b610b0c5760405162461bcd60e51b8152600401610482906125f7565b6000805460405163eb02c30160e01b8152600481018890526001600160a01b039091169063eb02c3019060240161010060405180830381865afa158015610b57573d6000803e3d6000fd5b505050506040513d601f19601f82011682018060405250810190610b7b91906126c1565b90506000841315610ba357610b95816060015133866114aa565b610ba3816060015185611540565b6000546040516351c5ccb360e11b81526004810188905260248101879052604481018690526001600160a01b039091169063a38b996690606401600060405180830381600087803b158015610bf757600080fd5b505af1158015610c0b573d6000803e3d6000fd5b50505050610c1d8160600151336115d8565b6000546040805163026b1d5f60e01b81529051610cf3926001600160a01b03169163026b1d5f9160048083019260209291908290030181865afa158015610c68573d6000803e3d6000fd5b505050506040513d601f19601f82011682018060405250810190610c8c9190612764565b6001600160a01b03166338d52e0f6040518163ffffffff1660e01b8152600401602060405180830381865afa158015610cc9573d6000803e3d6000fd5b505050506040513d601f19601f82011682018060405250810190610ced9190612764565b336115d8565b505050505050565b610d068585856104e7565b6001600160a01b0384163b1580610d9b5750604051630a85bd0160e11b808252906001600160a01b0386169063150b7a0290610d4e9033908a90899089908990600401612781565b602060405180830381865afa158015610d6b573d6000803e3d6000fd5b505050506040513d601f19601f82011682018060405250810190610d8f9190612659565b6001600160e01b031916145b61061a5760405162461bcd60e51b815260040161048290612676565b6060610dc383836127eb565b67ffffffffffffffff811115610ddb57610ddb6126a0565b604051908082528060200260200182016040528015610e04578160200160208202803683370190505b509050825b82811015610e80576001600160a01b0385166000908152600560205260409020805482908110610e3b57610e3b61261f565b9060005260206000200154828583610e5391906127eb565b81518110610e6357610e6361261f565b602090810291909101015280610e78816127fe565b915050610e09565b509392505050565b60606000610e95836116e5565b9050610ec9610ea384611721565b82604051602001610eb5929190612833565b60405160208183030381529060405261182a565b604051602001610ed9919061296f565b604051602081830303815290604052915050919050565b3360009081526002602052604090205460ff16610f1f576040516282b42960e81b815260040160405180910390fd5b81636578656360e01b03610f5a576001600160a01b0381166000908152600260205260409020805460ff19811660ff90911615179055610fd8565b816734b73b32b9ba37b960c11b03610f8c57600080546001600160a01b0319166001600160a01b038316179055610fd8565b81681dda1a5d195b1a5cdd60ba1b03610fbf57600180546001600160a01b0319166001600160a01b038316179055610fd8565b6040516302bfa98160e41b815260040160405180910390fd5b6040516001600160a01b038216815282907f8fef588b5fc1afbf5b2f06c1a435d513f208da2e6704c3d8f0e0ec91167066ba9060200160405180910390a25050565b6001546000906001600160a01b0316156110b757600154604051631846d2f560e31b81523360048201526001600160a01b039091169063c23697a890602401602060405180830381865afa158015611076573d6000803e3d6000fd5b505050506040513d601f19601f8201168201806040525081019061109a91906129b4565b6110b757604051630b094f2760e31b815260040160405180910390fd5b6110c28533866114aa565b6110cc8585611540565b60008054604051635bae293160e01b8152600481018990526001600160a01b038881166024830152604482018890526064820187905290911690635bae2931906084016020604051808303816000875af115801561112e573d6000803e3d6000fd5b505050506040513d601f19601f8201168201806040525081019061115291906129d1565b90506001600160a01b03831661119e5760405162461bcd60e51b81526020600482015260116024820152701253959053125117d49150d25412515395607a1b6044820152606401610482565b6000818152600360205260409020546001600160a01b0316156111f45760405162461bcd60e51b815260206004820152600e60248201526d1053149150511657d3525395115160921b6044820152606401610482565b611200600084836112ca565b6001600160a01b0383163b15806112a45750604051630a85bd0160e11b80825233600483015260006024830181905260448301849052608060648401526084830152906001600160a01b0385169063150b7a029060a401602060405180830381865afa158015611274573d6000803e3d6000fd5b505050506040513d601f19601f820116820180604052508101906112989190612659565b6001600160e01b031916145b6112c05760405162461bcd60e51b815260040161048290612676565b9695505050505050565b6001600160a01b038316156113de576001600160a01b03831660009081526004602090815260408083208054600019019055600582528083208484526001818101909352908320549092909161132090836127eb565b8354909150600090611334906001906127eb565b90508082146113995760008460000182815481106113545761135461261f565b90600052602060002001549050808560000184815481106113775761137761261f565b6000918252602080832090910192909255918252600186019052604090208390555b83548490806113aa576113aa6129ea565b6001900381819060005260206000200160009055905583600101600086815260200190815260200160002060009055505050505b6001600160a01b03821615611439576001600160a01b03821660009081526004602090815260408083208054600190810190915560058352818420805480830182558186528486200186905580548686529101909252909120555b600081815260066020908152604080832080546001600160a01b0319908116909155600390925280832080546001600160a01b038781169190941681179091559051849391928716917fddf252ad1be2c89b69c2b068fc378daa952ba7f163c4a11628f55a4df523b3ef91a4505050565b6040516323b872dd60e01b81526001600160a01b038381166004830152306024830152604482018390528416906323b872dd906064016020604051808303816000875af11580156114ff573d6000803e3d6000fd5b505050506040513d601f19601f8201168201806040525081019061152391906129b4565b6107fb576040516312171d8360e31b815260040160405180910390fd5b60005460405163095ea7b360e01b81526001600160a01b039182166004820152602481018390529083169063095ea7b3906044016020604051808303816000875af1158015611593573d6000803e3d6000fd5b505050506040513d601f19601f820116820180604052508101906115b791906129b4565b6115d4576040516312171d8360e31b815260040160405180910390fd5b5050565b6040516370a0823160e01b815230600482015282906000906001600160a01b038316906370a0823190602401602060405180830381865afa158015611621573d6000803e3d6000fd5b505050506040513d601f19601f8201168201806040525081019061164591906129d1565b90506000811180156116c7575060405163a9059cbb60e01b81526001600160a01b0384811660048301526024820183905283169063a9059cbb906044016020604051808303816000875af11580156116a1573d6000803e3d6000fd5b505050506040513d601f19601f820116820180604052508101906116c591906129b4565b155b15610727576040516312171d8360e31b815260040160405180910390fd5b60606104176116f38361197d565b6116fc84611b05565b61170585611cd0565b61170e866120d7565b604051602001610eb59493929190612a00565b6060816000036117485750506040805180820190915260018152600360fc1b602082015290565b8160005b8115611772578061175c816127fe565b915061176b9050600a83612eda565b915061174c565b60008167ffffffffffffffff81111561178d5761178d6126a0565b6040519080825280601f01601f1916602001820160405280156117b7576020820181803683370190505b5090505b8415611822576117cc6001836127eb565b91506117d9600a86612eee565b6117e4906030612f02565b60f81b8183815181106117f9576117f961261f565b60200101906001600160f81b031916908160001a90535061181b600a86612eda565b94506117bb565b949350505050565b6060815160000361184957505060408051602081019091526000815290565b60006040518060600160405280604081526020016137a460409139905060006003845160026118789190612f02565b6118829190612eda565b61188d906004612f15565b67ffffffffffffffff8111156118a5576118a56126a0565b6040519080825280601f01601f1916602001820160405280156118cf576020820181803683370190505b509050600182016020820185865187015b8082101561193b576003820191508151603f8160121c168501518453600184019350603f81600c1c168501518453600184019350603f8160061c168501518453600184019350603f81168501518453506001830192506118e0565b5050600386510660018114611957576002811461196a57611972565b603d6001830353603d6002830353611972565b603d60018303535b509195945050505050565b6000805460405163eb02c30160e01b815260048101849052606092916001600160a01b03169063eb02c3019060240161010060405180830381865afa1580156119ca573d6000803e3d6000fd5b505050506040513d601f19601f820116820180604052508101906119ee91906126c1565b6000805460408381015190516333f0330d60e21b8152600481019190915292935090916001600160a01b039091169063cfc0cc3490602401606060405180830381865afa158015611a43573d6000803e3d6000fd5b505050506040513d601f19601f82011682018060405250810190611a679190612f2c565b9050611a7284611721565b81600001516001600160a01b03166306fdde036040518163ffffffff1660e01b8152600401600060405180830381865afa158015611ab4573d6000803e3d6000fd5b505050506040513d6000823e601f3d908101601f19168201604052611adc9190810190612f8e565b604051602001611aed92919061303b565b60405160208183030381529060405292505050919050565b6000805460405163eb02c30160e01b815260048101849052606092916001600160a01b03169063eb02c3019060240161010060405180830381865afa158015611b52573d6000803e3d6000fd5b505050506040513d601f19601f82011682018060405250810190611b7691906126c1565b6000805460408381015190516333f0330d60e21b8152600481019190915292935090916001600160a01b039091169063cfc0cc3490602401606060405180830381865afa158015611bcb573d6000803e3d6000fd5b505050506040513d601f19601f82011682018060405250810190611bef9190612f2c565b805160c08401516040516373f7356b60e11b81526004810191909152919250600091611c72916001600160a01b03169063e7ee6ad690602401602060405180830381865afa158015611c45573d6000803e3d6000fd5b505050506040513d601f19601f82011682018060405250810190611c6991906129d1565b601260026121a5565b9050600081516007611c849190612f02565b9050611ca4611c94826004612f02565b611c9f906007612f15565b611721565b82604051602001611cb69291906131a7565b604051602081830303815290604052945050505050919050565b6000805460405163eb02c30160e01b815260048101849052606092916001600160a01b03169063eb02c3019060240161010060405180830381865afa158015611d1d573d6000803e3d6000fd5b505050506040513d601f19601f82011682018060405250810190611d4191906126c1565b905060008060009054906101000a90046001600160a01b03166001600160a01b031663026b1d5f6040518163ffffffff1660e01b8152600401602060405180830381865afa158015611d97573d6000803e3d6000fd5b505050506040513d601f19601f82011682018060405250810190611dbb9190612764565b90506000816001600160a01b0316637dc0d1d06040518163ffffffff1660e01b8152600401602060405180830381865afa158015611dfd573d6000803e3d6000fd5b505050506040513d601f19601f82011682018060405250810190611e219190612764565b90506000816001600160a01b031663313ce5676040518163ffffffff1660e01b8152600401602060405180830381865afa158015611e63573d6000803e3d6000fd5b505050506040513d601f19601f82011682018060405250810190611e879190613338565b611e9290600a61343f565b826001600160a01b03166350d25bcd6040518163ffffffff1660e01b8152600401602060405180830381865afa158015611ed0573d6000803e3d6000fd5b505050506040513d601f19601f82011682018060405250810190611ef491906129d1565b846001600160a01b03166338d52e0f6040518163ffffffff1660e01b8152600401602060405180830381865afa158015611f32573d6000803e3d6000fd5b505050506040513d601f19601f82011682018060405250810190611f569190612764565b6001600160a01b031663313ce5676040518163ffffffff1660e01b8152600401602060405180830381865afa158015611f93573d6000803e3d6000fd5b505050506040513d601f19601f82011682018060405250810190611fb79190613338565b611fc290600a61343f565b670de0b6b3a7640000866001600160a01b0316634bb700966040518163ffffffff1660e01b8152600401602060405180830381865afa158015612009573d6000803e3d6000fd5b505050506040513d601f19601f8201168201806040525081019061202d91906129d1565b8860a0015161203c9190612f15565b6120469190612eda565b61205890670de0b6b3a7640000612f15565b6120629190612eda565b61206c9190612f15565b6120769190612eda565b9050600061208782601260026121a5565b90506000815160086120999190612f02565b90506120a9611c94826004612f02565b826040516020016120bb92919061344e565b6040516020818303038152906040529650505050505050919050565b60008054604051630889c80960e21b815260048101849052606092916001600160a01b031690632227202490602401602060405180830381865afa158015612123573d6000803e3d6000fd5b505050506040513d601f19601f8201168201806040525081019061214791906129d1565b9050600061215882601260026121a5565b905060008151600661216a9190612f02565b905061217a611c94826004612f02565b8260405160200161218c9291906135c1565b6040516020818303038152906040529350505050919050565b606060006121b484600a613732565b905060006121c384600a613732565b6121cd85876127eb565b6121d890600a613732565b6121e29088612eda565b6121ec9190612eee565b905060006121f982611721565b80519091505b8581101561223c5781604051602001612218919061373e565b60405160208183030381529060405291508080612234906127fe565b9150506121ff565b5061224a611c9f8489612eda565b8160405160200161225c929190613767565b60405160208183030381529060405293505050509392505050565b6001600160e01b03198116811461228d57600080fd5b50565b6000602082840312156122a257600080fd5b81356122ad81612277565b9392505050565b60005b838110156122cf5781810151838201526020016122b7565b50506000910152565b60208152600082518060208401526122f78160408501602087016122b4565b601f01601f19169190910160400192915050565b60006020828403121561231d57600080fd5b5035919050565b6001600160a01b038116811461228d57600080fd5b6000806040838503121561234c57600080fd5b823561235781612324565b946020939093013593505050565b60008060006060848603121561237a57600080fd5b833561238581612324565b9250602084013561239581612324565b929592945050506040919091013590565b6000602082840312156123b857600080fd5b81356122ad81612324565b801515811461228d57600080fd5b600080604083850312156123e457600080fd5b82356123ef81612324565b915060208301356123ff816123c3565b809150509250929050565b60008060006060848603121561241f57600080fd5b505081359360208301359350604090920135919050565b60008060008060006080868803121561244e57600080fd5b853561245981612324565b9450602086013561246981612324565b935060408601359250606086013567ffffffffffffffff8082111561248d57600080fd5b818801915088601f8301126124a157600080fd5b8135818111156124b057600080fd5b8960208285010111156124c257600080fd5b9699959850939650602001949392505050565b6000806000606084860312156124ea57600080fd5b83356124f581612324565b95602085013595506040909401359392505050565b6020808252825182820181905260009190848201906040850190845b8181101561254257835183529284019291840191600101612526565b50909695505050505050565b6000806040838503121561256157600080fd5b8235915060208301356123ff81612324565b6000806040838503121561258657600080fd5b823561259181612324565b915060208301356123ff81612324565b600080600080600060a086880312156125b957600080fd5b8535945060208601356125cb81612324565b9350604086013592506060860135915060808601356125e981612324565b809150509295509295909350565b6020808252600e908201526d1393d517d055551213d49256915160921b604082015260600190565b634e487b7160e01b600052603260045260246000fd5b6020808252600a90820152691393d517d3525395115160b21b604082015260600190565b60006020828403121561266b57600080fd5b81516122ad81612277565b60208082526010908201526f155394d0519157d49150d2541251539560821b604082015260600190565b634e487b7160e01b600052604160045260246000fd5b80516109b081612324565b60006101008083850312156126d557600080fd5b6040519081019067ffffffffffffffff821181831017156126f8576126f86126a0565b816040528351915061270982612324565b818152602084015160208201526040840151604082015261272c606085016126b6565b60608201526080840151608082015260a084015160a082015260c084015160c082015260e084015160e0820152809250505092915050565b60006020828403121561277657600080fd5b81516122ad81612324565b6001600160a01b038681168252851660208201526040810184905260806060820181905281018290526000828460a0840137600060a0848401015260a0601f19601f85011683010190509695505050505050565b634e487b7160e01b600052601160045260246000fd5b81810381811115610417576104176127d5565b600060018201612810576128106127d5565b5060010190565b600081516128298185602086016122b4565b9290920192915050565b697b226e616d65223a222360b01b8152825160009061285981600a8501602088016122b4565b7f222c226465736372697074696f6e223a2254686973204e465420726570726573600a918401918201527f656e74732061206c6576657261676564206661726d696e6720706f736974696f602a8201527f6e206f6e20526f64656f2046696e616e63652e20546865206f776e6572206f66604a8201527f2074686973204e46542063616e206d6f64696679206f722072656465656d2074606a8201527f686520706f736974696f6e2e222c22696d616765223a22000000000000000000608a8201527f646174613a696d6167652f7376672b786d6c3b6261736536342c00000000000060a182015283516129548160bb8401602088016122b4565b61227d60f01b60bb929091019182015260bd01949350505050565b7f646174613a6170706c69636174696f6e2f6a736f6e3b6261736536342c0000008152600082516129a781601d8501602087016122b4565b91909101601d0192915050565b6000602082840312156129c657600080fd5b81516122ad816123c3565b6000602082840312156129e357600080fd5b5051919050565b634e487b7160e01b600052603160045260246000fd5b7f3c7376672077696474683d2232393022206865696768743d223239302220766981527f6577426f783d2230203020323930203239302220786d6c6e733d22687474703a6020820152751797bbbbbb973b999737b933979918181817b9bb339160511b60408201527f20786d6c6e733a786c696e6b3d27687474703a2f2f7777772e77332e6f72672f60568201526b189c9c9c97bc3634b735939f60a11b60768201527f3c646566733e3c636c6970506174682069643d22636f726e657273223e3c726560828201527f63742077696474683d2232393022206865696768743d22323930222072783d2260a28201527f3432222072793d22343222202f3e3c2f636c6970506174683e3c6c696e65617260c28201527f4772616469656e742069643d2230222078313d22302e35222079313d2230222060e28201527f78323d22302e35222079323d2231223e3c73746f70206f66667365743d2230256101028201527f222073746f702d636f6c6f723d2223663361353236222f3e3c73746f70206f666101228201527f667365743d2231303025222073746f702d636f6c6f723d2223653739343062226101428201527f2f3e3c2f6c696e6561724772616469656e743e3c72616469616c4772616469656101628201527f6e742069643d223122206772616469656e745472616e73666f726d3d227472616101828201527f6e736c617465282d31202d302e3529207363616c6528322c203229223e3c73746101a28201527f6f70206f66667365743d22313025222073746f702d636f6c6f723d22236633616101c28201527f353236222f3e3c73746f70206f66667365743d2231303025222073746f702d636101e28201527f6f6c6f723d2223666663613734222f3e3c2f72616469616c4772616469656e74610202820152671f1e17b232b3399f60c11b6102228201527f3c6720636c69702d706174683d2275726c2823636f726e65727329223e3c726561022a8201527f63742066696c6c3d2275726c282330292220783d223070782220793d2230707861024a8201527f222077696474683d22323930707822206865696768743d22323930707822202f61026a8201527f3e3c726563742066696c6c3d2275726c282331292220783d223070782220793d61028a8201527f22307078222077696474683d22323930707822206865696768743d22323930706102aa8201527f7822202f3e3c656c6c697073652063783d22353025222063793d2233327078226102ca8201527f2072783d223232307078222072793d223132307078222066696c6c3d227267626102ea8201527f61283235352c3235352c3235352c302e322922206f7061636974793d22302e3861030a8201527f3522202f3e3c7265637420783d2231362220793d223136222077696474683d2261032a8201527f32353822206865696768743d22323538222072783d223236222072793d22323661034a8201527f222066696c6c3d227267626128302c302c302c302922207374726f6b653d227261036a8201527f676261283235352c3235352c3235352c302e342922202f3e000000000000000061038a82015260006112c0612eae612ea8612ea2612e9c6103a287018b612817565b89612817565b87612817565b85612817565b691e17b39f1e17b9bb339f60b11b8152600a0190565b634e487b7160e01b600052601260045260246000fd5b600082612ee957612ee9612ec4565b500490565b600082612efd57612efd612ec4565b500690565b80820180821115610417576104176127d5565b8082028115828204841417610417576104176127d5565b600060608284031215612f3e57600080fd5b6040516060810181811067ffffffffffffffff82111715612f6157612f616126a0565b6040528251612f6f81612324565b8152602083810151908201526040928301519281019290925250919050565b600060208284031215612fa057600080fd5b815167ffffffffffffffff80821115612fb857600080fd5b818401915084601f830112612fcc57600080fd5b815181811115612fde57612fde6126a0565b604051601f8201601f19908116603f01168101908382118183101715613006576130066126a0565b8160405282815287602084870101111561301f57600080fd5b6130308360208301602088016122b4565b979650505050505050565b7f3c7465787420793d22363470782220783d2233327078222066696c6c3d22776881527f6974652220666f6e742d66616d696c793d2227436f7572696572204e6577272c60208201527f206d6f6e6f73706163652220666f6e742d7765696768743d223630302220666f60408201526f6e742d73697a653d2233327078223e2360801b6060820152600083516130d88160708501602088016122b4565b7f3c2f746578743e3c7465787420793d2231313170782220783d223332707822206070918401918201527f66696c6c3d2277686974652220666f6e742d66616d696c793d2227436f75726960908201527f6572204e6577272c206d6f6e6f73706163652220666f6e742d7765696768743d60b08201527f223230302220666f6e742d73697a653d2232347078223e00000000000000000060d082015283516131878160e78401602088016122b4565b661e17ba32bc3a1f60c91b60e7929091019182015260ee01949350505050565b7f3c67207374796c653d227472616e73666f726d3a7472616e736c61746528323981527f70782c20313735707829223e3c726563742077696474683d22000000000000006020820152600083516132058160398501602088016122b4565b80830190507f707822206865696768743d2232367078222072783d22387078222072793d223860398201527f7078222066696c6c3d227267626128302c302c302c302e342922202f3e3c746560598201527f787420783d22313270782220793d22313770782220666f6e742d66616d696c7960798201527f3d2227436f7572696572204e6577272c206d6f6e6f73706163652220666f6e7460998201527f2d73697a653d2231327078222066696c6c3d227768697465223e3c747370616e60b98201527f2066696c6c3d2272676261283235352c3235352c3235352c302e3629223e566160d98201526c363ab29d101e17ba39b830b71f60991b60f9820152610106845161331981838501602089016122b4565b61303082828501016a1e17ba32bc3a1f1e17b39f60a91b8152600b0190565b60006020828403121561334a57600080fd5b815160ff811681146122ad57600080fd5b600181815b8085111561339657816000190482111561337c5761337c6127d5565b8085161561338957918102915b93841c9390800290613360565b509250929050565b6000826133ad57506001610417565b816133ba57506000610417565b81600181146133d057600281146133da576133f6565b6001915050610417565b60ff8411156133eb576133eb6127d5565b50506001821b610417565b5060208310610133831016604e8410600b8410161715613419575081810a610417565b613423838361335b565b8060001904821115613437576134376127d5565b029392505050565b60006122ad60ff84168361339e565b7f3c67207374796c653d227472616e73666f726d3a7472616e736c61746528323981527f70782c20323035707829223e3c726563742077696474683d22000000000000006020820152600083516134ac8160398501602088016122b4565b80830190507f707822206865696768743d2232367078222072783d22387078222072793d223860398201527f7078222066696c6c3d227267626128302c302c302c302e342922202f3e3c746560598201527f787420783d22313270782220793d22313770782220666f6e742d66616d696c7960798201527f3d2227436f7572696572204e6577272c206d6f6e6f73706163652220666f6e7460998201527f2d73697a653d2231327078222066696c6c3d227768697465223e3c747370616e60b98201527f2066696c6c3d2272676261283235352c3235352c3235352c302e3629223e426f60d98201526d393937bb9d101e17ba39b830b71f60911b60f9820152610107845161331981838501602089016122b4565b7f3c67207374796c653d227472616e73666f726d3a7472616e736c61746528323981527f70782c20323335707829223e3c726563742077696474683d220000000000000060208201526000835161361f8160398501602088016122b4565b80830190507f707822206865696768743d2232367078222072783d22387078222072793d223860398201527f7078222066696c6c3d227267626128302c302c302c302e342922202f3e3c746560598201527f787420783d22313270782220793d22313770782220666f6e742d66616d696c7960798201527f3d2227436f7572696572204e6577272c206d6f6e6f73706163652220666f6e7460998201527f2d73697a653d2231327078222066696c6c3d227768697465223e3c747370616e60b98201527f2066696c6c3d2272676261283235352c3235352c3235352c302e3629223e4c6960d98201526b33329d101e17ba39b830b71f60a11b60f9820152610105845161331981838501602089016122b4565b60006122ad838361339e565b600360fc1b81526000825161375a8160018501602087016122b4565b9190910160010192915050565b600083516137798184602088016122b4565b601760f91b90830190815283516137978160018401602088016122b4565b0160010194935050505056fe4142434445464748494a4b4c4d4e4f505152535455565758595a6162636465666768696a6b6c6d6e6f707172737475767778797a303132333435363738392b2fa26469706673582212202a4bdd21bd4967ccec37f78925c69210a2fc25db7430b986b6b8d1fe29ec157d64736f6c63430008110033","linkReferences":{}},"methodIdentifiers":{"approve(address,uint256)":"095ea7b3","balanceOf(address)":"70a08231","burn(uint256)":"42966c68","edit(uint256,int256,int256)":"a38b9966","exec(address)":"6bb6126e","file(bytes32,address)":"d4e8be83","forceBurn(uint256)":"31c10da3","getApproved(uint256)":"081812fc","investor()":"1e0018d6","isApprovedForAll(address,address)":"e985e9c5","name()":"06fdde03","open(uint256,address,uint256,uint256,address)":"fdf989f9","ownerOf(uint256)":"6352211e","safeTransferFrom(address,address,uint256)":"42842e0e","safeTransferFrom(address,address,uint256,bytes)":"b88d4fde","setApprovalForAll(address,bool)":"a22cb465","supportsInterface(bytes4)":"01ffc9a7","symbol()":"95d89b41","tokenOfOwnerByIndex(address,uint256)":"2f745c59","tokenURI(uint256)":"c87b56dd","tokensOfOwner(address,uint256,uint256)":"c839fe94","transferFrom(address,address,uint256)":"23b872dd","whitelist()":"93e59dc1"},"id":5}