{"abi":[{"type":"constructor","inputs":[{"name":"_investor","type":"address","internalType":"address"},{"name":"_asset","type":"address","internalType":"address"},{"name":"_lender","type":"address","internalType":"address"},{"name":"_sh","type":"address","internalType":"address"}],"stateMutability":"nonpayable"},{"type":"function","name":"asset","inputs":[],"outputs":[{"name":"","type":"address","internalType":"contract IERC20"}],"stateMutability":"view"},{"type":"function","name":"executeOperation","inputs":[{"name":"","type":"address","internalType":"address"},{"name":"amount","type":"uint256","internalType":"uint256"},{"name":"premium","type":"uint256","internalType":"uint256"},{"name":"initiator","type":"address","internalType":"address"},{"name":"params","type":"bytes","internalType":"bytes"}],"outputs":[{"name":"","type":"bool","internalType":"bool"}],"stateMutability":"nonpayable"},{"type":"function","name":"investor","inputs":[],"outputs":[{"name":"","type":"address","internalType":"contract IInvestor"}],"stateMutability":"view"},{"type":"function","name":"kill","inputs":[{"name":"id","type":"uint256","internalType":"uint256"}],"outputs":[],"stateMutability":"nonpayable"},{"type":"function","name":"lender","inputs":[],"outputs":[{"name":"","type":"address","internalType":"contract IAavePool"}],"stateMutability":"view"},{"type":"function","name":"sh","inputs":[],"outputs":[{"name":"","type":"address","internalType":"contract IStrategyHelper"}],"stateMutability":"view"},{"type":"function","name":"slippage","inputs":[],"outputs":[{"name":"","type":"uint256","internalType":"uint256"}],"stateMutability":"view"}],"bytecode":{"object":"0x60806040526109c460045534801561001657600080fd5b50604051610dc6380380610dc6833981016040819052610035916100a4565b600080546001600160a01b039586166001600160a01b03199182161790915560018054948616948216949094179093556002805492851692841692909217909155600380549190931691161790556100f8565b80516001600160a01b038116811461009f57600080fd5b919050565b600080600080608085870312156100ba57600080fd5b6100c385610088565b93506100d160208601610088565b92506100df60408601610088565b91506100ed60608601610088565b905092959194509250565b610cbf806101076000396000f3fe608060405234801561001057600080fd5b506004361061007d5760003560e01c806338d52e0f1161005b57806338d52e0f146100e85780633e032a3b146100fb578063bcead63e14610112578063d29a00251461012557600080fd5b80631b11d0ff146100825780631e0018d6146100aa5780632c0ef004146100d5575b600080fd5b6100956100903660046108e5565b61013a565b60405190151581526020015b60405180910390f35b6000546100bd906001600160a01b031681565b6040516001600160a01b0390911681526020016100a1565b6003546100bd906001600160a01b031681565b6001546100bd906001600160a01b031681565b61010460045481565b6040519081526020016100a1565b6002546100bd906001600160a01b031681565b61013861013336600461098f565b61065f565b005b6002546000906001600160a01b031633146101865760405162461bcd60e51b815260206004820152600760248201526610b632b73232b960c91b60448201526064015b60405180910390fd5b6001600160a01b03841630146101c45760405162461bcd60e51b8152602060048201526003602482015262216d6560e81b604482015260640161017d565b60006101d083856109a8565b60015460005460405163095ea7b360e01b81526001600160a01b039182166004820152602481018b9052929350169063095ea7b390604401600060405180830381600087803b15801561022257600080fd5b505af1158015610236573d6000803e3d6000fd5b50506000805460405163d29a002560e01b8152600481018690529193508392506001600160a01b03169063d29a0025906024016000604051808303816000875af1158015610288573d6000803e3d6000fd5b505050506040513d6000823e601f3d908101601f191682016040526102b09190810190610a32565b91509150600080828060200190518101906102cb9190610adc565b915091506102d88461075f565b8164737573686960d81b036104e0576000816000815181106102fc576102fc610b9a565b60209081029190910101516040516370a0823160e01b81523060048201529091506001600160a01b0382169063a9059cbb90839083906370a0823190602401602060405180830381865afa158015610358573d6000803e3d6000fd5b505050506040513d601f19601f8201168201806040525081019061037c9190610bb0565b6040516001600160e01b031960e085901b1681526001600160a01b0390921660048301526024820152604401600060405180830381600087803b1580156103c257600080fd5b505af11580156103d6573d6000803e3d6000fd5b505060405163226bf2d160e21b81523060048201526001600160a01b03841692506389afcb449150602401600060405180830381600087803b15801561041b57600080fd5b505af115801561042f573d6000803e3d6000fd5b5050505061049d816001600160a01b0316630dfe16816040518163ffffffff1660e01b8152600401602060405180830381865afa158015610474573d6000803e3d6000fd5b505050506040513d601f19601f820116820180604052508101906104989190610bc9565b61075f565b6104de816001600160a01b031663d21220a76040518163ffffffff1660e01b8152600401602060405180830381865afa158015610474573d6000803e3d6000fd5b505b6001546002546001600160a01b039182169163095ea7b391166105038d8f610c03565b6040516001600160e01b031960e085901b1681526001600160a01b0390921660048301526024820152604401600060405180830381600087803b15801561054957600080fd5b505af115801561055d573d6000803e3d6000fd5b50506001546040516370a0823160e01b81523060048201526001600160a01b03909116925063a9059cbb915033908d908f9085906370a0823190602401602060405180830381865afa1580156105b7573d6000803e3d6000fd5b505050506040513d601f19601f820116820180604052508101906105db9190610bb0565b6105e59190610c16565b6105ef9190610c16565b6040516001600160e01b031960e085901b1681526001600160a01b0390921660048301526024820152604401600060405180830381600087803b15801561063557600080fd5b505af1158015610649573d6000803e3d6000fd5b5060019f9e505050505050505050505050505050565b6000805460405163735b8c9360e01b8152600481018490526001600160a01b039091169063735b8c93906024016020604051808303816000875af11580156106ab573d6000803e3d6000fd5b505050506040513d601f19601f820116820180604052508101906106cf9190610bb0565b60025460015460408051602080820188905282518083039091018152818301928390526310ac2ddf60e21b9092529394506001600160a01b03928316936342b0b77c93610729933093911691879190600090604401610c29565b600060405180830381600087803b15801561074357600080fd5b505af1158015610757573d6000803e3d6000fd5b505050505050565b6040516370a0823160e01b815230600482015281906000906001600160a01b038316906370a0823190602401602060405180830381865afa1580156107a8573d6000803e3d6000fd5b505050506040513d601f19601f820116820180604052508101906107cc9190610bb0565b60035460405163095ea7b360e01b81526001600160a01b0391821660048201526024810183905291925083169063095ea7b390604401600060405180830381600087803b15801561081c57600080fd5b505af1158015610830573d6000803e3d6000fd5b50506003546001546004805460405163d5bcb9b560e01b81526001600160a01b038a8116938201939093529282166024840152604483018790526064830152306084830152909116925063d5bcb9b5915060a4016020604051808303816000875af11580156108a3573d6000803e3d6000fd5b505050506040513d601f19601f820116820180604052508101906108c79190610bb0565b50505050565b6001600160a01b03811681146108e257600080fd5b50565b60008060008060008060a087890312156108fe57600080fd5b8635610909816108cd565b955060208701359450604087013593506060870135610927816108cd565b9250608087013567ffffffffffffffff8082111561094457600080fd5b818901915089601f83011261095857600080fd5b81358181111561096757600080fd5b8a602082850101111561097957600080fd5b6020830194508093505050509295509295509295565b6000602082840312156109a157600080fd5b5035919050565b803560208310156109c157600019602084900360031b1b165b92915050565b634e487b7160e01b600052604160045260246000fd5b604051601f8201601f1916810167ffffffffffffffff81118282101715610a0657610a066109c7565b604052919050565b60005b83811015610a29578181015183820152602001610a11565b50506000910152565b60008060408385031215610a4557600080fd5b8251610a50816108cd565b602084015190925067ffffffffffffffff80821115610a6e57600080fd5b818501915085601f830112610a8257600080fd5b815181811115610a9457610a946109c7565b610aa7601f8201601f19166020016109dd565b9150808252866020828501011115610abe57600080fd5b610acf816020840160208601610a0e565b5080925050509250929050565b60008060408385031215610aef57600080fd5b8251915060208084015167ffffffffffffffff80821115610b0f57600080fd5b818601915086601f830112610b2357600080fd5b815181811115610b3557610b356109c7565b8060051b9150610b468483016109dd565b8181529183018401918481019089841115610b6057600080fd5b938501935b83851015610b8a5784519250610b7a836108cd565b8282529385019390850190610b65565b8096505050505050509250929050565b634e487b7160e01b600052603260045260246000fd5b600060208284031215610bc257600080fd5b5051919050565b600060208284031215610bdb57600080fd5b8151610be6816108cd565b9392505050565b634e487b7160e01b600052601160045260246000fd5b808201808211156109c1576109c1610bed565b818103818111156109c1576109c1610bed565b600060018060a01b03808816835280871660208401525084604083015260a0606083015283518060a0840152610c668160c0850160208801610a0e565b61ffff93909316608083015250601f91909101601f19160160c00194935050505056fea2646970667358221220660e27c9969d16c81d2c2b85ccf22243dbe87c8e9841965f32c93cf073d9557964736f6c63430008110033","linkReferences":{}},"methodIdentifiers":{"asset()":"38d52e0f","executeOperation(address,uint256,uint256,address,bytes)":"1b11d0ff","investor()":"1e0018d6","kill(uint256)":"d29a0025","lender()":"bcead63e","sh()":"2c0ef004","slippage()":"3e032a3b"},"id":2}